{
  "address": "0xf168E64B8c1545Ec065F60577EF20047eb2839e3",
  "abi": [
    {
      "inputs": [
        {
          "internalType": "address",
          "name": "safeAccount_",
          "type": "address"
        },
        {
          "internalType": "address",
          "name": "safeMultiSend_",
          "type": "address"
        },
        {
          "internalType": "address",
          "name": "governor_",
          "type": "address"
        },
        {
          "internalType": "bool",
          "name": "allowSetGuard_",
          "type": "bool"
        }
      ],
      "stateMutability": "nonpayable",
      "type": "constructor"
    },
    {
      "anonymous": false,
      "inputs": [
        {
          "indexed": true,
          "internalType": "string",
          "name": "name",
          "type": "string"
        },
        {
          "indexed": true,
          "internalType": "address",
          "name": "executor_",
          "type": "address"
        },
        {
          "indexed": false,
          "internalType": "bool",
          "name": "enabled_",
          "type": "bool"
        }
      ],
      "name": "AddAuthorization",
      "type": "event"
    },
    {
      "anonymous": false,
      "inputs": [
        {
          "indexed": true,
          "internalType": "address",
          "name": "contract_",
          "type": "address"
        },
        {
          "indexed": false,
          "internalType": "string",
          "name": "func_",
          "type": "string"
        },
        {
          "indexed": true,
          "internalType": "address",
          "name": "sender_",
          "type": "address"
        }
      ],
      "name": "AddContractFunc",
      "type": "event"
    },
    {
      "anonymous": false,
      "inputs": [
        {
          "indexed": true,
          "internalType": "address",
          "name": "contract_",
          "type": "address"
        },
        {
          "indexed": true,
          "internalType": "bytes4",
          "name": "funcSig_",
          "type": "bytes4"
        },
        {
          "indexed": true,
          "internalType": "address",
          "name": "sender_",
          "type": "address"
        }
      ],
      "name": "AddContractFuncSig",
      "type": "event"
    },
    {
      "anonymous": false,
      "inputs": [
        {
          "indexed": true,
          "internalType": "address",
          "name": "receiver_",
          "type": "address"
        }
      ],
      "name": "AddNativeTokenReceiver",
      "type": "event"
    },
    {
      "anonymous": false,
      "inputs": [
        {
          "indexed": false,
          "internalType": "bool",
          "name": "isSetGuardAllowed_",
          "type": "bool"
        }
      ],
      "name": "AllowSetGuard",
      "type": "event"
    },
    {
      "anonymous": false,
      "inputs": [
        {
          "indexed": true,
          "internalType": "address",
          "name": "previousGovernor",
          "type": "address"
        },
        {
          "indexed": true,
          "internalType": "address",
          "name": "newGovernor",
          "type": "address"
        }
      ],
      "name": "NewGovernor",
      "type": "event"
    },
    {
      "anonymous": false,
      "inputs": [
        {
          "indexed": true,
          "internalType": "string",
          "name": "name",
          "type": "string"
        },
        {
          "indexed": true,
          "internalType": "address",
          "name": "executor_",
          "type": "address"
        },
        {
          "indexed": false,
          "internalType": "bool",
          "name": "enabled_",
          "type": "bool"
        }
      ],
      "name": "RemoveAuthorization",
      "type": "event"
    },
    {
      "anonymous": false,
      "inputs": [
        {
          "indexed": true,
          "internalType": "address",
          "name": "contract_",
          "type": "address"
        },
        {
          "indexed": false,
          "internalType": "string",
          "name": "func_",
          "type": "string"
        },
        {
          "indexed": true,
          "internalType": "address",
          "name": "sender_",
          "type": "address"
        }
      ],
      "name": "RemoveContractFunc",
      "type": "event"
    },
    {
      "anonymous": false,
      "inputs": [
        {
          "indexed": true,
          "internalType": "address",
          "name": "contract_",
          "type": "address"
        },
        {
          "indexed": true,
          "internalType": "bytes4",
          "name": "funcSig_",
          "type": "bytes4"
        },
        {
          "indexed": true,
          "internalType": "address",
          "name": "sender_",
          "type": "address"
        }
      ],
      "name": "RemoveContractFuncSig",
      "type": "event"
    },
    {
      "anonymous": false,
      "inputs": [
        {
          "indexed": true,
          "internalType": "address",
          "name": "receiver_",
          "type": "address"
        }
      ],
      "name": "RemoveNativeTokenReceiver",
      "type": "event"
    },
    {
      "anonymous": false,
      "inputs": [
        {
          "indexed": true,
          "internalType": "string",
          "name": "name",
          "type": "string"
        },
        {
          "indexed": true,
          "internalType": "address",
          "name": "executor_",
          "type": "address"
        },
        {
          "indexed": false,
          "internalType": "bool",
          "name": "enabled_",
          "type": "bool"
        }
      ],
      "name": "SetAuthorization",
      "type": "event"
    },
    {
      "anonymous": false,
      "inputs": [
        {
          "indexed": true,
          "internalType": "address",
          "name": "contract_",
          "type": "address"
        },
        {
          "indexed": true,
          "internalType": "address",
          "name": "acl_",
          "type": "address"
        },
        {
          "indexed": true,
          "internalType": "address",
          "name": "sender_",
          "type": "address"
        }
      ],
      "name": "SetContractACL",
      "type": "event"
    },
    {
      "anonymous": false,
      "inputs": [
        {
          "indexed": false,
          "internalType": "bool",
          "name": "isNativeTokenTransferAllowed_",
          "type": "bool"
        }
      ],
      "name": "SetNativeTokenTransferAllowed",
      "type": "event"
    },
    {
      "stateMutability": "nonpayable",
      "type": "fallback"
    },
    {
      "inputs": [],
      "name": "SAFE_MULITSEND_FUNC_MULTI_SEND",
      "outputs": [
        {
          "internalType": "string",
          "name": "",
          "type": "string"
        }
      ],
      "stateMutability": "view",
      "type": "function"
    },
    {
      "inputs": [
        {
          "components": [
            {
              "internalType": "string",
              "name": "name",
              "type": "string"
            },
            {
              "internalType": "address",
              "name": "executor",
              "type": "address"
            },
            {
              "internalType": "bool",
              "name": "enabled",
              "type": "bool"
            }
          ],
          "internalType": "struct SolvVaultGuardianBase.Authorization[]",
          "name": "authorizations_",
          "type": "tuple[]"
        }
      ],
      "name": "addAuthorizations",
      "outputs": [],
      "stateMutability": "nonpayable",
      "type": "function"
    },
    {
      "inputs": [
        {
          "internalType": "address",
          "name": "contract_",
          "type": "address"
        },
        {
          "internalType": "address",
          "name": "acl_",
          "type": "address"
        },
        {
          "internalType": "string[]",
          "name": "funcList_",
          "type": "string[]"
        }
      ],
      "name": "addContractFuncs",
      "outputs": [],
      "stateMutability": "nonpayable",
      "type": "function"
    },
    {
      "inputs": [
        {
          "internalType": "address",
          "name": "contract_",
          "type": "address"
        },
        {
          "internalType": "address",
          "name": "acl_",
          "type": "address"
        },
        {
          "internalType": "bytes4[]",
          "name": "funcSigList_",
          "type": "bytes4[]"
        }
      ],
      "name": "addContractFuncsSig",
      "outputs": [],
      "stateMutability": "nonpayable",
      "type": "function"
    },
    {
      "inputs": [
        {
          "internalType": "address[]",
          "name": "receivers_",
          "type": "address[]"
        }
      ],
      "name": "addNativeTokenReceiver",
      "outputs": [],
      "stateMutability": "nonpayable",
      "type": "function"
    },
    {
      "inputs": [],
      "name": "allowNativeTokenTransfer",
      "outputs": [
        {
          "internalType": "bool",
          "name": "",
          "type": "bool"
        }
      ],
      "stateMutability": "view",
      "type": "function"
    },
    {
      "inputs": [],
      "name": "allowSetGuard",
      "outputs": [
        {
          "internalType": "bool",
          "name": "",
          "type": "bool"
        }
      ],
      "stateMutability": "view",
      "type": "function"
    },
    {
      "inputs": [
        {
          "components": [
            {
              "internalType": "address",
              "name": "from",
              "type": "address"
            },
            {
              "internalType": "address",
              "name": "to",
              "type": "address"
            },
            {
              "internalType": "uint256",
              "name": "value",
              "type": "uint256"
            },
            {
              "internalType": "bytes",
              "name": "data",
              "type": "bytes"
            }
          ],
          "internalType": "struct Type.TxData",
          "name": "txData_",
          "type": "tuple"
        }
      ],
      "name": "authorizationCheckTransaction",
      "outputs": [
        {
          "components": [
            {
              "internalType": "bool",
              "name": "success",
              "type": "bool"
            },
            {
              "internalType": "string",
              "name": "message",
              "type": "string"
            }
          ],
          "internalType": "struct Type.CheckResult",
          "name": "",
          "type": "tuple"
        }
      ],
      "stateMutability": "nonpayable",
      "type": "function"
    },
    {
      "inputs": [
        {
          "internalType": "uint256",
          "name": "",
          "type": "uint256"
        }
      ],
      "name": "authorizations",
      "outputs": [
        {
          "internalType": "string",
          "name": "name",
          "type": "string"
        },
        {
          "internalType": "address",
          "name": "executor",
          "type": "address"
        },
        {
          "internalType": "bool",
          "name": "enabled",
          "type": "bool"
        }
      ],
      "stateMutability": "view",
      "type": "function"
    },
    {
      "inputs": [],
      "name": "caller",
      "outputs": [
        {
          "internalType": "address",
          "name": "",
          "type": "address"
        }
      ],
      "stateMutability": "view",
      "type": "function"
    },
    {
      "inputs": [
        {
          "internalType": "bytes32",
          "name": "txHash",
          "type": "bytes32"
        },
        {
          "internalType": "bool",
          "name": "success",
          "type": "bool"
        }
      ],
      "name": "checkAfterExecution",
      "outputs": [],
      "stateMutability": "nonpayable",
      "type": "function"
    },
    {
      "inputs": [
        {
          "internalType": "address",
          "name": "to",
          "type": "address"
        },
        {
          "internalType": "uint256",
          "name": "value",
          "type": "uint256"
        },
        {
          "internalType": "bytes",
          "name": "data",
          "type": "bytes"
        },
        {
          "internalType": "enum Enum.Operation",
          "name": "",
          "type": "uint8"
        },
        {
          "internalType": "uint256",
          "name": "",
          "type": "uint256"
        },
        {
          "internalType": "uint256",
          "name": "",
          "type": "uint256"
        },
        {
          "internalType": "uint256",
          "name": "",
          "type": "uint256"
        },
        {
          "internalType": "address",
          "name": "",
          "type": "address"
        },
        {
          "internalType": "address payable",
          "name": "",
          "type": "address"
        },
        {
          "internalType": "bytes",
          "name": "",
          "type": "bytes"
        },
        {
          "internalType": "address",
          "name": "msgSender",
          "type": "address"
        }
      ],
      "name": "checkTransaction",
      "outputs": [],
      "stateMutability": "nonpayable",
      "type": "function"
    },
    {
      "inputs": [],
      "name": "forbidGovernance",
      "outputs": [],
      "stateMutability": "nonpayable",
      "type": "function"
    },
    {
      "inputs": [
        {
          "internalType": "address",
          "name": "contract_",
          "type": "address"
        }
      ],
      "name": "getACLByContract",
      "outputs": [
        {
          "internalType": "address",
          "name": "",
          "type": "address"
        }
      ],
      "stateMutability": "view",
      "type": "function"
    },
    {
      "inputs": [],
      "name": "getAllContracts",
      "outputs": [
        {
          "internalType": "address[]",
          "name": "",
          "type": "address[]"
        }
      ],
      "stateMutability": "view",
      "type": "function"
    },
    {
      "inputs": [
        {
          "internalType": "address",
          "name": "contract_",
          "type": "address"
        }
      ],
      "name": "getFunctionsByContract",
      "outputs": [
        {
          "internalType": "bytes32[]",
          "name": "",
          "type": "bytes32[]"
        }
      ],
      "stateMutability": "view",
      "type": "function"
    },
    {
      "inputs": [],
      "name": "governanceAllowed",
      "outputs": [
        {
          "internalType": "bool",
          "name": "",
          "type": "bool"
        }
      ],
      "stateMutability": "view",
      "type": "function"
    },
    {
      "inputs": [],
      "name": "governor",
      "outputs": [
        {
          "internalType": "address",
          "name": "",
          "type": "address"
        }
      ],
      "stateMutability": "view",
      "type": "function"
    },
    {
      "inputs": [
        {
          "internalType": "bytes[]",
          "name": "data",
          "type": "bytes[]"
        }
      ],
      "name": "multicall",
      "outputs": [
        {
          "internalType": "bytes[]",
          "name": "results",
          "type": "bytes[]"
        }
      ],
      "stateMutability": "nonpayable",
      "type": "function"
    },
    {
      "inputs": [
        {
          "internalType": "address",
          "name": "",
          "type": "address"
        }
      ],
      "name": "nativeTokenReceiver",
      "outputs": [
        {
          "internalType": "bool",
          "name": "",
          "type": "bool"
        }
      ],
      "stateMutability": "view",
      "type": "function"
    },
    {
      "inputs": [
        {
          "internalType": "address[]",
          "name": "executors_",
          "type": "address[]"
        }
      ],
      "name": "removeAuthorizations",
      "outputs": [],
      "stateMutability": "nonpayable",
      "type": "function"
    },
    {
      "inputs": [
        {
          "internalType": "address",
          "name": "contract_",
          "type": "address"
        },
        {
          "internalType": "string[]",
          "name": "funcList_",
          "type": "string[]"
        }
      ],
      "name": "removeContractFuncs",
      "outputs": [],
      "stateMutability": "nonpayable",
      "type": "function"
    },
    {
      "inputs": [
        {
          "internalType": "address",
          "name": "contract_",
          "type": "address"
        },
        {
          "internalType": "bytes4[]",
          "name": "funcSigList_",
          "type": "bytes4[]"
        }
      ],
      "name": "removeContractFuncsSig",
      "outputs": [],
      "stateMutability": "nonpayable",
      "type": "function"
    },
    {
      "inputs": [
        {
          "internalType": "address[]",
          "name": "receivers_",
          "type": "address[]"
        }
      ],
      "name": "removeNativeTokenReceiver",
      "outputs": [],
      "stateMutability": "nonpayable",
      "type": "function"
    },
    {
      "inputs": [],
      "name": "safeAccount",
      "outputs": [
        {
          "internalType": "address",
          "name": "",
          "type": "address"
        }
      ],
      "stateMutability": "view",
      "type": "function"
    },
    {
      "inputs": [],
      "name": "safeMultiSendContract",
      "outputs": [
        {
          "internalType": "address",
          "name": "",
          "type": "address"
        }
      ],
      "stateMutability": "view",
      "type": "function"
    },
    {
      "inputs": [
        {
          "internalType": "address",
          "name": "executor_",
          "type": "address"
        },
        {
          "internalType": "bool",
          "name": "enabled_",
          "type": "bool"
        }
      ],
      "name": "setAuthorizationEnabled",
      "outputs": [],
      "stateMutability": "nonpayable",
      "type": "function"
    },
    {
      "inputs": [
        {
          "internalType": "address",
          "name": "contract_",
          "type": "address"
        },
        {
          "internalType": "address",
          "name": "acl_",
          "type": "address"
        }
      ],
      "name": "setContractACL",
      "outputs": [],
      "stateMutability": "nonpayable",
      "type": "function"
    },
    {
      "inputs": [
        {
          "internalType": "bool",
          "name": "allowed_",
          "type": "bool"
        }
      ],
      "name": "setGuardAllowed",
      "outputs": [],
      "stateMutability": "nonpayable",
      "type": "function"
    },
    {
      "inputs": [
        {
          "internalType": "bool",
          "name": "allowed_",
          "type": "bool"
        }
      ],
      "name": "setNativeTokenTransferAllowed",
      "outputs": [],
      "stateMutability": "nonpayable",
      "type": "function"
    },
    {
      "inputs": [
        {
          "internalType": "address",
          "name": "newGovernor_",
          "type": "address"
        }
      ],
      "name": "transferGovernance",
      "outputs": [],
      "stateMutability": "nonpayable",
      "type": "function"
    }
  ],
  "transactionHash": "0x89084af8007ec15e498c3fd9aeb2746ee5883d27a30fd309a2c001cb27928215",
  "args": [
    "0xa743ccf2556c5660a826a9a1ac35c2eb5ef71114",
    "0xA238CBeb142c10Ef7Ad8442C6D1f9E89e07e7761",
    "0xd1B4ea4A0e176292D667695FC7674F845009b32E",
    true
  ],
  "numDeployments": 1,
  "solcInputHash": "2121ec9dd11ae68daec955dfa748cdcd",
  "bytecode": "0x60c06040526000805460ff60a01b1916600160a01b1790553480156200002457600080fd5b5060405162003bb938038062003bb98339810160408190526200004791620002db565b838383838230838181806200005c816200016c565b5050600180546001600160a01b0319166001600160a01b039283161790559283166080525050841660a05262000092816200022c565b6200009e600062000274565b6000604051806060016040528060405180606001604052806026815260200162003b93602691398152306020820152600160409091018190526006805491820181556000528151919250829160029091027ff652222313e28459528d920b65115c16c04f3efc82aaedc97be59f3f377c0d3f01908190620001209082620003e3565b506020820151600190910180546040909301511515600160a01b026001600160a81b03199093166001600160a01b039092169190911791909117905550620004af975050505050505050565b6001600160a01b038116620001dc5760405162461bcd60e51b815260206004820152602c60248201527f476f7665726e61626c653a206e657720676f7665726e6f72206973207468652060448201526b7a65726f206164647265737360a01b606482015260840160405180910390fd5b600080546001600160a01b038381166001600160a01b0319831681178455604051919092169283917f1ba669d4a78521f2ad26e8e0fcbcdd626a63f34d68f326bc232a3abe2a5d042a9190a35050565b6007805460ff19168215159081179091556040519081527f10fdcbd0714fbcaa43406498e01ad037100d45ebfdb08df490918ae081ebeeac906020015b60405180910390a150565b600780548215156101000261ff00199091161790556040517f54d56cd2606f2dd62786c5373c57ac078c573716c56eb17b7bf639b88031a4b5906200026990831515815260200190565b80516001600160a01b0381168114620002d657600080fd5b919050565b60008060008060808587031215620002f257600080fd5b620002fd85620002be565b93506200030d60208601620002be565b92506200031d60408601620002be565b9150606085015180151581146200033357600080fd5b939692955090935050565b634e487b7160e01b600052604160045260246000fd5b600181811c908216806200036957607f821691505b6020821081036200038a57634e487b7160e01b600052602260045260246000fd5b50919050565b601f821115620003de57600081815260208120601f850160051c81016020861015620003b95750805b601f850160051c820191505b81811015620003da57828155600101620003c5565b5050505b505050565b81516001600160401b03811115620003ff57620003ff6200033e565b620004178162000410845462000354565b8462000390565b602080601f8311600181146200044f5760008415620004365750858301515b600019600386901b1c1916600185901b178555620003da565b600085815260208120601f198616915b8281101562000480578886015182559484019460019091019084016200045f565b50858210156200049f5787850151600019600388901b60f8161c191681555b5050505050600190811b01905550565b60805160a0516136a9620004ea6000396000818161022d015281816111fe01526112ac0152600081816103010152611ee401526136a96000f3fe608060405234801561001057600080fd5b50600436106101d05760003560e01c806370c2ded511610103578063a3fb76a51161009c578063d38bfff41161006e578063d38bfff4146104ab578063eefbd8c1146104be578063f486186d146104d1578063fc9c8d39146104d957005b8063a3fb76a514610439578063ac9650d814610465578063ae4f345614610485578063ae76a0841461049857005b806391bebc7a116100d557806391bebc7a146103ee578063932713681461040157806394e9d04414610413578063a2d962101461042657005b806370c2ded51461038557806375f0bb52146103a5578063810845e9146103b85780638e6cb526146103db57005b80633504a49f1161017557806352797b3e1161014757806352797b3e146102fc578063563dbef2146103235780635ce5fb0a14610335578063656abb9c1461034957005b80633504a49f1461029957806336a6c861146102b9578063431a9877146102cc578063476ed36d146102e957005b80631576f83f116101ae5780631576f83f1461022857806318d3ce961461024f578063210d66f81461026457806321a4710d1461028657005b80630c340a24146101d25780630ef62b181461020257806314fda02714610215575b005b6000546101e5906001600160a01b031681565b6040516001600160a01b0390911681526020015b60405180910390f35b6101d06102103660046126cc565b6104ec565b6101d061022336600461272d565b610607565b6101e57f000000000000000000000000000000000000000000000000000000000000000081565b6102576106a2565b6040516101f99190612791565b6102776102723660046127de565b6106b3565b6040516101f993929190612847565b6101d0610294366004612888565b610785565b6102ac6102a73660046128a5565b6107d0565b6040516101f991906128df565b6101d06102c736600461290e565b610850565b6007546102d99060ff1681565b60405190151581526020016101f9565b6101d06102f7366004612947565b610899565b6101e57f000000000000000000000000000000000000000000000000000000000000000081565b6007546102d990610100900460ff1681565b6000546102d990600160a01b900460ff1681565b6103786040518060400160405280601081526020016f6d756c746953656e642862797465732960801b81525081565b6040516101f9919061299b565b6103986103933660046129ae565b6108eb565b6040516101f991906129cb565b6101d06103b3366004612b18565b61090f565b6102d96103c63660046129ae565b60086020526000908152604090205460ff1681565b6101d06103e9366004612c05565b61092a565b6101d06103fc366004612888565b610973565b6101d061040f366004612c33565b5050565b6101d0610421366004612947565b6109bb565b6101d0610434366004612ce3565b610a05565b6101e56104473660046129ae565b6001600160a01b039081166000908152600560205260409020541690565b6104786104733660046126cc565b610a67565b6040516101f99190612d58565b6101d06104933660046126cc565b610b86565b6101d06104a63660046126cc565b610c17565b6101d06104b93660046129ae565b610d24565b6101d06104cc3660046126cc565b610d6c565b6101d0610df7565b6001546101e5906001600160a01b031681565b600054600160a01b900460ff16801561050f57506000546001600160a01b031633145b6105345760405162461bcd60e51b815260040161052b90612dba565b60405180910390fd5b60005b818110156106025760006008600085858581811061055757610557612df1565b905060200201602081019061056c91906129ae565b6001600160a01b031681526020810191909152604001600020805460ff19169115159190911790558282828181106105a6576105a6612df1565b90506020020160208101906105bb91906129ae565b6001600160a01b03167f2a2c3e24d0cdd675094967281857d46047a05f68f62ae1f0a3428ce933fc780b60405160405180910390a2806105fa81612e1d565b915050610537565b505050565b600054600160a01b900460ff16801561062a57506000546001600160a01b031633145b6106465760405162461bcd60e51b815260040161052b90612dba565b61068384838380806020026020016040519081016040528093929190818152602001838360200280828437600092019190915250610e4592505050565b6001600160a01b0383161561069c5761069c8484610f5a565b50505050565b60606106ae6002610fb4565b905090565b600681815481106106c357600080fd5b90600052602060002090600202016000915090508060000180546106e690612e36565b80601f016020809104026020016040519081016040528092919081815260200182805461071290612e36565b801561075f5780601f106107345761010080835404028352916020019161075f565b820191906000526020600020905b81548152906001019060200180831161074257829003601f168201915b505050600190930154919250506001600160a01b0381169060ff600160a01b9091041683565b600054600160a01b900460ff1680156107a857506000546001600160a01b031633145b6107c45760405162461bcd60e51b815260040161052b90612dba565b6107cd81610fc8565b50565b6040805180820190915260008152606060208201526001546001600160a01b0316331461083f5760405162461bcd60e51b815260206004820152601b60248201527f42617365417574686f72697a6174696f6e3a206f6e6c7953656c660000000000604482015260640161052b565b61084882611010565b90505b919050565b600054600160a01b900460ff16801561087357506000546001600160a01b031633145b61088f5760405162461bcd60e51b815260040161052b90612dba565b61040f8282610f5a565b600054600160a01b900460ff1680156108bc57506000546001600160a01b031633145b6108d85760405162461bcd60e51b815260040161052b90612dba565b610602836108e68385612e70565b61105c565b6001600160a01b038116600090815260046020526040902060609061084890610fb4565b61091c8c8c8c8c856111fc565b505050505050505050505050565b600054600160a01b900460ff16801561094d57506000546001600160a01b031633145b6109695760405162461bcd60e51b815260040161052b90612dba565b61040f82826114ec565b600054600160a01b900460ff16801561099657506000546001600160a01b031633145b6109b25760405162461bcd60e51b815260040161052b90612dba565b6107cd81611664565b600054600160a01b900460ff1680156109de57506000546001600160a01b031633145b6109fa5760405162461bcd60e51b815260040161052b90612dba565b6106028383836116ad565b600054600160a01b900460ff168015610a2857506000546001600160a01b031633145b610a445760405162461bcd60e51b815260040161052b90612dba565b610a4e838261180a565b6001600160a01b03821615610602576106028383610f5a565b6060816001600160401b03811115610a8157610a81612a53565b604051908082528060200260200182016040528015610ab457816020015b6060815260200190600190039081610a9f5790505b50905060005b82811015610b7e5760008030868685818110610ad857610ad8612df1565b9050602002810190610aea9190612e7d565b604051610af8929190612ec3565b600060405180830381855af49150503d8060008114610b33576040519150601f19603f3d011682016040523d82523d6000602084013e610b38565b606091505b509150915081610b4b57610b4b81611950565b80848481518110610b5e57610b5e612df1565b602002602001018190525050508080610b7690612e1d565b915050610aba565b505b92915050565b600054600160a01b900460ff168015610ba957506000546001600160a01b031633145b610bc55760405162461bcd60e51b815260040161052b90612dba565b60005b8181101561060257610c05838383818110610be557610be5612df1565b9050602002810190610bf79190612ed3565b610c0090612ef3565b611989565b80610c0f81612e1d565b915050610bc8565b600054600160a01b900460ff168015610c3a57506000546001600160a01b031633145b610c565760405162461bcd60e51b815260040161052b90612dba565b60005b8181101561060257600160086000858585818110610c7957610c79612df1565b9050602002016020810190610c8e91906129ae565b6001600160a01b031681526020810191909152604001600020805460ff1916911515919091179055828282818110610cc857610cc8612df1565b9050602002016020810190610cdd91906129ae565b6001600160a01b03167ff6f0706d380b04dfc2bed645c220ddb58275c7513c62f60a81fa5b43c4e0e84860405160405180910390a280610d1c81612e1d565b915050610c59565b600054600160a01b900460ff168015610d4757506000546001600160a01b031633145b610d635760405162461bcd60e51b815260040161052b90612dba565b6107cd81611b1d565b600054600160a01b900460ff168015610d8f57506000546001600160a01b031633145b610dab5760405162461bcd60e51b815260040161052b90612dba565b60005b8181101561060257610de5838383818110610dcb57610dcb612df1565b9050602002016020810190610de091906129ae565b611bd8565b80610def81612e1d565b915050610dae565b600054600160a01b900460ff168015610e1a57506000546001600160a01b031633145b610e365760405162461bcd60e51b815260040161052b90612dba565b6000805460ff60a01b19169055565b6000815111610e665760405162461bcd60e51b815260040161052b90612f79565b60005b8151811015610f4e576000828281518110610e8657610e86612df1565b60200260200101516001600160e01b0319169050610ed18160046000876001600160a01b03166001600160a01b03168152602001908152602001600020611e0190919063ffffffff16565b15610f3b57336001600160a01b0316838381518110610ef257610ef2612df1565b60200260200101516001600160e01b031916856001600160a01b03167f246b022c673a2751245f84dced77afcce61bcd820ff1235276e8c1c242a78f7460405160405180910390a45b5080610f4681612e1d565b915050610e69565b50610602600283611e0d565b6001600160a01b0382811660008181526005602052604080822080546001600160a01b031916948616948517905551339392917f09a226cf85d5c3f9bf762d15f165b63b555418743ec5a33495c22ef0f9240bc591a45050565b60606000610fc183611e22565b9392505050565b6007805460ff19168215159081179091556040519081527f10fdcbd0714fbcaa43406498e01ad037100d45ebfdb08df490918ae081ebeeac906020015b60405180910390a150565b60408051808201909152600081526060602082015261084861103560208401846129ae565b61104560408501602086016129ae565b6110526060860186612e7d565b8660400135611e7e565b600081511161107d5760405162461bcd60e51b815260040161052b90612f79565b60005b81518110156111a257600082828151811061109d5761109d612df1565b6020908102919091018101518051908201206001600160a01b0386166000908152600490925260409091209091506001600160e01b03198216906110e19082611f8f565b1561118d57336001600160a01b0316856001600160a01b03167ffed6cf2efef20378e90c3b71c30db7338ca98f5e50e3bf7c8467d8d062512ac286868151811061112d5761112d612df1565b6020026020010151604051611142919061299b565b60405180910390a360405133906001600160e01b03198416906001600160a01b038816907fedfbd30ca95f1e16901a73aea7daddbbbcd26a1ff975301743208f1c3badfeb190600090a45b5050808061119a90612e1d565b915050611080565b506001600160a01b03821660009081526004602052604090206111c490611f9b565b60000361040f576001600160a01b038216600090815260056020526040902080546001600160a01b0319169055610602600283611fa5565b7f00000000000000000000000000000000000000000000000000000000000000006001600160a01b0316856001600160a01b031614801561123b575081155b6114e55760006040518060800160405280836001600160a01b03168152602001876001600160a01b0316815260200186815260200185858080601f016020809104026020016040519081016040528093929190818152602001838380828437600092019190915250505091525090507f00000000000000000000000000000000000000000000000000000000000000006001600160a01b039081169087161480156112e7575060048310155b8015611319575063e19a9dd960e01b611304600460008688612fbe565b61130d91612fe8565b6001600160e01b031916145b156113825760075460ff1661137c5760405162461bcd60e51b8152602060048201526024808201527f536f6c765661756c74477561726469616e3a2073657447756172642064697361604482015263189b195960e21b606482015260840161052b565b506114e5565b60005b60065481101561148957600681815481106113a2576113a2612df1565b906000526020600020906002020160010160149054906101000a900460ff1615611477576000600682815481106113db576113db612df1565b6000918252602090912060016002909202010154604051633504a49f60e01b81526001600160a01b0390911690633504a49f9061141c908690600401613018565b6000604051808303816000875af115801561143b573d6000803e3d6000fd5b505050506040513d6000823e601f3d908101601f1916820160405261146391908101906130ac565b805190915015611475575050506114e5565b505b8061148181612e1d565b915050611385565b5060405162461bcd60e51b815260206004820152602a60248201527f536f6c765661756c74477561726469616e3a20636865636b5472616e736163746044820152691a5bdb8819985a5b195960b21b606482015260840161052b565b5050505050565b60005b60065481101561060257826001600160a01b03166006828154811061151657611516612df1565b60009182526020909120600160029092020101546001600160a01b03160361165257816006828154811061154c5761154c612df1565b906000526020600020906002020160010160146101000a81548160ff0219169083151502179055506006818154811061158757611587612df1565b6000918252602090912060016002909202010154600680546001600160a01b0390921691839081106115bb576115bb612df1565b90600052602060002090600202016000016040516115d99190613141565b60405180910390207f83df6a35f72bb7cb0d722caf641fa408896a3b4b2137088e6a09f2ee6785bf756006848154811061161557611615612df1565b906000526020600020906002020160010160149054906101000a900460ff16604051611645911515815260200190565b60405180910390a3505050565b8061165c81612e1d565b9150506114ef565b600780548215156101000261ff00199091161790556040517f54d56cd2606f2dd62786c5373c57ac078c573716c56eb17b7bf639b88031a4b59061100590831515815260200190565b806116ca5760405162461bcd60e51b815260040161052b90612f79565b60005b818110156117b05760008383838181106116e9576116e9612df1565b90506020020160208101906116fe91906131b7565b6001600160a01b03861660009081526004602052604090206001600160e01b031991909116915061172f9082611f8f565b1561179d573384848481811061174757611747612df1565b905060200201602081019061175c91906131b7565b6001600160e01b031916866001600160a01b03167fedfbd30ca95f1e16901a73aea7daddbbbcd26a1ff975301743208f1c3badfeb160405160405180910390a45b50806117a881612e1d565b9150506116cd565b506001600160a01b03831660009081526004602052604090206117d290611f9b565b600003610602576001600160a01b038316600090815260056020526040902080546001600160a01b031916905561069c600284611fa5565b600081511161182b5760405162461bcd60e51b815260040161052b90612f79565b60005b8151811015610f4e57600082828151811061184b5761184b612df1565b6020908102919091018101518051908201206001600160a01b0386166000908152600490925260409091209091506001600160e01b031982169061188f9082611e01565b1561193b57336001600160a01b0316856001600160a01b03167f5c55717c3268b2c739eb5087e22a9bcf39b0d4f5a8ab89b4fff9cfe5711e4b348686815181106118db576118db612df1565b60200260200101516040516118f0919061299b565b60405180910390a360405133906001600160e01b03198416906001600160a01b038816907f246b022c673a2751245f84dced77afcce61bcd820ff1235276e8c1c242a78f7490600090a45b5050808061194890612e1d565b91505061182e565b60008061195c83611fba565b915091508015611980578160405162461bcd60e51b815260040161052b919061299b565b6106028361204a565b60005b600654811015611a425781602001516001600160a01b0316600682815481106119b7576119b7612df1565b60009182526020909120600160029092020101546001600160a01b031603611a305760405162461bcd60e51b815260206004820152602660248201527f536f6c765661756c74477561726469616e3a20677561726420616c726561647960448201526508195e1a5cdd60d21b606482015260840161052b565b80611a3a81612e1d565b91505061198c565b5060068054600181018255600091909152815182916002027ff652222313e28459528d920b65115c16c04f3efc82aaedc97be59f3f377c0d3f01908190611a89908261322f565b50602082810151600190920180546040948501511515600160a01b026001600160a81b03199091166001600160a01b039485161717905583015183519251911691611ad3916132ee565b60405180910390207fea4ceb90956a1f35756e735519308ece2e413a4b1b21bf5db4ee7c199d547b948360400151604051611b12911515815260200190565b60405180910390a350565b6001600160a01b038116611b885760405162461bcd60e51b815260206004820152602c60248201527f476f7665726e61626c653a206e657720676f7665726e6f72206973207468652060448201526b7a65726f206164647265737360a01b606482015260840161052b565b600080546001600160a01b038381166001600160a01b0319831681178455604051919092169283917f1ba669d4a78521f2ad26e8e0fcbcdd626a63f34d68f326bc232a3abe2a5d042a9190a35050565b60005b60065481101561040f57816001600160a01b031660068281548110611c0257611c02612df1565b60009182526020909120600160029092020101546001600160a01b031603611def5760068181548110611c3757611c37612df1565b6000918252602090912060016002909202010154600680546001600160a01b039092169183908110611c6b57611c6b612df1565b9060005260206000209060020201600001604051611c899190613141565b60405180910390207f8545e1fcb84b36a1833b8538e905ae06761207e67c265a0264f8a7af6e93689b60068481548110611cc557611cc5612df1565b906000526020600020906002020160010160149054906101000a900460ff16604051611cf5911515815260200190565b60405180910390a360068054611d0d90600190613300565b81548110611d1d57611d1d612df1565b906000526020600020906002020160068281548110611d3e57611d3e612df1565b6000918252602090912060029091020180611d598382613313565b50600191820180549190920180546001600160a01b039092166001600160a01b031983168117825592546001600160a81b0319909216909217600160a01b9182900460ff1615159091021790556006805480611db757611db76133e5565b60008281526020812060001990920191600283020190611dd78282612633565b5060010180546001600160a81b031916905590555050565b80611df981612e1d565b915050611bdb565b6000610fc18383612053565b6000610fc1836001600160a01b038416612053565b606081600001805480602002602001604051908101604052809291908181526020018280548015611e7257602002820191906000526020600020905b815481526020019060010190808311611e5e575b50505050509050919050565b6040805180820190915260008152606060208201526000839003611ead57611ea685836120a2565b9050611f86565b6004831015611edc57600081526040805160608101909152602580825261358c60208301396020820152611f86565b6000843590507f00000000000000000000000000000000000000000000000000000000000000006001600160a01b0316866001600160a01b0316148015611f5b575060408051808201909152601081526f6d756c746953656e642862797465732960801b6020909101526001600160e01b031981166346c07f8560e11b145b15611f7457611f6d878787878761215b565b9150611f84565b611f818787878787612226565b91505b505b95945050505050565b6000610fc183836123a9565b6000610848825490565b6000610fc1836001600160a01b0384166123a9565b60606000604483511015611fe1575050604080516020810190915260008082529092909150565b6000611fee846020015190565b90506307b9e43360e51b6001600160e01b031982160161202d576004840193508380602001905181019061202291906133fb565b946001945092505050565b600060405180602001604052806000815250909250925050915091565b80518060208301fd5b600081815260018301602052604081205461209a57508154600181810184556000848152602080822090930184905584548482528286019093526040902091909155610b80565b506000610b80565b604080518082019091526000815260606020820152600754610100900460ff1615612134576001600160a01b03831660009081526008602052604090205460ff161561210e5760018152604080516060810190915260308082526135e560208301396020820152610b80565b60008152604080516060810190915260348082526135b160208301396020820152610b80565b60008152604080516060810190915260348082526136406020830139602082015292915050565b6040805180820190915260008152606060208201526000612180604460248688612fbe565b6121899161342f565b90503660008660448761219c868361344d565b926121a993929190612fbe565b9150915060005b8181101561221557600080366000806121ca88888861249c565b9398509196509450925090506001600160a01b03851615612209576121f28f86858588611e7e565b8051909a5061220957505050505050505050611f86565b94506121b09350505050565b505060018352505095945050505050565b604080518082019091526000815260606020820152833561224786826125ed565b1561237e57600182526001600160a01b038681166000908152600560205260409020541615612379576001600160a01b038087166000908152600560205260409081902054905163e558cba160e01b815291169063e558cba1906122b7908a908a908a908a908a90600401613460565b6000604051808303816000875af19250505080156122f757506040513d6000823e601f3d908101601f191682016040526122f491908101906130ac565b60015b612370576123036134b3565b806308c379a00361233057506123176134cf565b806123225750612332565b600083526020830152611f84565b505b3d80801561235c576040519150601f19603f3d011682016040523d82523d6000602084013e612361565b606091505b50600083526020830152611f84565b9150611f869050565b611f84565b600082526040805160608101909152602b808252613615602083013960208301525095945050505050565b600081815260018301602052604081205480156124925760006123cd600183613300565b85549091506000906123e190600190613300565b905081811461244657600086600001828154811061240157612401612df1565b906000526020600020015490508087600001848154811061242457612424612df1565b6000918252602080832090910192909255918252600188019052604090208390555b8554869080612457576124576133e5565b600190038181906000526020600020016000905590558560010160008681526020019081526020016000206000905560019350505050610b80565b6000915050610b80565b6000803681808060016124af818361344d565b91506014905089896124c1848b61344d565b90836124cd868d61344d565b6124d7919061344d565b926124e493929190612fbe565b6124ed91613558565b60601c96506124fc818361344d565b915060209050898961250e848b61344d565b908361251a868d61344d565b612524919061344d565b9261253193929190612fbe565b61253a9161342f565b9550612546818361344d565b91506020905060008a8a61255a858c61344d565b9084612566878e61344d565b612570919061344d565b9261257d93929190612fbe565b6125869161342f565b9050612592828461344d565b92508a8a6125a0858c61344d565b90836125ac878e61344d565b6125b6919061344d565b926125c393929190612fbe565b9096509450806125d3848b61344d565b6125dd919061344d565b9350505050939792965093509350565b6001600160a01b0382166000908152600460205260408120610fc1906001600160e01b031984166000610fc1838360009081526001919091016020526040902054151590565b50805461263f90612e36565b6000825580601f1061264f575050565b601f0160209004906000526020600020908101906107cd91905b8082111561267d5760008155600101612669565b5090565b60008083601f84011261269357600080fd5b5081356001600160401b038111156126aa57600080fd5b6020830191508360208260051b85010111156126c557600080fd5b9250929050565b600080602083850312156126df57600080fd5b82356001600160401b038111156126f557600080fd5b61270185828601612681565b90969095509350505050565b6001600160a01b03811681146107cd57600080fd5b803561084b8161270d565b6000806000806060858703121561274357600080fd5b843561274e8161270d565b9350602085013561275e8161270d565b925060408501356001600160401b0381111561277957600080fd5b61278587828801612681565b95989497509550505050565b6020808252825182820181905260009190848201906040850190845b818110156127d25783516001600160a01b0316835292840192918401916001016127ad565b50909695505050505050565b6000602082840312156127f057600080fd5b5035919050565b60005b838110156128125781810151838201526020016127fa565b50506000910152565b600081518084526128338160208601602086016127f7565b601f01601f19169290920160200192915050565b60608152600061285a606083018661281b565b6001600160a01b0394909416602083015250901515604090910152919050565b80151581146107cd57600080fd5b60006020828403121561289a57600080fd5b8135610fc18161287a565b6000602082840312156128b757600080fd5b81356001600160401b038111156128cd57600080fd5b820160808185031215610fc157600080fd5b6020815281511515602082015260006020830151604080840152612906606084018261281b565b949350505050565b6000806040838503121561292157600080fd5b823561292c8161270d565b9150602083013561293c8161270d565b809150509250929050565b60008060006040848603121561295c57600080fd5b83356129678161270d565b925060208401356001600160401b0381111561298257600080fd5b61298e86828701612681565b9497909650939450505050565b602081526000610fc1602083018461281b565b6000602082840312156129c057600080fd5b8135610fc18161270d565b6020808252825182820181905260009190848201906040850190845b818110156127d2578351835292840192918401916001016129e7565b60008083601f840112612a1557600080fd5b5081356001600160401b03811115612a2c57600080fd5b6020830191508360208285010111156126c557600080fd5b80356002811061084b57600080fd5b634e487b7160e01b600052604160045260246000fd5b601f8201601f191681016001600160401b0381118282101715612a8e57612a8e612a53565b6040525050565b60006001600160401b03821115612aae57612aae612a53565b50601f01601f191660200190565b600082601f830112612acd57600080fd5b8135612ad881612a95565b604051612ae58282612a69565b828152856020848701011115612afa57600080fd5b82602086016020830137600092810160200192909252509392505050565b6000806000806000806000806000806000806101608d8f031215612b3b57600080fd5b612b448d612722565b9b5060208d01359a506001600160401b0360408e01351115612b6557600080fd5b612b758e60408f01358f01612a03565b909a509850612b8660608e01612a44565b975060808d0135965060a08d0135955060c08d01359450612ba960e08e01612722565b9350612bb86101008e01612722565b92506001600160401b036101208e01351115612bd357600080fd5b612be48e6101208f01358f01612abc565b9150612bf36101408e01612722565b90509295989b509295989b509295989b565b60008060408385031215612c1857600080fd5b8235612c238161270d565b9150602083013561293c8161287a565b60008060408385031215612c4657600080fd5b82359150602083013561293c8161287a565b60006001600160401b0380841115612c7257612c72612a53565b8360051b6020604051612c8782840182612a69565b8681529350908401908381810188841115612ca157600080fd5b8691505b83821015612cd757813585811115612cbd5760008081fd5b612cc98a828a01612abc565b825250908201908201612ca5565b50505050509392505050565b600080600060608486031215612cf857600080fd5b8335612d038161270d565b92506020840135612d138161270d565b915060408401356001600160401b03811115612d2e57600080fd5b8401601f81018613612d3f57600080fd5b612d4e86823560208401612c58565b9150509250925092565b6000602080830181845280855180835260408601915060408160051b870101925083870160005b82811015612dad57603f19888603018452612d9b85835161281b565b94509285019290850190600101612d7f565b5092979650505050505050565b60208082526019908201527f476f7665726e61626c653a206f6e6c7920676f7665726e6f7200000000000000604082015260600190565b634e487b7160e01b600052603260045260246000fd5b634e487b7160e01b600052601160045260246000fd5b600060018201612e2f57612e2f612e07565b5060010190565b600181811c90821680612e4a57607f821691505b602082108103612e6a57634e487b7160e01b600052602260045260246000fd5b50919050565b6000610fc1368484612c58565b6000808335601e19843603018112612e9457600080fd5b8301803591506001600160401b03821115612eae57600080fd5b6020019150368190038213156126c557600080fd5b8183823760009101908152919050565b60008235605e19833603018112612ee957600080fd5b9190910192915050565b600060608236031215612f0557600080fd5b604051606081016001600160401b038282108183111715612f2857612f28612a53565b816040528435915080821115612f3d57600080fd5b50612f4a36828601612abc565b8252506020830135612f5b8161270d565b60208201526040830135612f6e8161287a565b604082015292915050565b60208082526025908201527f46756e6374696f6e417574686f72697a6174696f6e3a20656d7074792066756e60408201526418d31a5cdd60da1b606082015260800190565b60008085851115612fce57600080fd5b83861115612fdb57600080fd5b5050820193919092039150565b6001600160e01b031981358181169160048510156130105780818660040360031b1b83161692505b505092915050565b60208152600060018060a01b038084511660208401528060208501511660408401525060408301516060830152606083015160808084015261290660a084018261281b565b600082601f83011261306e57600080fd5b815161307981612a95565b6040516130868282612a69565b82815285602084870101111561309b57600080fd5b611f868360208301602088016127f7565b6000602082840312156130be57600080fd5b81516001600160401b03808211156130d557600080fd5b90830190604082860312156130e957600080fd5b60405160408101818110838211171561310457613104612a53565b60405282516131128161287a565b815260208301518281111561312657600080fd5b6131328782860161305d565b60208301525095945050505050565b600080835461314f81612e36565b60018281168015613167576001811461317c576131ab565b60ff19841687528215158302870194506131ab565b8760005260208060002060005b858110156131a25781548a820152908401908201613189565b50505082870194505b50929695505050505050565b6000602082840312156131c957600080fd5b81356001600160e01b031981168114610fc157600080fd5b601f82111561060257600081815260208120601f850160051c810160208610156132085750805b601f850160051c820191505b8181101561322757828155600101613214565b505050505050565b81516001600160401b0381111561324857613248612a53565b61325c816132568454612e36565b846131e1565b602080601f83116001811461329157600084156132795750858301515b600019600386901b1c1916600185901b178555613227565b600085815260208120601f198616915b828110156132c0578886015182559484019460019091019084016132a1565b50858210156132de5787850151600019600388901b60f8161c191681555b5050505050600190811b01905550565b60008251612ee98184602087016127f7565b81810381811115610b8057610b80612e07565b81810361331e575050565b6133288254612e36565b6001600160401b0381111561333f5761333f612a53565b61334d816132568454612e36565b6000601f82116001811461338157600083156133695750848201545b600019600385901b1c1916600184901b1784556114e5565b600085815260209020601f19841690600086815260209020845b838110156133bb578286015482556001958601959091019060200161339b565b50858310156132de5793015460001960f8600387901b161c19169092555050600190811b01905550565b634e487b7160e01b600052603160045260246000fd5b60006020828403121561340d57600080fd5b81516001600160401b0381111561342357600080fd5b6129068482850161305d565b80356020831015610b8057600019602084900360031b1b1692915050565b80820180821115610b8057610b80612e07565b6001600160a01b0386811682528516602082015260806040820181905281018390526000838560a0840137600060a0858401015260a0601f19601f86011683010190508260608301529695505050505050565b600060033d11156134cc5760046000803e5060005160e01c5b90565b600060443d10156134dd5790565b6040516003193d81016004833e81513d6001600160401b03816024840111818411171561350c57505050505090565b82850191508151818111156135245750505050505090565b843d870101602082850101111561353e5750505050505090565b61354d60208286010187612a69565b509095945050505050565b6bffffffffffffffffffffffff1981358181169160148510156130105760149490940360031b84901b169092169291505056fe46756e6374696f6e417574686f72697a6174696f6e3a20696e76616c696420747844617461536f6c765661756c74477561726469616e3a206e617469766520746f6b656e207265636569766572206e6f7420616c6c6f776564536f6c765661756c74477561726469616e3a206e617469766520746f6b656e207472616e7366657220616c6c6f77656446756e6374696f6e417574686f72697a6174696f6e3a206e6f7420616c6c6f7765642066756e6374696f6e536f6c765661756c74477561726469616e3a206e617469766520746f6b656e207472616e73666572206e6f7420616c6c6f776564a264697066735822122068e434aba4c4089db7877162a7cadc3ace0c6e9ff54be3cc2e2c526186950c7164736f6c63430008110033536f6c765661756c74477561726469616e5f47656e6572616c417574686f72697a6174696f6e",
  "devdoc": {
    "kind": "dev",
    "methods": {
      "multicall(bytes[])": {
        "details": "Receives and executes a batch of function calls on this contract."
      }
    },
    "version": 1
  },
  "userdoc": {
    "kind": "user",
    "methods": {},
    "version": 1
  },
  "storageLayout": {
    "storage": [
      {
        "astId": 6728,
        "contract": "src/SolvVaultGuardianForSafe13.sol:SolvVaultGuardianForSafe13",
        "label": "governor",
        "offset": 0,
        "slot": "0",
        "type": "t_address"
      },
      {
        "astId": 6731,
        "contract": "src/SolvVaultGuardianForSafe13.sol:SolvVaultGuardianForSafe13",
        "label": "governanceAllowed",
        "offset": 20,
        "slot": "0",
        "type": "t_bool"
      },
      {
        "astId": 4649,
        "contract": "src/SolvVaultGuardianForSafe13.sol:SolvVaultGuardianForSafe13",
        "label": "caller",
        "offset": 0,
        "slot": "1",
        "type": "t_address"
      },
      {
        "astId": 4780,
        "contract": "src/SolvVaultGuardianForSafe13.sol:SolvVaultGuardianForSafe13",
        "label": "_contracts",
        "offset": 0,
        "slot": "2",
        "type": "t_struct(AddressSet)325_storage"
      },
      {
        "astId": 4785,
        "contract": "src/SolvVaultGuardianForSafe13.sol:SolvVaultGuardianForSafe13",
        "label": "_allowedContractToFunctions",
        "offset": 0,
        "slot": "4",
        "type": "t_mapping(t_address,t_struct(Bytes32Set)204_storage)"
      },
      {
        "astId": 4789,
        "contract": "src/SolvVaultGuardianForSafe13.sol:SolvVaultGuardianForSafe13",
        "label": "_contractACL",
        "offset": 0,
        "slot": "5",
        "type": "t_mapping(t_address,t_address)"
      },
      {
        "astId": 5867,
        "contract": "src/SolvVaultGuardianForSafe13.sol:SolvVaultGuardianForSafe13",
        "label": "authorizations",
        "offset": 0,
        "slot": "6",
        "type": "t_array(t_struct(Authorization)5823_storage)dyn_storage"
      },
      {
        "astId": 5871,
        "contract": "src/SolvVaultGuardianForSafe13.sol:SolvVaultGuardianForSafe13",
        "label": "allowSetGuard",
        "offset": 0,
        "slot": "7",
        "type": "t_bool"
      },
      {
        "astId": 5873,
        "contract": "src/SolvVaultGuardianForSafe13.sol:SolvVaultGuardianForSafe13",
        "label": "allowNativeTokenTransfer",
        "offset": 1,
        "slot": "7",
        "type": "t_bool"
      },
      {
        "astId": 5877,
        "contract": "src/SolvVaultGuardianForSafe13.sol:SolvVaultGuardianForSafe13",
        "label": "nativeTokenReceiver",
        "offset": 0,
        "slot": "8",
        "type": "t_mapping(t_address,t_bool)"
      }
    ],
    "types": {
      "t_address": {
        "encoding": "inplace",
        "label": "address",
        "numberOfBytes": "20"
      },
      "t_array(t_bytes32)dyn_storage": {
        "base": "t_bytes32",
        "encoding": "dynamic_array",
        "label": "bytes32[]",
        "numberOfBytes": "32"
      },
      "t_array(t_struct(Authorization)5823_storage)dyn_storage": {
        "base": "t_struct(Authorization)5823_storage",
        "encoding": "dynamic_array",
        "label": "struct SolvVaultGuardianBase.Authorization[]",
        "numberOfBytes": "32"
      },
      "t_bool": {
        "encoding": "inplace",
        "label": "bool",
        "numberOfBytes": "1"
      },
      "t_bytes32": {
        "encoding": "inplace",
        "label": "bytes32",
        "numberOfBytes": "32"
      },
      "t_mapping(t_address,t_address)": {
        "encoding": "mapping",
        "key": "t_address",
        "label": "mapping(address => address)",
        "numberOfBytes": "32",
        "value": "t_address"
      },
      "t_mapping(t_address,t_bool)": {
        "encoding": "mapping",
        "key": "t_address",
        "label": "mapping(address => bool)",
        "numberOfBytes": "32",
        "value": "t_bool"
      },
      "t_mapping(t_address,t_struct(Bytes32Set)204_storage)": {
        "encoding": "mapping",
        "key": "t_address",
        "label": "mapping(address => struct EnumerableSet.Bytes32Set)",
        "numberOfBytes": "32",
        "value": "t_struct(Bytes32Set)204_storage"
      },
      "t_mapping(t_bytes32,t_uint256)": {
        "encoding": "mapping",
        "key": "t_bytes32",
        "label": "mapping(bytes32 => uint256)",
        "numberOfBytes": "32",
        "value": "t_uint256"
      },
      "t_string_storage": {
        "encoding": "bytes",
        "label": "string",
        "numberOfBytes": "32"
      },
      "t_struct(AddressSet)325_storage": {
        "encoding": "inplace",
        "label": "struct EnumerableSet.AddressSet",
        "members": [
          {
            "astId": 324,
            "contract": "src/SolvVaultGuardianForSafe13.sol:SolvVaultGuardianForSafe13",
            "label": "_inner",
            "offset": 0,
            "slot": "0",
            "type": "t_struct(Set)10_storage"
          }
        ],
        "numberOfBytes": "64"
      },
      "t_struct(Authorization)5823_storage": {
        "encoding": "inplace",
        "label": "struct SolvVaultGuardianBase.Authorization",
        "members": [
          {
            "astId": 5818,
            "contract": "src/SolvVaultGuardianForSafe13.sol:SolvVaultGuardianForSafe13",
            "label": "name",
            "offset": 0,
            "slot": "0",
            "type": "t_string_storage"
          },
          {
            "astId": 5820,
            "contract": "src/SolvVaultGuardianForSafe13.sol:SolvVaultGuardianForSafe13",
            "label": "executor",
            "offset": 0,
            "slot": "1",
            "type": "t_address"
          },
          {
            "astId": 5822,
            "contract": "src/SolvVaultGuardianForSafe13.sol:SolvVaultGuardianForSafe13",
            "label": "enabled",
            "offset": 20,
            "slot": "1",
            "type": "t_bool"
          }
        ],
        "numberOfBytes": "64"
      },
      "t_struct(Bytes32Set)204_storage": {
        "encoding": "inplace",
        "label": "struct EnumerableSet.Bytes32Set",
        "members": [
          {
            "astId": 203,
            "contract": "src/SolvVaultGuardianForSafe13.sol:SolvVaultGuardianForSafe13",
            "label": "_inner",
            "offset": 0,
            "slot": "0",
            "type": "t_struct(Set)10_storage"
          }
        ],
        "numberOfBytes": "64"
      },
      "t_struct(Set)10_storage": {
        "encoding": "inplace",
        "label": "struct EnumerableSet.Set",
        "members": [
          {
            "astId": 5,
            "contract": "src/SolvVaultGuardianForSafe13.sol:SolvVaultGuardianForSafe13",
            "label": "_values",
            "offset": 0,
            "slot": "0",
            "type": "t_array(t_bytes32)dyn_storage"
          },
          {
            "astId": 9,
            "contract": "src/SolvVaultGuardianForSafe13.sol:SolvVaultGuardianForSafe13",
            "label": "_indexes",
            "offset": 0,
            "slot": "1",
            "type": "t_mapping(t_bytes32,t_uint256)"
          }
        ],
        "numberOfBytes": "64"
      },
      "t_uint256": {
        "encoding": "inplace",
        "label": "uint256",
        "numberOfBytes": "32"
      }
    }
  }
}