{
  "address": "0x6166c08EA42bA77e28a211FB26902c8539aC57d2",
  "abi": [
    {
      "inputs": [
        {
          "internalType": "address",
          "name": "safeAccount_",
          "type": "address"
        },
        {
          "internalType": "address",
          "name": "safeMultiSend_",
          "type": "address"
        },
        {
          "internalType": "address",
          "name": "governor_",
          "type": "address"
        },
        {
          "internalType": "bool",
          "name": "allowSetGuard_",
          "type": "bool"
        }
      ],
      "stateMutability": "nonpayable",
      "type": "constructor"
    },
    {
      "anonymous": false,
      "inputs": [
        {
          "indexed": true,
          "internalType": "string",
          "name": "name",
          "type": "string"
        },
        {
          "indexed": true,
          "internalType": "address",
          "name": "executor_",
          "type": "address"
        },
        {
          "indexed": false,
          "internalType": "bool",
          "name": "enabled_",
          "type": "bool"
        }
      ],
      "name": "AddAuthorization",
      "type": "event"
    },
    {
      "anonymous": false,
      "inputs": [
        {
          "indexed": true,
          "internalType": "address",
          "name": "contract_",
          "type": "address"
        },
        {
          "indexed": false,
          "internalType": "string",
          "name": "func_",
          "type": "string"
        },
        {
          "indexed": true,
          "internalType": "address",
          "name": "sender_",
          "type": "address"
        }
      ],
      "name": "AddContractFunc",
      "type": "event"
    },
    {
      "anonymous": false,
      "inputs": [
        {
          "indexed": true,
          "internalType": "address",
          "name": "contract_",
          "type": "address"
        },
        {
          "indexed": true,
          "internalType": "bytes4",
          "name": "funcSig_",
          "type": "bytes4"
        },
        {
          "indexed": true,
          "internalType": "address",
          "name": "sender_",
          "type": "address"
        }
      ],
      "name": "AddContractFuncSig",
      "type": "event"
    },
    {
      "anonymous": false,
      "inputs": [
        {
          "indexed": true,
          "internalType": "address",
          "name": "receiver_",
          "type": "address"
        }
      ],
      "name": "AddNativeTokenReceiver",
      "type": "event"
    },
    {
      "anonymous": false,
      "inputs": [
        {
          "indexed": false,
          "internalType": "bool",
          "name": "isSetGuardAllowed_",
          "type": "bool"
        }
      ],
      "name": "AllowSetGuard",
      "type": "event"
    },
    {
      "anonymous": false,
      "inputs": [
        {
          "indexed": true,
          "internalType": "address",
          "name": "previousGovernor",
          "type": "address"
        },
        {
          "indexed": true,
          "internalType": "address",
          "name": "newGovernor",
          "type": "address"
        }
      ],
      "name": "NewGovernor",
      "type": "event"
    },
    {
      "anonymous": false,
      "inputs": [
        {
          "indexed": true,
          "internalType": "string",
          "name": "name",
          "type": "string"
        },
        {
          "indexed": true,
          "internalType": "address",
          "name": "executor_",
          "type": "address"
        },
        {
          "indexed": false,
          "internalType": "bool",
          "name": "enabled_",
          "type": "bool"
        }
      ],
      "name": "RemoveAuthorization",
      "type": "event"
    },
    {
      "anonymous": false,
      "inputs": [
        {
          "indexed": true,
          "internalType": "address",
          "name": "contract_",
          "type": "address"
        },
        {
          "indexed": false,
          "internalType": "string",
          "name": "func_",
          "type": "string"
        },
        {
          "indexed": true,
          "internalType": "address",
          "name": "sender_",
          "type": "address"
        }
      ],
      "name": "RemoveContractFunc",
      "type": "event"
    },
    {
      "anonymous": false,
      "inputs": [
        {
          "indexed": true,
          "internalType": "address",
          "name": "contract_",
          "type": "address"
        },
        {
          "indexed": true,
          "internalType": "bytes4",
          "name": "funcSig_",
          "type": "bytes4"
        },
        {
          "indexed": true,
          "internalType": "address",
          "name": "sender_",
          "type": "address"
        }
      ],
      "name": "RemoveContractFuncSig",
      "type": "event"
    },
    {
      "anonymous": false,
      "inputs": [
        {
          "indexed": true,
          "internalType": "address",
          "name": "receiver_",
          "type": "address"
        }
      ],
      "name": "RemoveNativeTokenReceiver",
      "type": "event"
    },
    {
      "anonymous": false,
      "inputs": [
        {
          "indexed": true,
          "internalType": "string",
          "name": "name",
          "type": "string"
        },
        {
          "indexed": true,
          "internalType": "address",
          "name": "executor_",
          "type": "address"
        },
        {
          "indexed": false,
          "internalType": "bool",
          "name": "enabled_",
          "type": "bool"
        }
      ],
      "name": "SetAuthorization",
      "type": "event"
    },
    {
      "anonymous": false,
      "inputs": [
        {
          "indexed": true,
          "internalType": "address",
          "name": "contract_",
          "type": "address"
        },
        {
          "indexed": true,
          "internalType": "address",
          "name": "acl_",
          "type": "address"
        },
        {
          "indexed": true,
          "internalType": "address",
          "name": "sender_",
          "type": "address"
        }
      ],
      "name": "SetContractACL",
      "type": "event"
    },
    {
      "anonymous": false,
      "inputs": [
        {
          "indexed": false,
          "internalType": "bool",
          "name": "isNativeTokenTransferAllowed_",
          "type": "bool"
        }
      ],
      "name": "SetNativeTokenTransferAllowed",
      "type": "event"
    },
    {
      "stateMutability": "nonpayable",
      "type": "fallback"
    },
    {
      "inputs": [],
      "name": "SAFE_MULITSEND_FUNC_MULTI_SEND",
      "outputs": [
        {
          "internalType": "string",
          "name": "",
          "type": "string"
        }
      ],
      "stateMutability": "view",
      "type": "function"
    },
    {
      "inputs": [
        {
          "components": [
            {
              "internalType": "string",
              "name": "name",
              "type": "string"
            },
            {
              "internalType": "address",
              "name": "executor",
              "type": "address"
            },
            {
              "internalType": "bool",
              "name": "enabled",
              "type": "bool"
            }
          ],
          "internalType": "struct SolvVaultGuardianBase.Authorization[]",
          "name": "authorizations_",
          "type": "tuple[]"
        }
      ],
      "name": "addAuthorizations",
      "outputs": [],
      "stateMutability": "nonpayable",
      "type": "function"
    },
    {
      "inputs": [
        {
          "internalType": "address",
          "name": "contract_",
          "type": "address"
        },
        {
          "internalType": "address",
          "name": "acl_",
          "type": "address"
        },
        {
          "internalType": "string[]",
          "name": "funcList_",
          "type": "string[]"
        }
      ],
      "name": "addContractFuncs",
      "outputs": [],
      "stateMutability": "nonpayable",
      "type": "function"
    },
    {
      "inputs": [
        {
          "internalType": "address",
          "name": "contract_",
          "type": "address"
        },
        {
          "internalType": "address",
          "name": "acl_",
          "type": "address"
        },
        {
          "internalType": "bytes4[]",
          "name": "funcSigList_",
          "type": "bytes4[]"
        }
      ],
      "name": "addContractFuncsSig",
      "outputs": [],
      "stateMutability": "nonpayable",
      "type": "function"
    },
    {
      "inputs": [
        {
          "internalType": "address[]",
          "name": "receivers_",
          "type": "address[]"
        }
      ],
      "name": "addNativeTokenReceiver",
      "outputs": [],
      "stateMutability": "nonpayable",
      "type": "function"
    },
    {
      "inputs": [],
      "name": "allowNativeTokenTransfer",
      "outputs": [
        {
          "internalType": "bool",
          "name": "",
          "type": "bool"
        }
      ],
      "stateMutability": "view",
      "type": "function"
    },
    {
      "inputs": [],
      "name": "allowSetGuard",
      "outputs": [
        {
          "internalType": "bool",
          "name": "",
          "type": "bool"
        }
      ],
      "stateMutability": "view",
      "type": "function"
    },
    {
      "inputs": [
        {
          "components": [
            {
              "internalType": "address",
              "name": "from",
              "type": "address"
            },
            {
              "internalType": "address",
              "name": "to",
              "type": "address"
            },
            {
              "internalType": "uint256",
              "name": "value",
              "type": "uint256"
            },
            {
              "internalType": "bytes",
              "name": "data",
              "type": "bytes"
            }
          ],
          "internalType": "struct Type.TxData",
          "name": "txData_",
          "type": "tuple"
        }
      ],
      "name": "authorizationCheckTransaction",
      "outputs": [
        {
          "components": [
            {
              "internalType": "bool",
              "name": "success",
              "type": "bool"
            },
            {
              "internalType": "string",
              "name": "message",
              "type": "string"
            }
          ],
          "internalType": "struct Type.CheckResult",
          "name": "",
          "type": "tuple"
        }
      ],
      "stateMutability": "nonpayable",
      "type": "function"
    },
    {
      "inputs": [
        {
          "internalType": "uint256",
          "name": "",
          "type": "uint256"
        }
      ],
      "name": "authorizations",
      "outputs": [
        {
          "internalType": "string",
          "name": "name",
          "type": "string"
        },
        {
          "internalType": "address",
          "name": "executor",
          "type": "address"
        },
        {
          "internalType": "bool",
          "name": "enabled",
          "type": "bool"
        }
      ],
      "stateMutability": "view",
      "type": "function"
    },
    {
      "inputs": [],
      "name": "caller",
      "outputs": [
        {
          "internalType": "address",
          "name": "",
          "type": "address"
        }
      ],
      "stateMutability": "view",
      "type": "function"
    },
    {
      "inputs": [
        {
          "internalType": "bytes32",
          "name": "txHash",
          "type": "bytes32"
        },
        {
          "internalType": "bool",
          "name": "success",
          "type": "bool"
        }
      ],
      "name": "checkAfterExecution",
      "outputs": [],
      "stateMutability": "nonpayable",
      "type": "function"
    },
    {
      "inputs": [
        {
          "internalType": "address",
          "name": "to",
          "type": "address"
        },
        {
          "internalType": "uint256",
          "name": "value",
          "type": "uint256"
        },
        {
          "internalType": "bytes",
          "name": "data",
          "type": "bytes"
        },
        {
          "internalType": "enum Enum.Operation",
          "name": "",
          "type": "uint8"
        },
        {
          "internalType": "uint256",
          "name": "",
          "type": "uint256"
        },
        {
          "internalType": "uint256",
          "name": "",
          "type": "uint256"
        },
        {
          "internalType": "uint256",
          "name": "",
          "type": "uint256"
        },
        {
          "internalType": "address",
          "name": "",
          "type": "address"
        },
        {
          "internalType": "address payable",
          "name": "",
          "type": "address"
        },
        {
          "internalType": "bytes",
          "name": "",
          "type": "bytes"
        },
        {
          "internalType": "address",
          "name": "msgSender",
          "type": "address"
        }
      ],
      "name": "checkTransaction",
      "outputs": [],
      "stateMutability": "nonpayable",
      "type": "function"
    },
    {
      "inputs": [],
      "name": "forbidGovernance",
      "outputs": [],
      "stateMutability": "nonpayable",
      "type": "function"
    },
    {
      "inputs": [
        {
          "internalType": "address",
          "name": "contract_",
          "type": "address"
        }
      ],
      "name": "getACLByContract",
      "outputs": [
        {
          "internalType": "address",
          "name": "",
          "type": "address"
        }
      ],
      "stateMutability": "view",
      "type": "function"
    },
    {
      "inputs": [],
      "name": "getAllContracts",
      "outputs": [
        {
          "internalType": "address[]",
          "name": "",
          "type": "address[]"
        }
      ],
      "stateMutability": "view",
      "type": "function"
    },
    {
      "inputs": [
        {
          "internalType": "address",
          "name": "contract_",
          "type": "address"
        }
      ],
      "name": "getFunctionsByContract",
      "outputs": [
        {
          "internalType": "bytes32[]",
          "name": "",
          "type": "bytes32[]"
        }
      ],
      "stateMutability": "view",
      "type": "function"
    },
    {
      "inputs": [],
      "name": "governanceAllowed",
      "outputs": [
        {
          "internalType": "bool",
          "name": "",
          "type": "bool"
        }
      ],
      "stateMutability": "view",
      "type": "function"
    },
    {
      "inputs": [],
      "name": "governor",
      "outputs": [
        {
          "internalType": "address",
          "name": "",
          "type": "address"
        }
      ],
      "stateMutability": "view",
      "type": "function"
    },
    {
      "inputs": [
        {
          "internalType": "bytes[]",
          "name": "data",
          "type": "bytes[]"
        }
      ],
      "name": "multicall",
      "outputs": [
        {
          "internalType": "bytes[]",
          "name": "results",
          "type": "bytes[]"
        }
      ],
      "stateMutability": "nonpayable",
      "type": "function"
    },
    {
      "inputs": [
        {
          "internalType": "address",
          "name": "",
          "type": "address"
        }
      ],
      "name": "nativeTokenReceiver",
      "outputs": [
        {
          "internalType": "bool",
          "name": "",
          "type": "bool"
        }
      ],
      "stateMutability": "view",
      "type": "function"
    },
    {
      "inputs": [
        {
          "internalType": "address[]",
          "name": "executors_",
          "type": "address[]"
        }
      ],
      "name": "removeAuthorizations",
      "outputs": [],
      "stateMutability": "nonpayable",
      "type": "function"
    },
    {
      "inputs": [
        {
          "internalType": "address",
          "name": "contract_",
          "type": "address"
        },
        {
          "internalType": "string[]",
          "name": "funcList_",
          "type": "string[]"
        }
      ],
      "name": "removeContractFuncs",
      "outputs": [],
      "stateMutability": "nonpayable",
      "type": "function"
    },
    {
      "inputs": [
        {
          "internalType": "address",
          "name": "contract_",
          "type": "address"
        },
        {
          "internalType": "bytes4[]",
          "name": "funcSigList_",
          "type": "bytes4[]"
        }
      ],
      "name": "removeContractFuncsSig",
      "outputs": [],
      "stateMutability": "nonpayable",
      "type": "function"
    },
    {
      "inputs": [
        {
          "internalType": "address[]",
          "name": "receivers_",
          "type": "address[]"
        }
      ],
      "name": "removeNativeTokenReceiver",
      "outputs": [],
      "stateMutability": "nonpayable",
      "type": "function"
    },
    {
      "inputs": [],
      "name": "safeAccount",
      "outputs": [
        {
          "internalType": "address",
          "name": "",
          "type": "address"
        }
      ],
      "stateMutability": "view",
      "type": "function"
    },
    {
      "inputs": [],
      "name": "safeMultiSendContract",
      "outputs": [
        {
          "internalType": "address",
          "name": "",
          "type": "address"
        }
      ],
      "stateMutability": "view",
      "type": "function"
    },
    {
      "inputs": [
        {
          "internalType": "address",
          "name": "executor_",
          "type": "address"
        },
        {
          "internalType": "bool",
          "name": "enabled_",
          "type": "bool"
        }
      ],
      "name": "setAuthorizationEnabled",
      "outputs": [],
      "stateMutability": "nonpayable",
      "type": "function"
    },
    {
      "inputs": [
        {
          "internalType": "address",
          "name": "contract_",
          "type": "address"
        },
        {
          "internalType": "address",
          "name": "acl_",
          "type": "address"
        }
      ],
      "name": "setContractACL",
      "outputs": [],
      "stateMutability": "nonpayable",
      "type": "function"
    },
    {
      "inputs": [
        {
          "internalType": "bool",
          "name": "allowed_",
          "type": "bool"
        }
      ],
      "name": "setGuardAllowed",
      "outputs": [],
      "stateMutability": "nonpayable",
      "type": "function"
    },
    {
      "inputs": [
        {
          "internalType": "bool",
          "name": "allowed_",
          "type": "bool"
        }
      ],
      "name": "setNativeTokenTransferAllowed",
      "outputs": [],
      "stateMutability": "nonpayable",
      "type": "function"
    },
    {
      "inputs": [
        {
          "internalType": "address",
          "name": "newGovernor_",
          "type": "address"
        }
      ],
      "name": "transferGovernance",
      "outputs": [],
      "stateMutability": "nonpayable",
      "type": "function"
    }
  ],
  "transactionHash": "0xb7a9367a999260ecffa2692ef1e120476d0afe5415c37c69abac9c6b0edc10ce",
  "args": [
    "0xa743ccf2556c5660a826a9a1ac35c2eb5ef71114",
    "0xA238CBeb142c10Ef7Ad8442C6D1f9E89e07e7761",
    "0xd1B4ea4A0e176292D667695FC7674F845009b32E",
    true
  ],
  "numDeployments": 1,
  "solcInputHash": "b2f571fd432477a9844aea54a721e01c",
  "bytecode": "0x60c06040526000805460ff60a01b1916600160a01b1790553480156200002457600080fd5b5060405162003a5838038062003a588339810160408190526200004791620002db565b838383838230838181806200005c816200016c565b5050600180546001600160a01b0319166001600160a01b039283161790559283166080525050841660a05262000092816200022c565b6200009e600062000274565b6000604051806060016040528060405180606001604052806026815260200162003a32602691398152306020820152600160409091018190526006805491820181556000528151919250829160029091027ff652222313e28459528d920b65115c16c04f3efc82aaedc97be59f3f377c0d3f01908190620001209082620003e3565b506020820151600190910180546040909301511515600160a01b026001600160a81b03199093166001600160a01b039092169190911791909117905550620004af975050505050505050565b6001600160a01b038116620001dc5760405162461bcd60e51b815260206004820152602c60248201527f476f7665726e61626c653a206e657720676f7665726e6f72206973207468652060448201526b7a65726f206164647265737360a01b606482015260840160405180910390fd5b600080546001600160a01b038381166001600160a01b0319831681178455604051919092169283917f1ba669d4a78521f2ad26e8e0fcbcdd626a63f34d68f326bc232a3abe2a5d042a9190a35050565b6007805460ff19168215159081179091556040519081527f10fdcbd0714fbcaa43406498e01ad037100d45ebfdb08df490918ae081ebeeac906020015b60405180910390a150565b600780548215156101000261ff00199091161790556040517f54d56cd2606f2dd62786c5373c57ac078c573716c56eb17b7bf639b88031a4b5906200026990831515815260200190565b80516001600160a01b0381168114620002d657600080fd5b919050565b60008060008060808587031215620002f257600080fd5b620002fd85620002be565b93506200030d60208601620002be565b92506200031d60408601620002be565b9150606085015180151581146200033357600080fd5b939692955090935050565b634e487b7160e01b600052604160045260246000fd5b600181811c908216806200036957607f821691505b6020821081036200038a57634e487b7160e01b600052602260045260246000fd5b50919050565b601f821115620003de57600081815260208120601f850160051c81016020861015620003b95750805b601f850160051c820191505b81811015620003da57828155600101620003c5565b5050505b505050565b81516001600160401b03811115620003ff57620003ff6200033e565b620004178162000410845462000354565b8462000390565b602080601f8311600181146200044f5760008415620004365750858301515b600019600386901b1c1916600185901b178555620003da565b600085815260208120601f198616915b8281101562000480578886015182559484019460019091019084016200045f565b50858210156200049f5787850151600019600388901b60f8161c191681555b5050505050600190811b01905550565b60805160a051613548620004ea6000396000818161022d015281816111fe01526112ac0152600081816103010152611ee401526135486000f3fe608060405234801561001057600080fd5b50600436106101d05760003560e01c806370c2ded511610103578063a3fb76a51161009c578063d38bfff41161006e578063d38bfff4146104ab578063eefbd8c1146104be578063f486186d146104d1578063fc9c8d39146104d957005b8063a3fb76a514610439578063ac9650d814610465578063ae4f345614610485578063ae76a0841461049857005b806391bebc7a116100d557806391bebc7a146103ee578063932713681461040157806394e9d04414610413578063a2d962101461042657005b806370c2ded51461038557806375f0bb52146103a5578063810845e9146103b85780638e6cb526146103db57005b80633504a49f1161017557806352797b3e1161014757806352797b3e146102fc578063563dbef2146103235780635ce5fb0a14610335578063656abb9c1461034957005b80633504a49f1461029957806336a6c861146102b9578063431a9877146102cc578063476ed36d146102e957005b80631576f83f116101ae5780631576f83f1461022857806318d3ce961461024f578063210d66f81461026457806321a4710d1461028657005b80630c340a24146101d25780630ef62b181461020257806314fda02714610215575b005b6000546101e5906001600160a01b031681565b6040516001600160a01b0390911681526020015b60405180910390f35b6101d0610210366004612623565b6104ec565b6101d0610223366004612684565b610607565b6101e57f000000000000000000000000000000000000000000000000000000000000000081565b6102576106a2565b6040516101f991906126e8565b610277610272366004612735565b6106b3565b6040516101f99392919061279e565b6101d06102943660046127df565b610785565b6102ac6102a73660046127fc565b6107d0565b6040516101f99190612836565b6101d06102c7366004612865565b610850565b6007546102d99060ff1681565b60405190151581526020016101f9565b6101d06102f736600461289e565b610899565b6101e57f000000000000000000000000000000000000000000000000000000000000000081565b6007546102d990610100900460ff1681565b6000546102d990600160a01b900460ff1681565b6103786040518060400160405280601081526020016f6d756c746953656e642862797465732960801b81525081565b6040516101f991906128f2565b610398610393366004612905565b6108eb565b6040516101f99190612922565b6101d06103b3366004612a6d565b61090f565b6102d96103c6366004612905565b60086020526000908152604090205460ff1681565b6101d06103e9366004612b5a565b61092a565b6101d06103fc3660046127df565b610973565b6101d061040f366004612b88565b5050565b6101d061042136600461289e565b6109bb565b6101d0610434366004612c31565b610a05565b6101e5610447366004612905565b6001600160a01b039081166000908152600560205260409020541690565b610478610473366004612623565b610a67565b6040516101f99190612ca6565b6101d0610493366004612623565b610b86565b6101d06104a6366004612623565b610c17565b6101d06104b9366004612905565b610d24565b6101d06104cc366004612623565b610d6c565b6101d0610df7565b6001546101e5906001600160a01b031681565b600054600160a01b900460ff16801561050f57506000546001600160a01b031633145b6105345760405162461bcd60e51b815260040161052b90612d08565b60405180910390fd5b60005b818110156106025760006008600085858581811061055757610557612d3f565b905060200201602081019061056c9190612905565b6001600160a01b031681526020810191909152604001600020805460ff19169115159190911790558282828181106105a6576105a6612d3f565b90506020020160208101906105bb9190612905565b6001600160a01b03167f2a2c3e24d0cdd675094967281857d46047a05f68f62ae1f0a3428ce933fc780b60405160405180910390a2806105fa81612d6b565b915050610537565b505050565b600054600160a01b900460ff16801561062a57506000546001600160a01b031633145b6106465760405162461bcd60e51b815260040161052b90612d08565b61068384838380806020026020016040519081016040528093929190818152602001838360200280828437600092019190915250610e4592505050565b6001600160a01b0383161561069c5761069c8484610f5a565b50505050565b60606106ae6002610fb4565b905090565b600681815481106106c357600080fd5b90600052602060002090600202016000915090508060000180546106e690612d84565b80601f016020809104026020016040519081016040528092919081815260200182805461071290612d84565b801561075f5780601f106107345761010080835404028352916020019161075f565b820191906000526020600020905b81548152906001019060200180831161074257829003601f168201915b505050600190930154919250506001600160a01b0381169060ff600160a01b9091041683565b600054600160a01b900460ff1680156107a857506000546001600160a01b031633145b6107c45760405162461bcd60e51b815260040161052b90612d08565b6107cd81610fc8565b50565b6040805180820190915260008152606060208201526001546001600160a01b0316331461083f5760405162461bcd60e51b815260206004820152601b60248201527f42617365417574686f72697a6174696f6e3a206f6e6c7953656c660000000000604482015260640161052b565b61084882611010565b90505b919050565b600054600160a01b900460ff16801561087357506000546001600160a01b031633145b61088f5760405162461bcd60e51b815260040161052b90612d08565b61040f8282610f5a565b600054600160a01b900460ff1680156108bc57506000546001600160a01b031633145b6108d85760405162461bcd60e51b815260040161052b90612d08565b610602836108e68385612dbe565b61105c565b6001600160a01b038116600090815260046020526040902060609061084890610fb4565b61091c8c8c8c8c856111fc565b505050505050505050505050565b600054600160a01b900460ff16801561094d57506000546001600160a01b031633145b6109695760405162461bcd60e51b815260040161052b90612d08565b61040f82826114ec565b600054600160a01b900460ff16801561099657506000546001600160a01b031633145b6109b25760405162461bcd60e51b815260040161052b90612d08565b6107cd81611664565b600054600160a01b900460ff1680156109de57506000546001600160a01b031633145b6109fa5760405162461bcd60e51b815260040161052b90612d08565b6106028383836116ad565b600054600160a01b900460ff168015610a2857506000546001600160a01b031633145b610a445760405162461bcd60e51b815260040161052b90612d08565b610a4e838261180a565b6001600160a01b03821615610602576106028383610f5a565b6060816001600160401b03811115610a8157610a816129aa565b604051908082528060200260200182016040528015610ab457816020015b6060815260200190600190039081610a9f5790505b50905060005b82811015610b7e5760008030868685818110610ad857610ad8612d3f565b9050602002810190610aea9190612dcb565b604051610af8929190612e11565b600060405180830381855af49150503d8060008114610b33576040519150601f19603f3d011682016040523d82523d6000602084013e610b38565b606091505b509150915081610b4b57610b4b81611950565b80848481518110610b5e57610b5e612d3f565b602002602001018190525050508080610b7690612d6b565b915050610aba565b505b92915050565b600054600160a01b900460ff168015610ba957506000546001600160a01b031633145b610bc55760405162461bcd60e51b815260040161052b90612d08565b60005b8181101561060257610c05838383818110610be557610be5612d3f565b9050602002810190610bf79190612e21565b610c0090612e41565b611989565b80610c0f81612d6b565b915050610bc8565b600054600160a01b900460ff168015610c3a57506000546001600160a01b031633145b610c565760405162461bcd60e51b815260040161052b90612d08565b60005b8181101561060257600160086000858585818110610c7957610c79612d3f565b9050602002016020810190610c8e9190612905565b6001600160a01b031681526020810191909152604001600020805460ff1916911515919091179055828282818110610cc857610cc8612d3f565b9050602002016020810190610cdd9190612905565b6001600160a01b03167ff6f0706d380b04dfc2bed645c220ddb58275c7513c62f60a81fa5b43c4e0e84860405160405180910390a280610d1c81612d6b565b915050610c59565b600054600160a01b900460ff168015610d4757506000546001600160a01b031633145b610d635760405162461bcd60e51b815260040161052b90612d08565b6107cd81611b1d565b600054600160a01b900460ff168015610d8f57506000546001600160a01b031633145b610dab5760405162461bcd60e51b815260040161052b90612d08565b60005b8181101561060257610de5838383818110610dcb57610dcb612d3f565b9050602002016020810190610de09190612905565b611bd8565b80610def81612d6b565b915050610dae565b600054600160a01b900460ff168015610e1a57506000546001600160a01b031633145b610e365760405162461bcd60e51b815260040161052b90612d08565b6000805460ff60a01b19169055565b6000815111610e665760405162461bcd60e51b815260040161052b90612ec7565b60005b8151811015610f4e576000828281518110610e8657610e86612d3f565b60200260200101516001600160e01b0319169050610ed18160046000876001600160a01b03166001600160a01b03168152602001908152602001600020611e0190919063ffffffff16565b15610f3b57336001600160a01b0316838381518110610ef257610ef2612d3f565b60200260200101516001600160e01b031916856001600160a01b03167f246b022c673a2751245f84dced77afcce61bcd820ff1235276e8c1c242a78f7460405160405180910390a45b5080610f4681612d6b565b915050610e69565b50610602600283611e0d565b6001600160a01b0382811660008181526005602052604080822080546001600160a01b031916948616948517905551339392917f09a226cf85d5c3f9bf762d15f165b63b555418743ec5a33495c22ef0f9240bc591a45050565b60606000610fc183611e22565b9392505050565b6007805460ff19168215159081179091556040519081527f10fdcbd0714fbcaa43406498e01ad037100d45ebfdb08df490918ae081ebeeac906020015b60405180910390a150565b6040805180820190915260008152606060208201526108486110356020840184612905565b6110456040850160208601612905565b6110526060860186612dcb565b8660400135611e7e565b600081511161107d5760405162461bcd60e51b815260040161052b90612ec7565b60005b81518110156111a257600082828151811061109d5761109d612d3f565b6020908102919091018101518051908201206001600160a01b0386166000908152600490925260409091209091506001600160e01b03198216906110e1908261206b565b1561118d57336001600160a01b0316856001600160a01b03167ffed6cf2efef20378e90c3b71c30db7338ca98f5e50e3bf7c8467d8d062512ac286868151811061112d5761112d612d3f565b602002602001015160405161114291906128f2565b60405180910390a360405133906001600160e01b03198416906001600160a01b038816907fedfbd30ca95f1e16901a73aea7daddbbbcd26a1ff975301743208f1c3badfeb190600090a45b5050808061119a90612d6b565b915050611080565b506001600160a01b03821660009081526004602052604090206111c490612077565b60000361040f576001600160a01b038216600090815260056020526040902080546001600160a01b0319169055610602600283612081565b7f00000000000000000000000000000000000000000000000000000000000000006001600160a01b0316856001600160a01b031614801561123b575081155b6114e55760006040518060800160405280836001600160a01b03168152602001876001600160a01b0316815260200186815260200185858080601f016020809104026020016040519081016040528093929190818152602001838380828437600092019190915250505091525090507f00000000000000000000000000000000000000000000000000000000000000006001600160a01b039081169087161480156112e7575060048310155b8015611319575063e19a9dd960e01b611304600460008688612f0c565b61130d91612f36565b6001600160e01b031916145b156113825760075460ff1661137c5760405162461bcd60e51b8152602060048201526024808201527f536f6c765661756c74477561726469616e3a2073657447756172642064697361604482015263189b195960e21b606482015260840161052b565b506114e5565b60005b60065481101561148957600681815481106113a2576113a2612d3f565b906000526020600020906002020160010160149054906101000a900460ff1615611477576000600682815481106113db576113db612d3f565b6000918252602090912060016002909202010154604051633504a49f60e01b81526001600160a01b0390911690633504a49f9061141c908690600401612f66565b6000604051808303816000875af115801561143b573d6000803e3d6000fd5b505050506040513d6000823e601f3d908101601f191682016040526114639190810190612ff0565b805190915015611475575050506114e5565b505b8061148181612d6b565b915050611385565b5060405162461bcd60e51b815260206004820152602a60248201527f536f6c765661756c74477561726469616e3a20636865636b5472616e736163746044820152691a5bdb8819985a5b195960b21b606482015260840161052b565b5050505050565b60005b60065481101561060257826001600160a01b03166006828154811061151657611516612d3f565b60009182526020909120600160029092020101546001600160a01b03160361165257816006828154811061154c5761154c612d3f565b906000526020600020906002020160010160146101000a81548160ff0219169083151502179055506006818154811061158757611587612d3f565b6000918252602090912060016002909202010154600680546001600160a01b0390921691839081106115bb576115bb612d3f565b90600052602060002090600202016000016040516115d99190613085565b60405180910390207f83df6a35f72bb7cb0d722caf641fa408896a3b4b2137088e6a09f2ee6785bf756006848154811061161557611615612d3f565b906000526020600020906002020160010160149054906101000a900460ff16604051611645911515815260200190565b60405180910390a3505050565b8061165c81612d6b565b9150506114ef565b600780548215156101000261ff00199091161790556040517f54d56cd2606f2dd62786c5373c57ac078c573716c56eb17b7bf639b88031a4b59061100590831515815260200190565b806116ca5760405162461bcd60e51b815260040161052b90612ec7565b60005b818110156117b05760008383838181106116e9576116e9612d3f565b90506020020160208101906116fe91906130fb565b6001600160a01b03861660009081526004602052604090206001600160e01b031991909116915061172f908261206b565b1561179d573384848481811061174757611747612d3f565b905060200201602081019061175c91906130fb565b6001600160e01b031916866001600160a01b03167fedfbd30ca95f1e16901a73aea7daddbbbcd26a1ff975301743208f1c3badfeb160405160405180910390a45b50806117a881612d6b565b9150506116cd565b506001600160a01b03831660009081526004602052604090206117d290612077565b600003610602576001600160a01b038316600090815260056020526040902080546001600160a01b031916905561069c600284612081565b600081511161182b5760405162461bcd60e51b815260040161052b90612ec7565b60005b8151811015610f4e57600082828151811061184b5761184b612d3f565b6020908102919091018101518051908201206001600160a01b0386166000908152600490925260409091209091506001600160e01b031982169061188f9082611e01565b1561193b57336001600160a01b0316856001600160a01b03167f5c55717c3268b2c739eb5087e22a9bcf39b0d4f5a8ab89b4fff9cfe5711e4b348686815181106118db576118db612d3f565b60200260200101516040516118f091906128f2565b60405180910390a360405133906001600160e01b03198416906001600160a01b038816907f246b022c673a2751245f84dced77afcce61bcd820ff1235276e8c1c242a78f7490600090a45b5050808061194890612d6b565b91505061182e565b60008061195c83612096565b915091508015611980578160405162461bcd60e51b815260040161052b91906128f2565b61060283612126565b60005b600654811015611a425781602001516001600160a01b0316600682815481106119b7576119b7612d3f565b60009182526020909120600160029092020101546001600160a01b031603611a305760405162461bcd60e51b815260206004820152602660248201527f536f6c765661756c74477561726469616e3a20677561726420616c726561647960448201526508195e1a5cdd60d21b606482015260840161052b565b80611a3a81612d6b565b91505061198c565b5060068054600181018255600091909152815182916002027ff652222313e28459528d920b65115c16c04f3efc82aaedc97be59f3f377c0d3f01908190611a899082613173565b50602082810151600190920180546040948501511515600160a01b026001600160a81b03199091166001600160a01b039485161717905583015183519251911691611ad391613232565b60405180910390207fea4ceb90956a1f35756e735519308ece2e413a4b1b21bf5db4ee7c199d547b948360400151604051611b12911515815260200190565b60405180910390a350565b6001600160a01b038116611b885760405162461bcd60e51b815260206004820152602c60248201527f476f7665726e61626c653a206e657720676f7665726e6f72206973207468652060448201526b7a65726f206164647265737360a01b606482015260840161052b565b600080546001600160a01b038381166001600160a01b0319831681178455604051919092169283917f1ba669d4a78521f2ad26e8e0fcbcdd626a63f34d68f326bc232a3abe2a5d042a9190a35050565b60005b60065481101561040f57816001600160a01b031660068281548110611c0257611c02612d3f565b60009182526020909120600160029092020101546001600160a01b031603611def5760068181548110611c3757611c37612d3f565b6000918252602090912060016002909202010154600680546001600160a01b039092169183908110611c6b57611c6b612d3f565b9060005260206000209060020201600001604051611c899190613085565b60405180910390207f8545e1fcb84b36a1833b8538e905ae06761207e67c265a0264f8a7af6e93689b60068481548110611cc557611cc5612d3f565b906000526020600020906002020160010160149054906101000a900460ff16604051611cf5911515815260200190565b60405180910390a360068054611d0d90600190613244565b81548110611d1d57611d1d612d3f565b906000526020600020906002020160068281548110611d3e57611d3e612d3f565b6000918252602090912060029091020180611d598382613257565b50600191820180549190920180546001600160a01b039092166001600160a01b031983168117825592546001600160a81b0319909216909217600160a01b9182900460ff1615159091021790556006805480611db757611db7613329565b60008281526020812060001990920191600283020190611dd7828261258a565b5060010180546001600160a81b031916905590555050565b80611df981612d6b565b915050611bdb565b6000610fc1838361212f565b6000610fc1836001600160a01b03841661212f565b606081600001805480602002602001604051908101604052809291908181526020018280548015611e7257602002820191906000526020600020905b815481526020019060010190808311611e5e575b50505050509050919050565b6040805180820190915260008152606060208201526000839003611ead57611ea6858361217e565b9050612062565b6004831015611edc57600081526040805160608101909152602580825261342b60208301396020820152612062565b6000843590507f00000000000000000000000000000000000000000000000000000000000000006001600160a01b0316866001600160a01b0316148015611f5b575060408051808201909152601081526f6d756c746953656e642862797465732960801b6020909101526001600160e01b031981166346c07f8560e11b145b15611f7457611f6d8787878787612237565b9150612060565b611f7e8682612302565b1561203e57600182526001600160a01b038681166000908152600560205260409020541615612038576001600160a01b038087166000908152600560205260409081902054905163e558cba160e01b815291169063e558cba190611fee908a908a908a908a908a9060040161333f565b6000604051808303816000875af115801561200d573d6000803e3d6000fd5b505050506040513d6000823e601f3d908101601f191682016040526120359190810190612ff0565b91505b50612062565b600082526040805160608101909152602b8082526134b4602083013960208301525b505b95945050505050565b6000610fc1838361232e565b6000610848825490565b6000610fc1836001600160a01b03841661232e565b606060006044835110156120bd575050604080516020810190915260008082529092909150565b60006120ca846020015190565b90506307b9e43360e51b6001600160e01b031982160161210957600484019350838060200190518101906120fe9190613392565b946001945092505050565b600060405180602001604052806000815250909250925050915091565b80518060208301fd5b600081815260018301602052604081205461217657508154600181810184556000848152602080822090930184905584548482528286019093526040902091909155610b80565b506000610b80565b604080518082019091526000815260606020820152600754610100900460ff1615612210576001600160a01b03831660009081526008602052604090205460ff16156121ea57600181526040805160608101909152603080825261348460208301396020820152610b80565b600081526040805160608101909152603480825261345060208301396020820152610b80565b60008152604080516060810190915260348082526134df6020830139602082015292915050565b604080518082019091526000815260606020820152600061225c604460248688612f0c565b612265916133c6565b90503660008660448761227886836133e4565b9261228593929190612f0c565b9150915060005b818110156122f157600080366000806122a6888888612421565b9398509196509450925090506001600160a01b038516156122e5576122ce8f86858588611e7e565b8051909a506122e557505050505050505050612062565b945061228c9350505050565b505060018352505095945050505050565b6001600160a01b0382166000908152600460205260408120610fc1906001600160e01b03198416612572565b60008181526001830160205260408120548015612417576000612352600183613244565b855490915060009061236690600190613244565b90508181146123cb57600086600001828154811061238657612386612d3f565b90600052602060002001549050808760000184815481106123a9576123a9612d3f565b6000918252602080832090910192909255918252600188019052604090208390555b85548690806123dc576123dc613329565b600190038181906000526020600020016000905590558560010160008681526020019081526020016000206000905560019350505050610b80565b6000915050610b80565b60008036818080600161243481836133e4565b9150601490508989612446848b6133e4565b9083612452868d6133e4565b61245c91906133e4565b9261246993929190612f0c565b612472916133f7565b60601c965061248181836133e4565b9150602090508989612493848b6133e4565b908361249f868d6133e4565b6124a991906133e4565b926124b693929190612f0c565b6124bf916133c6565b95506124cb81836133e4565b91506020905060008a8a6124df858c6133e4565b90846124eb878e6133e4565b6124f591906133e4565b9261250293929190612f0c565b61250b916133c6565b905061251782846133e4565b92508a8a612525858c6133e4565b9083612531878e6133e4565b61253b91906133e4565b9261254893929190612f0c565b909650945080612558848b6133e4565b61256291906133e4565b9350505050939792965093509350565b60008181526001830160205260408120541515610fc1565b50805461259690612d84565b6000825580601f106125a6575050565b601f0160209004906000526020600020908101906107cd91905b808211156125d457600081556001016125c0565b5090565b60008083601f8401126125ea57600080fd5b5081356001600160401b0381111561260157600080fd5b6020830191508360208260051b850101111561261c57600080fd5b9250929050565b6000806020838503121561263657600080fd5b82356001600160401b0381111561264c57600080fd5b612658858286016125d8565b90969095509350505050565b6001600160a01b03811681146107cd57600080fd5b803561084b81612664565b6000806000806060858703121561269a57600080fd5b84356126a581612664565b935060208501356126b581612664565b925060408501356001600160401b038111156126d057600080fd5b6126dc878288016125d8565b95989497509550505050565b6020808252825182820181905260009190848201906040850190845b818110156127295783516001600160a01b031683529284019291840191600101612704565b50909695505050505050565b60006020828403121561274757600080fd5b5035919050565b60005b83811015612769578181015183820152602001612751565b50506000910152565b6000815180845261278a81602086016020860161274e565b601f01601f19169290920160200192915050565b6060815260006127b16060830186612772565b6001600160a01b0394909416602083015250901515604090910152919050565b80151581146107cd57600080fd5b6000602082840312156127f157600080fd5b8135610fc1816127d1565b60006020828403121561280e57600080fd5b81356001600160401b0381111561282457600080fd5b820160808185031215610fc157600080fd5b602081528151151560208201526000602083015160408084015261285d6060840182612772565b949350505050565b6000806040838503121561287857600080fd5b823561288381612664565b9150602083013561289381612664565b809150509250929050565b6000806000604084860312156128b357600080fd5b83356128be81612664565b925060208401356001600160401b038111156128d957600080fd5b6128e5868287016125d8565b9497909650939450505050565b602081526000610fc16020830184612772565b60006020828403121561291757600080fd5b8135610fc181612664565b6020808252825182820181905260009190848201906040850190845b818110156127295783518352928401929184019160010161293e565b60008083601f84011261296c57600080fd5b5081356001600160401b0381111561298357600080fd5b60208301915083602082850101111561261c57600080fd5b80356002811061084b57600080fd5b634e487b7160e01b600052604160045260246000fd5b604051601f8201601f191681016001600160401b03811182821017156129e8576129e86129aa565b604052919050565b60006001600160401b03821115612a0957612a096129aa565b50601f01601f191660200190565b600082601f830112612a2857600080fd5b8135612a3b612a36826129f0565b6129c0565b818152846020838601011115612a5057600080fd5b816020850160208301376000918101602001919091529392505050565b6000806000806000806000806000806000806101608d8f031215612a9057600080fd5b612a998d612679565b9b5060208d01359a506001600160401b0360408e01351115612aba57600080fd5b612aca8e60408f01358f0161295a565b909a509850612adb60608e0161299b565b975060808d0135965060a08d0135955060c08d01359450612afe60e08e01612679565b9350612b0d6101008e01612679565b92506001600160401b036101208e01351115612b2857600080fd5b612b398e6101208f01358f01612a17565b9150612b486101408e01612679565b90509295989b509295989b509295989b565b60008060408385031215612b6d57600080fd5b8235612b7881612664565b91506020830135612893816127d1565b60008060408385031215612b9b57600080fd5b823591506020830135612893816127d1565b60006001600160401b0380841115612bc757612bc76129aa565b8360051b6020612bd88183016129c0565b86815293509084019080840187831115612bf157600080fd5b855b83811015612c2557803585811115612c0b5760008081fd5b612c178a828a01612a17565b835250908201908201612bf3565b50505050509392505050565b600080600060608486031215612c4657600080fd5b8335612c5181612664565b92506020840135612c6181612664565b915060408401356001600160401b03811115612c7c57600080fd5b8401601f81018613612c8d57600080fd5b612c9c86823560208401612bad565b9150509250925092565b6000602080830181845280855180835260408601915060408160051b870101925083870160005b82811015612cfb57603f19888603018452612ce9858351612772565b94509285019290850190600101612ccd565b5092979650505050505050565b60208082526019908201527f476f7665726e61626c653a206f6e6c7920676f7665726e6f7200000000000000604082015260600190565b634e487b7160e01b600052603260045260246000fd5b634e487b7160e01b600052601160045260246000fd5b600060018201612d7d57612d7d612d55565b5060010190565b600181811c90821680612d9857607f821691505b602082108103612db857634e487b7160e01b600052602260045260246000fd5b50919050565b6000610fc1368484612bad565b6000808335601e19843603018112612de257600080fd5b8301803591506001600160401b03821115612dfc57600080fd5b60200191503681900382131561261c57600080fd5b8183823760009101908152919050565b60008235605e19833603018112612e3757600080fd5b9190910192915050565b600060608236031215612e5357600080fd5b604051606081016001600160401b038282108183111715612e7657612e766129aa565b816040528435915080821115612e8b57600080fd5b50612e9836828601612a17565b8252506020830135612ea981612664565b60208201526040830135612ebc816127d1565b604082015292915050565b60208082526025908201527f46756e6374696f6e417574686f72697a6174696f6e3a20656d7074792066756e60408201526418d31a5cdd60da1b606082015260800190565b60008085851115612f1c57600080fd5b83861115612f2957600080fd5b5050820193919092039150565b6001600160e01b03198135818116916004851015612f5e5780818660040360031b1b83161692505b505092915050565b60208152600060018060a01b038084511660208401528060208501511660408401525060408301516060830152606083015160808084015261285d60a0840182612772565b600082601f830112612fbc57600080fd5b8151612fca612a36826129f0565b818152846020838601011115612fdf57600080fd5b61285d82602083016020870161274e565b60006020828403121561300257600080fd5b81516001600160401b038082111561301957600080fd5b908301906040828603121561302d57600080fd5b604051604081018181108382111715613048576130486129aa565b6040528251613056816127d1565b815260208301518281111561306a57600080fd5b61307687828601612fab565b60208301525095945050505050565b600080835461309381612d84565b600182811680156130ab57600181146130c0576130ef565b60ff19841687528215158302870194506130ef565b8760005260208060002060005b858110156130e65781548a8201529084019082016130cd565b50505082870194505b50929695505050505050565b60006020828403121561310d57600080fd5b81356001600160e01b031981168114610fc157600080fd5b601f82111561060257600081815260208120601f850160051c8101602086101561314c5750805b601f850160051c820191505b8181101561316b57828155600101613158565b505050505050565b81516001600160401b0381111561318c5761318c6129aa565b6131a08161319a8454612d84565b84613125565b602080601f8311600181146131d557600084156131bd5750858301515b600019600386901b1c1916600185901b17855561316b565b600085815260208120601f198616915b82811015613204578886015182559484019460019091019084016131e5565b50858210156132225787850151600019600388901b60f8161c191681555b5050505050600190811b01905550565b60008251612e3781846020870161274e565b81810381811115610b8057610b80612d55565b818103613262575050565b61326c8254612d84565b6001600160401b03811115613283576132836129aa565b6132918161319a8454612d84565b6000601f8211600181146132c557600083156132ad5750848201545b600019600385901b1c1916600184901b1784556114e5565b600085815260209020601f19841690600086815260209020845b838110156132ff57828601548255600195860195909101906020016132df565b50858310156132225793015460001960f8600387901b161c19169092555050600190811b01905550565b634e487b7160e01b600052603160045260246000fd5b6001600160a01b0386811682528516602082015260806040820181905281018390526000838560a0840137600060a0858401015260a0601f19601f86011683010190508260608301529695505050505050565b6000602082840312156133a457600080fd5b81516001600160401b038111156133ba57600080fd5b61285d84828501612fab565b80356020831015610b8057600019602084900360031b1b1692915050565b80820180821115610b8057610b80612d55565b6bffffffffffffffffffffffff198135818116916014851015612f5e5760149490940360031b84901b169092169291505056fe46756e6374696f6e417574686f72697a6174696f6e3a20696e76616c696420747844617461536f6c765661756c74477561726469616e3a206e617469766520746f6b656e207265636569766572206e6f7420616c6c6f776564536f6c765661756c74477561726469616e3a206e617469766520746f6b656e207472616e7366657220616c6c6f77656446756e6374696f6e417574686f72697a6174696f6e3a206e6f7420616c6c6f7765642066756e6374696f6e536f6c765661756c74477561726469616e3a206e617469766520746f6b656e207472616e73666572206e6f7420616c6c6f776564a264697066735822122088215a7585e852a477bd484a2376ea6b39912b92d73efee4d375e1c67e86796064736f6c63430008110033536f6c765661756c74477561726469616e5f47656e6572616c417574686f72697a6174696f6e",
  "devdoc": {
    "kind": "dev",
    "methods": {
      "multicall(bytes[])": {
        "details": "Receives and executes a batch of function calls on this contract."
      }
    },
    "version": 1
  },
  "userdoc": {
    "kind": "user",
    "methods": {},
    "version": 1
  },
  "storageLayout": {
    "storage": [
      {
        "astId": 5712,
        "contract": "src/SolvVaultGuardianForSafe13.sol:SolvVaultGuardianForSafe13",
        "label": "governor",
        "offset": 0,
        "slot": "0",
        "type": "t_address"
      },
      {
        "astId": 5715,
        "contract": "src/SolvVaultGuardianForSafe13.sol:SolvVaultGuardianForSafe13",
        "label": "governanceAllowed",
        "offset": 20,
        "slot": "0",
        "type": "t_bool"
      },
      {
        "astId": 3957,
        "contract": "src/SolvVaultGuardianForSafe13.sol:SolvVaultGuardianForSafe13",
        "label": "caller",
        "offset": 0,
        "slot": "1",
        "type": "t_address"
      },
      {
        "astId": 4088,
        "contract": "src/SolvVaultGuardianForSafe13.sol:SolvVaultGuardianForSafe13",
        "label": "_contracts",
        "offset": 0,
        "slot": "2",
        "type": "t_struct(AddressSet)325_storage"
      },
      {
        "astId": 4093,
        "contract": "src/SolvVaultGuardianForSafe13.sol:SolvVaultGuardianForSafe13",
        "label": "_allowedContractToFunctions",
        "offset": 0,
        "slot": "4",
        "type": "t_mapping(t_address,t_struct(Bytes32Set)204_storage)"
      },
      {
        "astId": 4097,
        "contract": "src/SolvVaultGuardianForSafe13.sol:SolvVaultGuardianForSafe13",
        "label": "_contractACL",
        "offset": 0,
        "slot": "5",
        "type": "t_mapping(t_address,t_address)"
      },
      {
        "astId": 5103,
        "contract": "src/SolvVaultGuardianForSafe13.sol:SolvVaultGuardianForSafe13",
        "label": "authorizations",
        "offset": 0,
        "slot": "6",
        "type": "t_array(t_struct(Authorization)5059_storage)dyn_storage"
      },
      {
        "astId": 5107,
        "contract": "src/SolvVaultGuardianForSafe13.sol:SolvVaultGuardianForSafe13",
        "label": "allowSetGuard",
        "offset": 0,
        "slot": "7",
        "type": "t_bool"
      },
      {
        "astId": 5109,
        "contract": "src/SolvVaultGuardianForSafe13.sol:SolvVaultGuardianForSafe13",
        "label": "allowNativeTokenTransfer",
        "offset": 1,
        "slot": "7",
        "type": "t_bool"
      },
      {
        "astId": 5113,
        "contract": "src/SolvVaultGuardianForSafe13.sol:SolvVaultGuardianForSafe13",
        "label": "nativeTokenReceiver",
        "offset": 0,
        "slot": "8",
        "type": "t_mapping(t_address,t_bool)"
      }
    ],
    "types": {
      "t_address": {
        "encoding": "inplace",
        "label": "address",
        "numberOfBytes": "20"
      },
      "t_array(t_bytes32)dyn_storage": {
        "base": "t_bytes32",
        "encoding": "dynamic_array",
        "label": "bytes32[]",
        "numberOfBytes": "32"
      },
      "t_array(t_struct(Authorization)5059_storage)dyn_storage": {
        "base": "t_struct(Authorization)5059_storage",
        "encoding": "dynamic_array",
        "label": "struct SolvVaultGuardianBase.Authorization[]",
        "numberOfBytes": "32"
      },
      "t_bool": {
        "encoding": "inplace",
        "label": "bool",
        "numberOfBytes": "1"
      },
      "t_bytes32": {
        "encoding": "inplace",
        "label": "bytes32",
        "numberOfBytes": "32"
      },
      "t_mapping(t_address,t_address)": {
        "encoding": "mapping",
        "key": "t_address",
        "label": "mapping(address => address)",
        "numberOfBytes": "32",
        "value": "t_address"
      },
      "t_mapping(t_address,t_bool)": {
        "encoding": "mapping",
        "key": "t_address",
        "label": "mapping(address => bool)",
        "numberOfBytes": "32",
        "value": "t_bool"
      },
      "t_mapping(t_address,t_struct(Bytes32Set)204_storage)": {
        "encoding": "mapping",
        "key": "t_address",
        "label": "mapping(address => struct EnumerableSet.Bytes32Set)",
        "numberOfBytes": "32",
        "value": "t_struct(Bytes32Set)204_storage"
      },
      "t_mapping(t_bytes32,t_uint256)": {
        "encoding": "mapping",
        "key": "t_bytes32",
        "label": "mapping(bytes32 => uint256)",
        "numberOfBytes": "32",
        "value": "t_uint256"
      },
      "t_string_storage": {
        "encoding": "bytes",
        "label": "string",
        "numberOfBytes": "32"
      },
      "t_struct(AddressSet)325_storage": {
        "encoding": "inplace",
        "label": "struct EnumerableSet.AddressSet",
        "members": [
          {
            "astId": 324,
            "contract": "src/SolvVaultGuardianForSafe13.sol:SolvVaultGuardianForSafe13",
            "label": "_inner",
            "offset": 0,
            "slot": "0",
            "type": "t_struct(Set)10_storage"
          }
        ],
        "numberOfBytes": "64"
      },
      "t_struct(Authorization)5059_storage": {
        "encoding": "inplace",
        "label": "struct SolvVaultGuardianBase.Authorization",
        "members": [
          {
            "astId": 5054,
            "contract": "src/SolvVaultGuardianForSafe13.sol:SolvVaultGuardianForSafe13",
            "label": "name",
            "offset": 0,
            "slot": "0",
            "type": "t_string_storage"
          },
          {
            "astId": 5056,
            "contract": "src/SolvVaultGuardianForSafe13.sol:SolvVaultGuardianForSafe13",
            "label": "executor",
            "offset": 0,
            "slot": "1",
            "type": "t_address"
          },
          {
            "astId": 5058,
            "contract": "src/SolvVaultGuardianForSafe13.sol:SolvVaultGuardianForSafe13",
            "label": "enabled",
            "offset": 20,
            "slot": "1",
            "type": "t_bool"
          }
        ],
        "numberOfBytes": "64"
      },
      "t_struct(Bytes32Set)204_storage": {
        "encoding": "inplace",
        "label": "struct EnumerableSet.Bytes32Set",
        "members": [
          {
            "astId": 203,
            "contract": "src/SolvVaultGuardianForSafe13.sol:SolvVaultGuardianForSafe13",
            "label": "_inner",
            "offset": 0,
            "slot": "0",
            "type": "t_struct(Set)10_storage"
          }
        ],
        "numberOfBytes": "64"
      },
      "t_struct(Set)10_storage": {
        "encoding": "inplace",
        "label": "struct EnumerableSet.Set",
        "members": [
          {
            "astId": 5,
            "contract": "src/SolvVaultGuardianForSafe13.sol:SolvVaultGuardianForSafe13",
            "label": "_values",
            "offset": 0,
            "slot": "0",
            "type": "t_array(t_bytes32)dyn_storage"
          },
          {
            "astId": 9,
            "contract": "src/SolvVaultGuardianForSafe13.sol:SolvVaultGuardianForSafe13",
            "label": "_indexes",
            "offset": 0,
            "slot": "1",
            "type": "t_mapping(t_bytes32,t_uint256)"
          }
        ],
        "numberOfBytes": "64"
      },
      "t_uint256": {
        "encoding": "inplace",
        "label": "uint256",
        "numberOfBytes": "32"
      }
    }
  }
}