{
  "address": "0x51865f13aB8563efD18c8Ff851Cf7C610bB0526d",
  "abi": [
    {
      "inputs": [
        {
          "internalType": "address",
          "name": "safeMultiSendContract_",
          "type": "address"
        },
        {
          "internalType": "address",
          "name": "caller_",
          "type": "address"
        },
        {
          "internalType": "address",
          "name": "openEndFundShare_",
          "type": "address"
        },
        {
          "internalType": "address",
          "name": "openEndFundRedemption_",
          "type": "address"
        },
        {
          "internalType": "bytes32[]",
          "name": "repayablePoolIds_",
          "type": "bytes32[]"
        }
      ],
      "stateMutability": "nonpayable",
      "type": "constructor"
    },
    {
      "anonymous": false,
      "inputs": [
        {
          "indexed": true,
          "internalType": "address",
          "name": "contract_",
          "type": "address"
        },
        {
          "indexed": false,
          "internalType": "string",
          "name": "func_",
          "type": "string"
        },
        {
          "indexed": true,
          "internalType": "address",
          "name": "sender_",
          "type": "address"
        }
      ],
      "name": "AddContractFunc",
      "type": "event"
    },
    {
      "anonymous": false,
      "inputs": [
        {
          "indexed": true,
          "internalType": "address",
          "name": "contract_",
          "type": "address"
        },
        {
          "indexed": true,
          "internalType": "bytes4",
          "name": "funcSig_",
          "type": "bytes4"
        },
        {
          "indexed": true,
          "internalType": "address",
          "name": "sender_",
          "type": "address"
        }
      ],
      "name": "AddContractFuncSig",
      "type": "event"
    },
    {
      "anonymous": false,
      "inputs": [
        {
          "indexed": true,
          "internalType": "address",
          "name": "previousGovernor",
          "type": "address"
        },
        {
          "indexed": true,
          "internalType": "address",
          "name": "newGovernor",
          "type": "address"
        }
      ],
      "name": "NewGovernor",
      "type": "event"
    },
    {
      "anonymous": false,
      "inputs": [
        {
          "indexed": true,
          "internalType": "address",
          "name": "contract_",
          "type": "address"
        },
        {
          "indexed": false,
          "internalType": "string",
          "name": "func_",
          "type": "string"
        },
        {
          "indexed": true,
          "internalType": "address",
          "name": "sender_",
          "type": "address"
        }
      ],
      "name": "RemoveContractFunc",
      "type": "event"
    },
    {
      "anonymous": false,
      "inputs": [
        {
          "indexed": true,
          "internalType": "address",
          "name": "contract_",
          "type": "address"
        },
        {
          "indexed": true,
          "internalType": "bytes4",
          "name": "funcSig_",
          "type": "bytes4"
        },
        {
          "indexed": true,
          "internalType": "address",
          "name": "sender_",
          "type": "address"
        }
      ],
      "name": "RemoveContractFuncSig",
      "type": "event"
    },
    {
      "anonymous": false,
      "inputs": [
        {
          "indexed": true,
          "internalType": "address",
          "name": "contract_",
          "type": "address"
        },
        {
          "indexed": true,
          "internalType": "address",
          "name": "acl_",
          "type": "address"
        },
        {
          "indexed": true,
          "internalType": "address",
          "name": "sender_",
          "type": "address"
        }
      ],
      "name": "SetContractACL",
      "type": "event"
    },
    {
      "stateMutability": "nonpayable",
      "type": "fallback"
    },
    {
      "inputs": [],
      "name": "NAME",
      "outputs": [
        {
          "internalType": "string",
          "name": "",
          "type": "string"
        }
      ],
      "stateMutability": "view",
      "type": "function"
    },
    {
      "inputs": [],
      "name": "REDEMPTION_FUNC_REPAY",
      "outputs": [
        {
          "internalType": "string",
          "name": "",
          "type": "string"
        }
      ],
      "stateMutability": "view",
      "type": "function"
    },
    {
      "inputs": [],
      "name": "SAFE_MULITSEND_FUNC_MULTI_SEND",
      "outputs": [
        {
          "internalType": "string",
          "name": "",
          "type": "string"
        }
      ],
      "stateMutability": "view",
      "type": "function"
    },
    {
      "inputs": [],
      "name": "SHARE_FUNC_REPAY",
      "outputs": [
        {
          "internalType": "string",
          "name": "",
          "type": "string"
        }
      ],
      "stateMutability": "view",
      "type": "function"
    },
    {
      "inputs": [],
      "name": "VERSION",
      "outputs": [
        {
          "internalType": "int256",
          "name": "",
          "type": "int256"
        }
      ],
      "stateMutability": "view",
      "type": "function"
    },
    {
      "inputs": [
        {
          "internalType": "address",
          "name": "contract_",
          "type": "address"
        },
        {
          "internalType": "address",
          "name": "acl_",
          "type": "address"
        },
        {
          "internalType": "string[]",
          "name": "funcList_",
          "type": "string[]"
        }
      ],
      "name": "addContractFuncs",
      "outputs": [],
      "stateMutability": "nonpayable",
      "type": "function"
    },
    {
      "inputs": [
        {
          "internalType": "address",
          "name": "contract_",
          "type": "address"
        },
        {
          "internalType": "address",
          "name": "acl_",
          "type": "address"
        },
        {
          "internalType": "bytes4[]",
          "name": "funcSigList_",
          "type": "bytes4[]"
        }
      ],
      "name": "addContractFuncsSig",
      "outputs": [],
      "stateMutability": "nonpayable",
      "type": "function"
    },
    {
      "inputs": [
        {
          "components": [
            {
              "internalType": "address",
              "name": "from",
              "type": "address"
            },
            {
              "internalType": "address",
              "name": "to",
              "type": "address"
            },
            {
              "internalType": "uint256",
              "name": "value",
              "type": "uint256"
            },
            {
              "internalType": "bytes",
              "name": "data",
              "type": "bytes"
            }
          ],
          "internalType": "struct Type.TxData",
          "name": "txData_",
          "type": "tuple"
        }
      ],
      "name": "authorizationCheckTransaction",
      "outputs": [
        {
          "components": [
            {
              "internalType": "bool",
              "name": "success",
              "type": "bool"
            },
            {
              "internalType": "string",
              "name": "message",
              "type": "string"
            }
          ],
          "internalType": "struct Type.CheckResult",
          "name": "",
          "type": "tuple"
        }
      ],
      "stateMutability": "nonpayable",
      "type": "function"
    },
    {
      "inputs": [],
      "name": "caller",
      "outputs": [
        {
          "internalType": "address",
          "name": "",
          "type": "address"
        }
      ],
      "stateMutability": "view",
      "type": "function"
    },
    {
      "inputs": [],
      "name": "forbidGovernance",
      "outputs": [],
      "stateMutability": "nonpayable",
      "type": "function"
    },
    {
      "inputs": [
        {
          "internalType": "address",
          "name": "contract_",
          "type": "address"
        }
      ],
      "name": "getACLByContract",
      "outputs": [
        {
          "internalType": "address",
          "name": "",
          "type": "address"
        }
      ],
      "stateMutability": "view",
      "type": "function"
    },
    {
      "inputs": [],
      "name": "getAllContracts",
      "outputs": [
        {
          "internalType": "address[]",
          "name": "",
          "type": "address[]"
        }
      ],
      "stateMutability": "view",
      "type": "function"
    },
    {
      "inputs": [
        {
          "internalType": "address",
          "name": "contract_",
          "type": "address"
        }
      ],
      "name": "getFunctionsByContract",
      "outputs": [
        {
          "internalType": "bytes32[]",
          "name": "",
          "type": "bytes32[]"
        }
      ],
      "stateMutability": "view",
      "type": "function"
    },
    {
      "inputs": [],
      "name": "governanceAllowed",
      "outputs": [
        {
          "internalType": "bool",
          "name": "",
          "type": "bool"
        }
      ],
      "stateMutability": "view",
      "type": "function"
    },
    {
      "inputs": [],
      "name": "governor",
      "outputs": [
        {
          "internalType": "address",
          "name": "",
          "type": "address"
        }
      ],
      "stateMutability": "view",
      "type": "function"
    },
    {
      "inputs": [
        {
          "internalType": "bytes[]",
          "name": "data",
          "type": "bytes[]"
        }
      ],
      "name": "multicall",
      "outputs": [
        {
          "internalType": "bytes[]",
          "name": "results",
          "type": "bytes[]"
        }
      ],
      "stateMutability": "nonpayable",
      "type": "function"
    },
    {
      "inputs": [
        {
          "internalType": "address",
          "name": "contract_",
          "type": "address"
        },
        {
          "internalType": "string[]",
          "name": "funcList_",
          "type": "string[]"
        }
      ],
      "name": "removeContractFuncs",
      "outputs": [],
      "stateMutability": "nonpayable",
      "type": "function"
    },
    {
      "inputs": [
        {
          "internalType": "address",
          "name": "contract_",
          "type": "address"
        },
        {
          "internalType": "bytes4[]",
          "name": "funcSigList_",
          "type": "bytes4[]"
        }
      ],
      "name": "removeContractFuncsSig",
      "outputs": [],
      "stateMutability": "nonpayable",
      "type": "function"
    },
    {
      "inputs": [],
      "name": "safeMultiSendContract",
      "outputs": [
        {
          "internalType": "address",
          "name": "",
          "type": "address"
        }
      ],
      "stateMutability": "view",
      "type": "function"
    },
    {
      "inputs": [
        {
          "internalType": "address",
          "name": "contract_",
          "type": "address"
        },
        {
          "internalType": "address",
          "name": "acl_",
          "type": "address"
        }
      ],
      "name": "setContractACL",
      "outputs": [],
      "stateMutability": "nonpayable",
      "type": "function"
    },
    {
      "inputs": [
        {
          "internalType": "address",
          "name": "newGovernor_",
          "type": "address"
        }
      ],
      "name": "transferGovernance",
      "outputs": [],
      "stateMutability": "nonpayable",
      "type": "function"
    }
  ],
  "transactionHash": "0xa4698ea6f06404559c75f497812794dd3afc2360e4e5a79e6e32a9462cb0ab36",
  "args": [
    "0xA238CBeb142c10Ef7Ad8442C6D1f9E89e07e7761",
    "0x074898bF8b0ce74B09960bb4E82EF0bFD4BaB875",
    "0x22799DAA45209338B7f938edf251bdfD1E6dCB32",
    "0xe9bD233b2b34934Fb83955EC15c2ac48F31A0E8c",
    [
      "0x375ebcd78e8b3571c0f6482bdaae602672e73e145e92ca40f9b8f1537236bf2e"
    ]
  ],
  "numDeployments": 1,
  "solcInputHash": "9367d18e505085b360ef217b279172f1",
  "bytecode": "0x60a06040526000805460ff60a01b1916600160a01b1790553480156200002457600080fd5b50604051620043e1380380620043e1833981016040819052620000479162000600565b8484856001600160a01b0316630c340a246040518163ffffffff1660e01b8152600401602060405180830381865afa15801562000088573d6000803e3d6000fd5b505050506040513d601f19601f82011682018060405250810190620000ae919062000717565b818180620000bc816200026a565b5050600180546001600160a01b0319166001600160a01b039283161781559316608052505060408051828152808201909152600091602082015b6060815260200190600190039081620000f65790505090506040518060400160405280601e81526020017f72657061792875696e743235362c616464726573732c75696e74323536290000815250816000815181106200015a576200015a62000735565b60209081029190910101526200017184826200032b565b604080516001808252818301909252600091816020015b6060815260200190600190039081620001885790505090506040518060400160405280601e81526020017f72657061792875696e743235362c616464726573732c75696e7432353629000081525081600081518110620001ec57620001ec62000735565b60209081029190910101526200020384826200032b565b60008685856040516200021690620005bf565b62000224939291906200074b565b604051809103906000f08015801562000241573d6000803e3d6000fd5b509050620002508682620004ea565b6200025c8582620004ea565b505050505050505062000827565b6001600160a01b038116620002db5760405162461bcd60e51b815260206004820152602c60248201527f476f7665726e61626c653a206e657720676f7665726e6f72206973207468652060448201526b7a65726f206164647265737360a01b60648201526084015b60405180910390fd5b600080546001600160a01b038381166001600160a01b0319831681178455604051919092169283917f1ba669d4a78521f2ad26e8e0fcbcdd626a63f34d68f326bc232a3abe2a5d042a9190a35050565b60008151116200038c5760405162461bcd60e51b815260206004820152602560248201527f46756e6374696f6e417574686f72697a6174696f6e3a20656d7074792066756e60448201526418d31a5cdd60da1b6064820152608401620002d2565b60005b8151811015620004c9576000828281518110620003b057620003b062000735565b6020908102919091018101518051908201206001600160a01b038616600090815260048352604090209092506001600160e01b0319831691620003ff91908390620007ec62000544821b17901c565b15620004b157336001600160a01b0316856001600160a01b03167f5c55717c3268b2c739eb5087e22a9bcf39b0d4f5a8ab89b4fff9cfe5711e4b348686815181106200044f576200044f62000735565b6020026020010151604051620004669190620007af565b60405180910390a360405133906001600160e01b03198416906001600160a01b038816907f246b022c673a2751245f84dced77afcce61bcd820ff1235276e8c1c242a78f7490600090a45b50508080620004c090620007ff565b9150506200038f565b50620004e58260026200055b60201b620007ff1790919060201c565b505050565b6001600160a01b0382811660008181526005602052604080822080546001600160a01b031916948616948517905551339392917f09a226cf85d5c3f9bf762d15f165b63b555418743ec5a33495c22ef0f9240bc591a45050565b60006200055283836200056d565b90505b92915050565b600062000552836001600160a01b0384165b6000818152600183016020526040812054620005b65750815460018181018455600084815260208082209093018490558454848252828601909352604090209190915562000555565b50600062000555565b611c4a806200279783390190565b80516001600160a01b0381168114620005e557600080fd5b919050565b634e487b7160e01b600052604160045260246000fd5b600080600080600060a086880312156200061957600080fd5b6200062486620005cd565b9450602062000635818801620005cd565b94506200064560408801620005cd565b93506200065560608801620005cd565b60808801519093506001600160401b03808211156200067357600080fd5b818901915089601f8301126200068857600080fd5b8151818111156200069d576200069d620005ea565b8060051b604051601f19603f83011681018181108582111715620006c557620006c5620005ea565b60405291825284820192508381018501918c831115620006e457600080fd5b938501935b828510156200070457845184529385019392850192620006e9565b8096505050505050509295509295909350565b6000602082840312156200072a57600080fd5b6200055282620005cd565b634e487b7160e01b600052603260045260246000fd5b6001600160a01b0384811682528316602080830191909152606060408301819052835190830181905260009184810191608085019190845b81811015620007a15784518452938201939282019260010162000783565b509198975050505050505050565b600060208083528351808285015260005b81811015620007de57858101830151858201604001528201620007c0565b506000604082860101526040601f19601f8301168501019250505092915050565b6000600182016200082057634e487b7160e01b600052601160045260246000fd5b5060010190565b608051611f4d6200084a6000396000818161021c01526110240152611f4d6000f3fe608060405234801561001057600080fd5b506004361061012e5760003560e01c8063656abb9c116100b2578063a3fb76a511610079578063a3fb76a5146102df578063ac9650d81461030b578063d38bfff41461032b578063f486186d1461033e578063fc9c8d3914610346578063ffa1ad741461035957005b8063656abb9c1461026257806370c2ded51461029157806394e9d044146102b1578063a2d96210146102c4578063a3f4df7e146102d757005b806336a6c861116100f657806336a6c861146101f1578063476ed36d1461020457806352797b3e14610217578063553e33a2146101885780635ce5fb0a1461023e57005b80630c340a241461013057806314fda0271461016057806318d3ce96146101735780632afbe955146101885780633504a49f146101d1575b005b600054610143906001600160a01b031681565b6040516001600160a01b0390911681526020015b60405180910390f35b61012e61016e366004611660565b61036f565b61017b610413565b60405161015791906116c0565b6101c46040518060400160405280601e81526020017f72657061792875696e743235362c616464726573732c75696e7432353629000081525081565b604051610157919061175d565b6101e46101df366004611770565b610424565b60405161015791906117aa565b61012e6101ff3660046117d9565b6104a4565b61012e61021236600461180c565b6104f1565b6101437f000000000000000000000000000000000000000000000000000000000000000081565b60005461025290600160a01b900460ff1681565b6040519015158152602001610157565b6101c46040518060400160405280601081526020016f6d756c746953656e642862797465732960801b81525081565b6102a461029f36600461185e565b610548565b6040516101579190611879565b61012e6102bf36600461180c565b61056c565b61012e6102d23660046119e3565b6105b6565b6101c4610618565b6101436102ed36600461185e565b6001600160a01b039081166000908152600560205260409020541690565b61031e610319366004611a54565b610634565b6040516101579190611a95565b61012e61033936600461185e565b610753565b61012e61079e565b600154610143906001600160a01b031681565b610361600181565b604051908152602001610157565b600054600160a01b900460ff16801561039257506000546001600160a01b031633145b6103b75760405162461bcd60e51b81526004016103ae90611af7565b60405180910390fd5b6103f48483838080602002602001604051908101604052809392919081815260200183836020028082843760009201919091525061081492505050565b6001600160a01b0383161561040d5761040d8484610929565b50505050565b606061041f6002610983565b905090565b6040805180820190915260008152606060208201526001546001600160a01b031633146104935760405162461bcd60e51b815260206004820152601b60248201527f42617365417574686f72697a6174696f6e3a206f6e6c7953656c66000000000060448201526064016103ae565b61049c82610990565b90505b919050565b600054600160a01b900460ff1680156104c757506000546001600160a01b031633145b6104e35760405162461bcd60e51b81526004016103ae90611af7565b6104ed8282610929565b5050565b600054600160a01b900460ff16801561051457506000546001600160a01b031633145b6105305760405162461bcd60e51b81526004016103ae90611af7565b6105438361053e8385611b2e565b6109dc565b505050565b6001600160a01b038116600090815260046020526040902060609061049c90610983565b600054600160a01b900460ff16801561058f57506000546001600160a01b031633145b6105ab5760405162461bcd60e51b81526004016103ae90611af7565b610543838383610b7c565b600054600160a01b900460ff1680156105d957506000546001600160a01b031633145b6105f55760405162461bcd60e51b81526004016103ae90611af7565b6105ff8382610cd9565b6001600160a01b03821615610543576105438383610929565b6040518060600160405280602b8152602001611eed602b913981565b6060816001600160401b0381111561064e5761064e6118b1565b60405190808252806020026020018201604052801561068157816020015b606081526020019060019003908161066c5790505b50905060005b8281101561074b57600080308686858181106106a5576106a5611b3b565b90506020028101906106b79190611b51565b6040516106c5929190611b97565b600060405180830381855af49150503d8060008114610700576040519150601f19603f3d011682016040523d82523d6000602084013e610705565b606091505b5091509150816107185761071881610e1f565b8084848151811061072b5761072b611b3b565b60200260200101819052505050808061074390611bbd565b915050610687565b505b92915050565b600054600160a01b900460ff16801561077657506000546001600160a01b031633145b6107925760405162461bcd60e51b81526004016103ae90611af7565b61079b81610e58565b50565b600054600160a01b900460ff1680156107c157506000546001600160a01b031633145b6107dd5760405162461bcd60e51b81526004016103ae90611af7565b6000805460ff60a01b19169055565b60006107f88383610f13565b9392505050565b60006107f8836001600160a01b038416610f13565b60008151116108355760405162461bcd60e51b81526004016103ae90611bd6565b60005b815181101561091d57600082828151811061085557610855611b3b565b60200260200101516001600160e01b03191690506108a08160046000876001600160a01b03166001600160a01b031681526020019081526020016000206107ec90919063ffffffff16565b1561090a57336001600160a01b03168383815181106108c1576108c1611b3b565b60200260200101516001600160e01b031916856001600160a01b03167f246b022c673a2751245f84dced77afcce61bcd820ff1235276e8c1c242a78f7460405160405180910390a45b508061091581611bbd565b915050610838565b506105436002836107ff565b6001600160a01b0382811660008181526005602052604080822080546001600160a01b031916948616948517905551339392917f09a226cf85d5c3f9bf762d15f165b63b555418743ec5a33495c22ef0f9240bc591a45050565b606060006107f883610f62565b60408051808201909152600081526060602082015261049c6109b5602084018461185e565b6109c5604085016020860161185e565b6109d26060860186611b51565b8660400135610fbe565b60008151116109fd5760405162461bcd60e51b81526004016103ae90611bd6565b60005b8151811015610b22576000828281518110610a1d57610a1d611b3b565b6020908102919091018101518051908201206001600160a01b0386166000908152600490925260409091209091506001600160e01b0319821690610a6190826111ab565b15610b0d57336001600160a01b0316856001600160a01b03167ffed6cf2efef20378e90c3b71c30db7338ca98f5e50e3bf7c8467d8d062512ac2868681518110610aad57610aad611b3b565b6020026020010151604051610ac2919061175d565b60405180910390a360405133906001600160e01b03198416906001600160a01b038816907fedfbd30ca95f1e16901a73aea7daddbbbcd26a1ff975301743208f1c3badfeb190600090a45b50508080610b1a90611bbd565b915050610a00565b506001600160a01b0382166000908152600460205260409020610b44906111b7565b6000036104ed576001600160a01b038216600090815260056020526040902080546001600160a01b03191690556105436002836111c1565b80610b995760405162461bcd60e51b81526004016103ae90611bd6565b60005b81811015610c7f576000838383818110610bb857610bb8611b3b565b9050602002016020810190610bcd9190611c1b565b6001600160a01b03861660009081526004602052604090206001600160e01b0319919091169150610bfe90826111ab565b15610c6c5733848484818110610c1657610c16611b3b565b9050602002016020810190610c2b9190611c1b565b6001600160e01b031916866001600160a01b03167fedfbd30ca95f1e16901a73aea7daddbbbcd26a1ff975301743208f1c3badfeb160405160405180910390a45b5080610c7781611bbd565b915050610b9c565b506001600160a01b0383166000908152600460205260409020610ca1906111b7565b600003610543576001600160a01b038316600090815260056020526040902080546001600160a01b031916905561040d6002846111c1565b6000815111610cfa5760405162461bcd60e51b81526004016103ae90611bd6565b60005b815181101561091d576000828281518110610d1a57610d1a611b3b565b6020908102919091018101518051908201206001600160a01b0386166000908152600490925260409091209091506001600160e01b0319821690610d5e90826107ec565b15610e0a57336001600160a01b0316856001600160a01b03167f5c55717c3268b2c739eb5087e22a9bcf39b0d4f5a8ab89b4fff9cfe5711e4b34868681518110610daa57610daa611b3b565b6020026020010151604051610dbf919061175d565b60405180910390a360405133906001600160e01b03198416906001600160a01b038816907f246b022c673a2751245f84dced77afcce61bcd820ff1235276e8c1c242a78f7490600090a45b50508080610e1790611bbd565b915050610cfd565b600080610e2b836111d6565b915091508015610e4f578160405162461bcd60e51b81526004016103ae919061175d565b61054383611266565b6001600160a01b038116610ec35760405162461bcd60e51b815260206004820152602c60248201527f476f7665726e61626c653a206e657720676f7665726e6f72206973207468652060448201526b7a65726f206164647265737360a01b60648201526084016103ae565b600080546001600160a01b038381166001600160a01b0319831681178455604051919092169283917f1ba669d4a78521f2ad26e8e0fcbcdd626a63f34d68f326bc232a3abe2a5d042a9190a35050565b6000818152600183016020526040812054610f5a5750815460018181018455600084815260208082209093018490558454848252828601909352604090209190915561074d565b50600061074d565b606081600001805480602002602001604051908101604052809291908181526020018280548015610fb257602002820191906000526020600020905b815481526020019060010190808311610f9e575b50505050509050919050565b6040805180820190915260008152606060208201526000839003610fed57610fe6858361126f565b90506111a2565b600483101561101c576000815260408051606081019091526025808252611e9d602083013960208201526111a2565b6000843590507f00000000000000000000000000000000000000000000000000000000000000006001600160a01b0316866001600160a01b031614801561109b575060408051808201909152601081526f6d756c746953656e642862797465732960801b6020909101526001600160e01b031981166346c07f8560e11b145b156110b4576110ad87878787876112ab565b91506111a0565b6110be8682611376565b1561117e57600182526001600160a01b038681166000908152600560205260409020541615611178576001600160a01b038087166000908152600560205260409081902054905163e558cba160e01b815291169063e558cba19061112e908a908a908a908a908a90600401611c45565b6000604051808303816000875af115801561114d573d6000803e3d6000fd5b505050506040513d6000823e601f3d908101601f191682016040526111759190810190611cdd565b91505b506111a2565b600082526040805160608101909152602b808252611ec2602083013960208301525b505b95945050505050565b60006107f883836113a2565b600061049c825490565b60006107f8836001600160a01b0384166113a2565b606060006044835110156111fd575050604080516020810190915260008082529092909150565b600061120a846020015190565b90506307b9e43360e51b6001600160e01b0319821601611249576004840193508380602001905181019061123e9190611d77565b946001945092505050565b600060405180602001604052806000815250909250925050915091565b80518060208301fd5b6040805180820190915260008152606060208201526000815260408051606081019091526038808252611e656020830139602082015292915050565b60408051808201909152600081526060602082015260006112d0604460248688611dab565b6112d991611dd5565b9050366000866044876112ec8683611df3565b926112f993929190611dab565b9150915060005b81811015611365576000803660008061131a888888611495565b9398509196509450925090506001600160a01b03851615611359576113428f86858588610fbe565b8051909a50611359575050505050505050506111a2565b94506113009350505050565b505060018352505095945050505050565b6001600160a01b03821660009081526004602052604081206107f8906001600160e01b031984166115e6565b6000818152600183016020526040812054801561148b5760006113c6600183611e06565b85549091506000906113da90600190611e06565b905081811461143f5760008660000182815481106113fa576113fa611b3b565b906000526020600020015490508087600001848154811061141d5761141d611b3b565b6000918252602080832090910192909255918252600188019052604090208390555b855486908061145057611450611e19565b60019003818190600052602060002001600090559055856001016000868152602001908152602001600020600090556001935050505061074d565b600091505061074d565b6000803681808060016114a88183611df3565b91506014905089896114ba848b611df3565b90836114c6868d611df3565b6114d09190611df3565b926114dd93929190611dab565b6114e691611e2f565b60601c96506114f58183611df3565b9150602090508989611507848b611df3565b9083611513868d611df3565b61151d9190611df3565b9261152a93929190611dab565b61153391611dd5565b955061153f8183611df3565b91506020905060008a8a611553858c611df3565b908461155f878e611df3565b6115699190611df3565b9261157693929190611dab565b61157f91611dd5565b905061158b8284611df3565b92508a8a611599858c611df3565b90836115a5878e611df3565b6115af9190611df3565b926115bc93929190611dab565b9096509450806115cc848b611df3565b6115d69190611df3565b9350505050939792965093509350565b600081815260018301602052604081205415156107f8565b80356001600160a01b038116811461049f57600080fd5b60008083601f84011261162757600080fd5b5081356001600160401b0381111561163e57600080fd5b6020830191508360208260051b850101111561165957600080fd5b9250929050565b6000806000806060858703121561167657600080fd5b61167f856115fe565b935061168d602086016115fe565b925060408501356001600160401b038111156116a857600080fd5b6116b487828801611615565b95989497509550505050565b6020808252825182820181905260009190848201906040850190845b818110156117015783516001600160a01b0316835292840192918401916001016116dc565b50909695505050505050565b60005b83811015611728578181015183820152602001611710565b50506000910152565b6000815180845261174981602086016020860161170d565b601f01601f19169290920160200192915050565b6020815260006107f86020830184611731565b60006020828403121561178257600080fd5b81356001600160401b0381111561179857600080fd5b8201608081850312156107f857600080fd5b60208152815115156020820152600060208301516040808401526117d16060840182611731565b949350505050565b600080604083850312156117ec57600080fd5b6117f5836115fe565b9150611803602084016115fe565b90509250929050565b60008060006040848603121561182157600080fd5b61182a846115fe565b925060208401356001600160401b0381111561184557600080fd5b61185186828701611615565b9497909650939450505050565b60006020828403121561187057600080fd5b6107f8826115fe565b6020808252825182820181905260009190848201906040850190845b8181101561170157835183529284019291840191600101611895565b634e487b7160e01b600052604160045260246000fd5b604051601f8201601f191681016001600160401b03811182821017156118ef576118ef6118b1565b604052919050565b60006001600160401b03821115611910576119106118b1565b50601f01601f191660200190565b60006001600160401b0380841115611938576119386118b1565b8360051b60206119498183016118c7565b8681529350908401908084018783111561196257600080fd5b855b838110156119d75780358581111561197c5760008081fd5b8701601f81018a1361198e5760008081fd5b80356119a161199c826118f7565b6118c7565b8181528b868385010111156119b65760008081fd5b81868401878301376000918101860191909152835250908201908201611964565b50505050509392505050565b6000806000606084860312156119f857600080fd5b611a01846115fe565b9250611a0f602085016115fe565b915060408401356001600160401b03811115611a2a57600080fd5b8401601f81018613611a3b57600080fd5b611a4a8682356020840161191e565b9150509250925092565b60008060208385031215611a6757600080fd5b82356001600160401b03811115611a7d57600080fd5b611a8985828601611615565b90969095509350505050565b6000602080830181845280855180835260408601915060408160051b870101925083870160005b82811015611aea57603f19888603018452611ad8858351611731565b94509285019290850190600101611abc565b5092979650505050505050565b60208082526019908201527f476f7665726e61626c653a206f6e6c7920676f7665726e6f7200000000000000604082015260600190565b60006107f836848461191e565b634e487b7160e01b600052603260045260246000fd5b6000808335601e19843603018112611b6857600080fd5b8301803591506001600160401b03821115611b8257600080fd5b60200191503681900382131561165957600080fd5b8183823760009101908152919050565b634e487b7160e01b600052601160045260246000fd5b600060018201611bcf57611bcf611ba7565b5060010190565b60208082526025908201527f46756e6374696f6e417574686f72697a6174696f6e3a20656d7074792066756e60408201526418d31a5cdd60da1b606082015260800190565b600060208284031215611c2d57600080fd5b81356001600160e01b0319811681146107f857600080fd5b6001600160a01b0386811682528516602082015260806040820181905281018390526000838560a0840137600060a0858401015260a0601f19601f86011683010190508260608301529695505050505050565b600082601f830112611ca957600080fd5b8151611cb761199c826118f7565b818152846020838601011115611ccc57600080fd5b6117d182602083016020870161170d565b600060208284031215611cef57600080fd5b81516001600160401b0380821115611d0657600080fd5b9083019060408286031215611d1a57600080fd5b604051604081018181108382111715611d3557611d356118b1565b60405282518015158114611d4857600080fd5b8152602083015182811115611d5c57600080fd5b611d6887828601611c98565b60208301525095945050505050565b600060208284031215611d8957600080fd5b81516001600160401b03811115611d9f57600080fd5b6117d184828501611c98565b60008085851115611dbb57600080fd5b83861115611dc857600080fd5b5050820193919092039150565b8035602083101561074d57600019602084900360031b1b1692915050565b8082018082111561074d5761074d611ba7565b8181038181111561074d5761074d611ba7565b634e487b7160e01b600052603160045260246000fd5b6bffffffffffffffffffffffff198135818116916014851015611e5c5780818660140360031b1b83161692505b50509291505056fe46756e6374696f6e417574686f72697a6174696f6e3a206e617469766520746f6b656e207472616e73666572206e6f7420616c6c6f77656446756e6374696f6e417574686f72697a6174696f6e3a20696e76616c69642074784461746146756e6374696f6e417574686f72697a6174696f6e3a206e6f7420616c6c6f7765642066756e6374696f6e536f6c765661756c7447756172645f536f6c764f70656e456e6446756e64417574686f72697a6174696f6ea26469706673582212208be7bded1ba3e3ce9fb030141dd9ef02cced3a2716bd42f78d2d4dafaf665a5c64736f6c6343000811003360806040526127106003556305f5e1006004553480156200001f57600080fd5b5060405162001c4a38038062001c4a83398101604081905262000042916200016c565b600080546001600160a01b038086166001600160a01b031992831617835560058054918616919092161790555b8151811015620000c657620000b08282815181106200009257620000926200025d565b60200260200101516006620000d060201b620003621790919060201c565b5080620000bd8162000273565b9150506200006f565b505050506200029b565b6000620000de8383620000e7565b90505b92915050565b60008181526001830160205260408120546200013057508154600181810184556000848152602080822090930184905584548482528286019093526040902091909155620000e1565b506000620000e1565b80516001600160a01b03811681146200015157600080fd5b919050565b634e487b7160e01b600052604160045260246000fd5b6000806000606084860312156200018257600080fd5b6200018d8462000139565b925060206200019e81860162000139565b60408601519093506001600160401b0380821115620001bc57600080fd5b818701915087601f830112620001d157600080fd5b815181811115620001e657620001e662000156565b8060051b604051601f19603f830116810181811085821117156200020e576200020e62000156565b60405291825284820192508381018501918a8311156200022d57600080fd5b938501935b828510156200024d5784518452938501939285019262000232565b8096505050505050509250925092565b634e487b7160e01b600052603260045260246000fd5b6000600182016200029457634e487b7160e01b600052601160045260246000fd5b5060010190565b61199f80620002ab6000396000f3fe608060405234801561001057600080fd5b50600436106100a95760003560e01c80638322fff2116100715780638322fff21461012e578063a3f4df7e14610149578063e558cba11461015e578063e929702e1461017e578063fc9c8d3914610191578063ffa1ad74146101a457600080fd5b80631576f83f146100ae5780631f3a1272146100de5780635541916d146100f357806359c54a7c1461010857806360eb23fb1461011b575b600080fd5b6001546100c1906001600160a01b031681565b6040516001600160a01b0390911681526020015b60405180910390f35b6100f16100ec3660046110ad565b6101ba565b005b6100fb61028a565b6040516100d591906110e5565b6100f16101163660046110ad565b61029b565b6002546100c1906001600160a01b031681565b6100c173eeeeeeeeeeeeeeeeeeeeeeeeeeeeeeeeeeeeeeee81565b6101516102d3565b6040516100d59190611179565b61017161016c36600461118c565b6102ef565b6040516100d59190611226565b6005546100c1906001600160a01b031681565b6000546100c1906001600160a01b031681565b6101ac600181565b6040519081526020016100d5565b60006101c4610377565b60400151905073eeeeeeeeeeeeeeeeeeeeeeeeeeeeeeeeeeeeeeed196001600160a01b0384160161025c578181146102575760405162461bcd60e51b815260206004820152603b602482015260008051602061191f83398151915260448201527f207472616e73616374696f6e2076616c756520746f6f206d756368000000000060648201526084015b60405180910390fd5b61027a565b801561027a5760405162461bcd60e51b815260040161024e90611255565b61028484836103a2565b50505050565b60606102966006610677565b905090565b6102a3610377565b60400151156102c45760405162461bcd60e51b815260040161024e90611255565b6102ce83826103a2565b505050565b6040518060600160405280602b815260200161193f602b913981565b6040805180820190915260008152606060208201526000546001600160a01b0316331461034b5760405162461bcd60e51b815260206004820152600a60248201526937b7363ca1b0b63632b960b11b604482015260640161024e565b610358868686868661068b565b9695505050505050565b600061036e8383610784565b90505b92915050565b60408051608081018252600080825260208201819052918101919091526060808201526102966107d3565b6005546040805163cb2ef6f760e01b815290516000926001600160a01b03169163cb2ef6f791600480830192869291908290030181865afa1580156103eb573d6000803e3d6000fd5b505050506040513d6000823e601f3d908101601f191682016040526104139190810190611382565b90506000600560009054906101000a90046001600160a01b03166001600160a01b0316638ba344706040518163ffffffff1660e01b8152600401602060405180830381865afa15801561046a573d6000803e3d6000fd5b505050506040513d601f19601f8201168201806040525081019061048e91906113b7565b6040516f4f70656e2046756e642053686172657360801b602082015290915060300160405160208183030381529060405280519060200120826040516020016104d791906113d4565b6040516020818303038152906040528051906020012003610557576104fc8185610842565b8311156105525760405162461bcd60e51b8152602060048201526030602482015260008051602061191f83398151915260448201526f081cda185c99481bdd995c881c185a5960821b606482015260840161024e565b610284565b604051744f70656e2046756e6420526564656d7074696f6e7360581b602082015260350160405160208183030381529060405280519060200120826040516020016105a291906113d4565b6040516020818303038152906040528051906020012003610622576105c78185610c95565b8311156105525760405162461bcd60e51b8152602060048201526035602482015260008051602061191f833981519152604482015274081c9959195b5c1d1a5bdb881bdd995c881c185a59605a1b606482015260840161024e565b60405162461bcd60e51b8152602060048201526036602482015260008051602061191f83398151915260448201527520696e76616c696420636f6e7472616374207479706560501b606482015260840161024e565b6060600061068483610efb565b9392505050565b604080518082019091526000815260606020820152600080306001600160a01b031661071c60405180608001604052808b6001600160a01b031681526020018a6001600160a01b0316815260200187815260200189898080601f0160208091040260200160405190810160405280939291908181526020018383808284376000920191909152505050915250610f57565b60405161072991906113d4565b600060405180830381855afa9150503d8060008114610764576040519150601f19603f3d011682016040523d82523d6000602084013e610769565b606091505b50915091506107788282610fcf565b98975050505050505050565b60008181526001830160205260408120546107cb57508154600181810184556000848152602080822090930184905584548482528286019093526040902091909155610371565b506000610371565b60408051608081018252600080825260208201819052918101919091526060808201523660008082610806602082611406565b61081292859290611419565b81019061081f9190611443565b905061082e3682816000611419565b81019061083b919061145c565b9250505090565b600080600080856001600160a01b03166394f7e23e866040518263ffffffff1660e01b815260040161087691815260200190565b60e060405180830381865afa158015610893573d6000803e3d6000fd5b505050506040513d601f19601f820116820180604052508101906108b79190611567565b50505093509350935050600080876001600160a01b031663339bc561886040518263ffffffff1660e01b81526004016108f291815260200190565b600060405180830381865afa15801561090f573d6000803e3d6000fd5b505050506040513d6000823e601f3d908101601f191682016040526109379190810190611603565b5094509450505050806109995760405162461bcd60e51b8152602060048201526036602482015260008051602061191f833981519152604482015275081a5b9d195c995cdd081c985d19481b9bdd081cd95d60521b606482015260840161024e565b60006004546003546109ab9190611696565b905060006301da9c006109be87876116ad565b67ffffffffffffffff1660045460008760030b126109df578660030b6109ee565b6109ea8760006116d5565b60030b5b6109f89190611696565b610a029190611696565b610a0c91906116fc565b90506000808560030b12610a2957610a24828461171e565b610a33565b610a338284611406565b905060006001600160a01b03891673eeeeeeeeeeeeeeeeeeeeeeeeeeeeeeeeeeeeeeee14610ac257886001600160a01b031663313ce5676040518163ffffffff1660e01b8152600401602060405180830381865afa158015610a99573d6000803e3d6000fd5b505050506040513d601f19601f82011682018060405250810190610abd9190611731565b610ac5565b60125b90506000600560009054906101000a90046001600160a01b03166001600160a01b0316633e7e86696040518163ffffffff1660e01b8152600401602060405180830381865afa158015610b1c573d6000803e3d6000fd5b505050506040513d601f19601f82011682018060405250810190610b409190611731565b60405163c15a4e6960e01b8152600481018e90529091506000906001600160a01b038f169063c15a4e6990602401602060405180830381865afa158015610b8b573d6000803e3d6000fd5b505050506040513d601f19601f82011682018060405250810190610baf919061174c565b905060008e6001600160a01b031663e8e99b978f6040518263ffffffff1660e01b8152600401610be191815260200190565b602060405180830381865afa158015610bfe573d6000803e3d6000fd5b505050506040513d601f19601f82011682018060405250810190610c22919061174c565b90506000610c3184600a611849565b600454600354610c4288600a611849565b610c4c8a88611696565b610c569190611696565b610c6091906116fc565b610c6a91906116fc565b610c7491906116fc565b9050610c808282611406565b9d505050505050505050505050505092915050565b6000806000846001600160a01b031663dc296b12856040518263ffffffff1660e01b8152600401610cc891815260200190565b608060405180830381865afa158015610ce5573d6000803e3d6000fd5b505050506040513d601f19601f82011682018060405250810190610d099190611858565b935050509150610d2382600661107d90919063ffffffff16565b610d795760405162461bcd60e51b8152602060048201526033602482015260008051602061191f83398151915260448201527220706f6f6c206e6f7420726570617961626c6560681b606482015260840161024e565b60405163c15a4e6960e01b8152600481018590526000906001600160a01b0387169063c15a4e6990602401602060405180830381865afa158015610dc1573d6000803e3d6000fd5b505050506040513d601f19601f82011682018060405250810190610de5919061174c565b60405163e8e99b9760e01b8152600481018790529091506000906001600160a01b0388169063e8e99b9790602401602060405180830381865afa158015610e30573d6000803e3d6000fd5b505050506040513d601f19601f82011682018060405250810190610e54919061174c565b90506000600560009054906101000a90046001600160a01b03166001600160a01b0316633e7e86696040518163ffffffff1660e01b8152600401602060405180830381865afa158015610eab573d6000803e3d6000fd5b505050506040513d601f19601f82011682018060405250810190610ecf9190611731565b905081610edd82600a611849565b610ee78686611696565b610ef191906116fc565b6107789190611406565b606081600001805480602002602001604051908101604052809291908181526020018280548015610f4b57602002820191906000526020600020905b815481526020019060010190808311610f37575b50505050509050919050565b6060600082604051602001610f6c9190611896565b60408051601f198184030181528282526060860151516020840152925060009101604051602081830303815290604052905083606001518282604051602001610fb7939291906118db565b60405160208183030381529060405292505050919050565b6040805180820190915260008152606060208201528215611042578151156110395760405162461bcd60e51b815260206004820152601d60248201527f41434c2046756e6374696f6e2072657475726e206e6f6e20656d707479000000604482015260640161024e565b60018152610371565b6044825110156110585760208101829052610371565b600482019150818060200190518101906110729190611382565b602082015292915050565b6000818152600183016020526040812054151561036e565b6001600160a01b03811681146110aa57600080fd5b50565b6000806000606084860312156110c257600080fd5b8335925060208401356110d481611095565b929592945050506040919091013590565b6020808252825182820181905260009190848201906040850190845b8181101561111d57835183529284019291840191600101611101565b50909695505050505050565b60005b8381101561114457818101518382015260200161112c565b50506000910152565b60008151808452611165816020860160208601611129565b601f01601f19169290920160200192915050565b60208152600061036e602083018461114d565b6000806000806000608086880312156111a457600080fd5b85356111af81611095565b945060208601356111bf81611095565b9350604086013567ffffffffffffffff808211156111dc57600080fd5b818801915088601f8301126111f057600080fd5b8135818111156111ff57600080fd5b89602082850101111561121157600080fd5b96999598505060200195606001359392505050565b602081528151151560208201526000602083015160408084015261124d606084018261114d565b949350505050565b6020808252603e9082015260008051602061191f83398151915260408201527f207472616e73616374696f6e2076616c7565206e6f7420616c6c6f7765640000606082015260800190565b634e487b7160e01b600052604160045260246000fd5b6040516080810167ffffffffffffffff811182821017156112d9576112d96112a0565b60405290565b604051601f8201601f1916810167ffffffffffffffff81118282101715611308576113086112a0565b604052919050565b600067ffffffffffffffff82111561132a5761132a6112a0565b50601f01601f191660200190565b600082601f83011261134957600080fd5b815161135c61135782611310565b6112df565b81815284602083860101111561137157600080fd5b61124d826020830160208701611129565b60006020828403121561139457600080fd5b815167ffffffffffffffff8111156113ab57600080fd5b61124d84828501611338565b6000602082840312156113c957600080fd5b815161068481611095565b600082516113e6818460208701611129565b9190910192915050565b634e487b7160e01b600052601160045260246000fd5b81810381811115610371576103716113f0565b6000808585111561142957600080fd5b8386111561143657600080fd5b5050820193919092039150565b60006020828403121561145557600080fd5b5035919050565b6000602080838503121561146f57600080fd5b823567ffffffffffffffff8082111561148757600080fd5b908401906080828703121561149b57600080fd5b6114a36112b6565b82356114ae81611095565b8152828401356114bd81611095565b81850152604083810135908201526060830135828111156114dd57600080fd5b80840193505086601f8401126114f257600080fd5b8235915061150261135783611310565b828152878584860101111561151657600080fd5b82858501868301376000858483010152806060830152508094505050505092915050565b805167ffffffffffffffff8116811461155257600080fd5b919050565b8051801515811461155257600080fd5b600080600080600080600060e0888a03121561158257600080fd5b875161158d81611095565b602089015190975061159e81611095565b95506115ac6040890161153a565b94506115ba6060890161153a565b93506115c86080890161153a565b92506115d660a08901611557565b91506115e460c08901611557565b905092959891949750929550565b805160ff8116811461155257600080fd5b60008060008060008060c0878903121561161c57600080fd5b865161162781611095565b6020880151909650945061163d604088016115f2565b935060608701518060030b811461165357600080fd5b925061166160808801611557565b915060a087015167ffffffffffffffff81111561167d57600080fd5b61168989828a01611338565b9150509295509295509295565b8082028115828204841417610371576103716113f0565b67ffffffffffffffff8281168282160390808211156116ce576116ce6113f0565b5092915050565b600382810b9082900b03637fffffff198112637fffffff82131715610371576103716113f0565b60008261171957634e487b7160e01b600052601260045260246000fd5b500490565b80820180821115610371576103716113f0565b60006020828403121561174357600080fd5b61036e826115f2565b60006020828403121561175e57600080fd5b5051919050565b600181815b808511156117a0578160001904821115611786576117866113f0565b8085161561179357918102915b93841c939080029061176a565b509250929050565b6000826117b757506001610371565b816117c457506000610371565b81600181146117da57600281146117e457611800565b6001915050610371565b60ff8411156117f5576117f56113f0565b50506001821b610371565b5060208310610133831016604e8410600b8410161715611823575081810a610371565b61182d8383611765565b8060001904821115611841576118416113f0565b029392505050565b600061036e60ff8416836117a8565b6000806000806080858703121561186e57600080fd5b84519350602085015161188081611095565b6040860151606090960151949790965092505050565b60208152600060018060a01b038084511660208401528060208501511660408401525060408301516060830152606083015160808084015261124d60a084018261114d565b600084516118ed818460208901611129565b845190830190611901818360208901611129565b8451910190611914818360208801611129565b019594505050505056fe536f6c764f70656e456e6446756e64417574686f72697a6174696f6e41434c3a536f6c765661756c7447756172645f536f6c764f70656e46756e64417574686f72697a6174696f6e41434ca2646970667358221220bf302cc8e059cfddc25ac45aeba03f7d1e012d03cdc62cc3bc3b7d7bdc40cf2164736f6c63430008110033",
  "devdoc": {
    "kind": "dev",
    "methods": {
      "multicall(bytes[])": {
        "details": "Receives and executes a batch of function calls on this contract."
      }
    },
    "version": 1
  },
  "userdoc": {
    "kind": "user",
    "methods": {},
    "version": 1
  },
  "storageLayout": {
    "storage": [
      {
        "astId": 5712,
        "contract": "src/authorizations/SolvOpenEndFundAuthorization.sol:SolvOpenEndFundAuthorization",
        "label": "governor",
        "offset": 0,
        "slot": "0",
        "type": "t_address"
      },
      {
        "astId": 5715,
        "contract": "src/authorizations/SolvOpenEndFundAuthorization.sol:SolvOpenEndFundAuthorization",
        "label": "governanceAllowed",
        "offset": 20,
        "slot": "0",
        "type": "t_bool"
      },
      {
        "astId": 3957,
        "contract": "src/authorizations/SolvOpenEndFundAuthorization.sol:SolvOpenEndFundAuthorization",
        "label": "caller",
        "offset": 0,
        "slot": "1",
        "type": "t_address"
      },
      {
        "astId": 4088,
        "contract": "src/authorizations/SolvOpenEndFundAuthorization.sol:SolvOpenEndFundAuthorization",
        "label": "_contracts",
        "offset": 0,
        "slot": "2",
        "type": "t_struct(AddressSet)325_storage"
      },
      {
        "astId": 4093,
        "contract": "src/authorizations/SolvOpenEndFundAuthorization.sol:SolvOpenEndFundAuthorization",
        "label": "_allowedContractToFunctions",
        "offset": 0,
        "slot": "4",
        "type": "t_mapping(t_address,t_struct(Bytes32Set)204_storage)"
      },
      {
        "astId": 4097,
        "contract": "src/authorizations/SolvOpenEndFundAuthorization.sol:SolvOpenEndFundAuthorization",
        "label": "_contractACL",
        "offset": 0,
        "slot": "5",
        "type": "t_mapping(t_address,t_address)"
      }
    ],
    "types": {
      "t_address": {
        "encoding": "inplace",
        "label": "address",
        "numberOfBytes": "20"
      },
      "t_array(t_bytes32)dyn_storage": {
        "base": "t_bytes32",
        "encoding": "dynamic_array",
        "label": "bytes32[]",
        "numberOfBytes": "32"
      },
      "t_bool": {
        "encoding": "inplace",
        "label": "bool",
        "numberOfBytes": "1"
      },
      "t_bytes32": {
        "encoding": "inplace",
        "label": "bytes32",
        "numberOfBytes": "32"
      },
      "t_mapping(t_address,t_address)": {
        "encoding": "mapping",
        "key": "t_address",
        "label": "mapping(address => address)",
        "numberOfBytes": "32",
        "value": "t_address"
      },
      "t_mapping(t_address,t_struct(Bytes32Set)204_storage)": {
        "encoding": "mapping",
        "key": "t_address",
        "label": "mapping(address => struct EnumerableSet.Bytes32Set)",
        "numberOfBytes": "32",
        "value": "t_struct(Bytes32Set)204_storage"
      },
      "t_mapping(t_bytes32,t_uint256)": {
        "encoding": "mapping",
        "key": "t_bytes32",
        "label": "mapping(bytes32 => uint256)",
        "numberOfBytes": "32",
        "value": "t_uint256"
      },
      "t_struct(AddressSet)325_storage": {
        "encoding": "inplace",
        "label": "struct EnumerableSet.AddressSet",
        "members": [
          {
            "astId": 324,
            "contract": "src/authorizations/SolvOpenEndFundAuthorization.sol:SolvOpenEndFundAuthorization",
            "label": "_inner",
            "offset": 0,
            "slot": "0",
            "type": "t_struct(Set)10_storage"
          }
        ],
        "numberOfBytes": "64"
      },
      "t_struct(Bytes32Set)204_storage": {
        "encoding": "inplace",
        "label": "struct EnumerableSet.Bytes32Set",
        "members": [
          {
            "astId": 203,
            "contract": "src/authorizations/SolvOpenEndFundAuthorization.sol:SolvOpenEndFundAuthorization",
            "label": "_inner",
            "offset": 0,
            "slot": "0",
            "type": "t_struct(Set)10_storage"
          }
        ],
        "numberOfBytes": "64"
      },
      "t_struct(Set)10_storage": {
        "encoding": "inplace",
        "label": "struct EnumerableSet.Set",
        "members": [
          {
            "astId": 5,
            "contract": "src/authorizations/SolvOpenEndFundAuthorization.sol:SolvOpenEndFundAuthorization",
            "label": "_values",
            "offset": 0,
            "slot": "0",
            "type": "t_array(t_bytes32)dyn_storage"
          },
          {
            "astId": 9,
            "contract": "src/authorizations/SolvOpenEndFundAuthorization.sol:SolvOpenEndFundAuthorization",
            "label": "_indexes",
            "offset": 0,
            "slot": "1",
            "type": "t_mapping(t_bytes32,t_uint256)"
          }
        ],
        "numberOfBytes": "64"
      },
      "t_uint256": {
        "encoding": "inplace",
        "label": "uint256",
        "numberOfBytes": "32"
      }
    }
  }
}