{
  "address": "0x66AfBE7f663f27D47BebD191380FC29c58D595dE",
  "abi": [
    {
      "inputs": [
        {
          "internalType": "address",
          "name": "safeMultiSendContract_",
          "type": "address"
        },
        {
          "internalType": "address",
          "name": "caller_",
          "type": "address"
        },
        {
          "components": [
            {
              "internalType": "address",
              "name": "token",
              "type": "address"
            },
            {
              "internalType": "address[]",
              "name": "spenders",
              "type": "address[]"
            }
          ],
          "internalType": "struct ERC20ApproveAuthorization.TokenSpenders[]",
          "name": "tokenSpenders_",
          "type": "tuple[]"
        }
      ],
      "stateMutability": "nonpayable",
      "type": "constructor"
    },
    {
      "anonymous": false,
      "inputs": [
        {
          "indexed": true,
          "internalType": "address",
          "name": "contract_",
          "type": "address"
        },
        {
          "indexed": false,
          "internalType": "string",
          "name": "func_",
          "type": "string"
        },
        {
          "indexed": true,
          "internalType": "address",
          "name": "sender_",
          "type": "address"
        }
      ],
      "name": "AddContractFunc",
      "type": "event"
    },
    {
      "anonymous": false,
      "inputs": [
        {
          "indexed": true,
          "internalType": "address",
          "name": "contract_",
          "type": "address"
        },
        {
          "indexed": true,
          "internalType": "bytes4",
          "name": "funcSig_",
          "type": "bytes4"
        },
        {
          "indexed": true,
          "internalType": "address",
          "name": "sender_",
          "type": "address"
        }
      ],
      "name": "AddContractFuncSig",
      "type": "event"
    },
    {
      "anonymous": false,
      "inputs": [
        {
          "indexed": true,
          "internalType": "address",
          "name": "previousGovernor",
          "type": "address"
        },
        {
          "indexed": true,
          "internalType": "address",
          "name": "newGovernor",
          "type": "address"
        }
      ],
      "name": "NewGovernor",
      "type": "event"
    },
    {
      "anonymous": false,
      "inputs": [
        {
          "indexed": true,
          "internalType": "address",
          "name": "contract_",
          "type": "address"
        },
        {
          "indexed": false,
          "internalType": "string",
          "name": "func_",
          "type": "string"
        },
        {
          "indexed": true,
          "internalType": "address",
          "name": "sender_",
          "type": "address"
        }
      ],
      "name": "RemoveContractFunc",
      "type": "event"
    },
    {
      "anonymous": false,
      "inputs": [
        {
          "indexed": true,
          "internalType": "address",
          "name": "contract_",
          "type": "address"
        },
        {
          "indexed": true,
          "internalType": "bytes4",
          "name": "funcSig_",
          "type": "bytes4"
        },
        {
          "indexed": true,
          "internalType": "address",
          "name": "sender_",
          "type": "address"
        }
      ],
      "name": "RemoveContractFuncSig",
      "type": "event"
    },
    {
      "anonymous": false,
      "inputs": [
        {
          "indexed": true,
          "internalType": "address",
          "name": "contract_",
          "type": "address"
        },
        {
          "indexed": true,
          "internalType": "address",
          "name": "acl_",
          "type": "address"
        },
        {
          "indexed": true,
          "internalType": "address",
          "name": "sender_",
          "type": "address"
        }
      ],
      "name": "SetContractACL",
      "type": "event"
    },
    {
      "anonymous": false,
      "inputs": [
        {
          "indexed": true,
          "internalType": "address",
          "name": "token",
          "type": "address"
        }
      ],
      "name": "TokenAdded",
      "type": "event"
    },
    {
      "anonymous": false,
      "inputs": [
        {
          "indexed": true,
          "internalType": "address",
          "name": "token",
          "type": "address"
        }
      ],
      "name": "TokenRemoved",
      "type": "event"
    },
    {
      "anonymous": false,
      "inputs": [
        {
          "indexed": true,
          "internalType": "address",
          "name": "token",
          "type": "address"
        },
        {
          "indexed": true,
          "internalType": "address",
          "name": "spender",
          "type": "address"
        }
      ],
      "name": "TokenSpenderAdded",
      "type": "event"
    },
    {
      "stateMutability": "nonpayable",
      "type": "fallback"
    },
    {
      "inputs": [],
      "name": "NAME",
      "outputs": [
        {
          "internalType": "string",
          "name": "",
          "type": "string"
        }
      ],
      "stateMutability": "view",
      "type": "function"
    },
    {
      "inputs": [],
      "name": "SAFE_MULITSEND_FUNC_MULTI_SEND",
      "outputs": [
        {
          "internalType": "string",
          "name": "",
          "type": "string"
        }
      ],
      "stateMutability": "view",
      "type": "function"
    },
    {
      "inputs": [],
      "name": "VERSION",
      "outputs": [
        {
          "internalType": "int256",
          "name": "",
          "type": "int256"
        }
      ],
      "stateMutability": "view",
      "type": "function"
    },
    {
      "inputs": [
        {
          "internalType": "address",
          "name": "contract_",
          "type": "address"
        },
        {
          "internalType": "address",
          "name": "acl_",
          "type": "address"
        },
        {
          "internalType": "string[]",
          "name": "funcList_",
          "type": "string[]"
        }
      ],
      "name": "addContractFuncs",
      "outputs": [],
      "stateMutability": "nonpayable",
      "type": "function"
    },
    {
      "inputs": [
        {
          "internalType": "address",
          "name": "contract_",
          "type": "address"
        },
        {
          "internalType": "address",
          "name": "acl_",
          "type": "address"
        },
        {
          "internalType": "bytes4[]",
          "name": "funcSigList_",
          "type": "bytes4[]"
        }
      ],
      "name": "addContractFuncsSig",
      "outputs": [],
      "stateMutability": "nonpayable",
      "type": "function"
    },
    {
      "inputs": [
        {
          "components": [
            {
              "internalType": "address",
              "name": "token",
              "type": "address"
            },
            {
              "internalType": "address[]",
              "name": "spenders",
              "type": "address[]"
            }
          ],
          "internalType": "struct ERC20ApproveAuthorization.TokenSpenders[]",
          "name": "tokenSpendersList_",
          "type": "tuple[]"
        }
      ],
      "name": "addTokenSpenders",
      "outputs": [],
      "stateMutability": "nonpayable",
      "type": "function"
    },
    {
      "inputs": [
        {
          "components": [
            {
              "internalType": "address",
              "name": "from",
              "type": "address"
            },
            {
              "internalType": "address",
              "name": "to",
              "type": "address"
            },
            {
              "internalType": "uint256",
              "name": "value",
              "type": "uint256"
            },
            {
              "internalType": "bytes",
              "name": "data",
              "type": "bytes"
            }
          ],
          "internalType": "struct Type.TxData",
          "name": "txData_",
          "type": "tuple"
        }
      ],
      "name": "authorizationCheckTransaction",
      "outputs": [
        {
          "components": [
            {
              "internalType": "bool",
              "name": "success",
              "type": "bool"
            },
            {
              "internalType": "string",
              "name": "message",
              "type": "string"
            }
          ],
          "internalType": "struct Type.CheckResult",
          "name": "",
          "type": "tuple"
        }
      ],
      "stateMutability": "nonpayable",
      "type": "function"
    },
    {
      "inputs": [],
      "name": "caller",
      "outputs": [
        {
          "internalType": "address",
          "name": "",
          "type": "address"
        }
      ],
      "stateMutability": "view",
      "type": "function"
    },
    {
      "inputs": [],
      "name": "forbidGovernance",
      "outputs": [],
      "stateMutability": "nonpayable",
      "type": "function"
    },
    {
      "inputs": [
        {
          "internalType": "address",
          "name": "contract_",
          "type": "address"
        }
      ],
      "name": "getACLByContract",
      "outputs": [
        {
          "internalType": "address",
          "name": "",
          "type": "address"
        }
      ],
      "stateMutability": "view",
      "type": "function"
    },
    {
      "inputs": [],
      "name": "getAllContracts",
      "outputs": [
        {
          "internalType": "address[]",
          "name": "",
          "type": "address[]"
        }
      ],
      "stateMutability": "view",
      "type": "function"
    },
    {
      "inputs": [],
      "name": "getAllTokens",
      "outputs": [
        {
          "internalType": "address[]",
          "name": "",
          "type": "address[]"
        }
      ],
      "stateMutability": "view",
      "type": "function"
    },
    {
      "inputs": [
        {
          "internalType": "address",
          "name": "contract_",
          "type": "address"
        }
      ],
      "name": "getFunctionsByContract",
      "outputs": [
        {
          "internalType": "bytes32[]",
          "name": "",
          "type": "bytes32[]"
        }
      ],
      "stateMutability": "view",
      "type": "function"
    },
    {
      "inputs": [
        {
          "internalType": "address",
          "name": "token",
          "type": "address"
        }
      ],
      "name": "getTokenSpenders",
      "outputs": [
        {
          "internalType": "address[]",
          "name": "",
          "type": "address[]"
        }
      ],
      "stateMutability": "view",
      "type": "function"
    },
    {
      "inputs": [],
      "name": "governanceAllowed",
      "outputs": [
        {
          "internalType": "bool",
          "name": "",
          "type": "bool"
        }
      ],
      "stateMutability": "view",
      "type": "function"
    },
    {
      "inputs": [],
      "name": "governor",
      "outputs": [
        {
          "internalType": "address",
          "name": "",
          "type": "address"
        }
      ],
      "stateMutability": "view",
      "type": "function"
    },
    {
      "inputs": [
        {
          "internalType": "bytes[]",
          "name": "data",
          "type": "bytes[]"
        }
      ],
      "name": "multicall",
      "outputs": [
        {
          "internalType": "bytes[]",
          "name": "results",
          "type": "bytes[]"
        }
      ],
      "stateMutability": "nonpayable",
      "type": "function"
    },
    {
      "inputs": [
        {
          "internalType": "address",
          "name": "contract_",
          "type": "address"
        },
        {
          "internalType": "string[]",
          "name": "funcList_",
          "type": "string[]"
        }
      ],
      "name": "removeContractFuncs",
      "outputs": [],
      "stateMutability": "nonpayable",
      "type": "function"
    },
    {
      "inputs": [
        {
          "internalType": "address",
          "name": "contract_",
          "type": "address"
        },
        {
          "internalType": "bytes4[]",
          "name": "funcSigList_",
          "type": "bytes4[]"
        }
      ],
      "name": "removeContractFuncsSig",
      "outputs": [],
      "stateMutability": "nonpayable",
      "type": "function"
    },
    {
      "inputs": [
        {
          "components": [
            {
              "internalType": "address",
              "name": "token",
              "type": "address"
            },
            {
              "internalType": "address[]",
              "name": "spenders",
              "type": "address[]"
            }
          ],
          "internalType": "struct ERC20ApproveAuthorization.TokenSpenders[]",
          "name": "tokenSpendersList_",
          "type": "tuple[]"
        }
      ],
      "name": "removeTokenSpenders",
      "outputs": [],
      "stateMutability": "nonpayable",
      "type": "function"
    },
    {
      "inputs": [],
      "name": "safeAccount",
      "outputs": [
        {
          "internalType": "address",
          "name": "",
          "type": "address"
        }
      ],
      "stateMutability": "view",
      "type": "function"
    },
    {
      "inputs": [],
      "name": "safeMultiSendContract",
      "outputs": [
        {
          "internalType": "address",
          "name": "",
          "type": "address"
        }
      ],
      "stateMutability": "view",
      "type": "function"
    },
    {
      "inputs": [
        {
          "internalType": "address",
          "name": "contract_",
          "type": "address"
        },
        {
          "internalType": "address",
          "name": "acl_",
          "type": "address"
        }
      ],
      "name": "setContractACL",
      "outputs": [],
      "stateMutability": "nonpayable",
      "type": "function"
    },
    {
      "inputs": [
        {
          "internalType": "address",
          "name": "newGovernor_",
          "type": "address"
        }
      ],
      "name": "transferGovernance",
      "outputs": [],
      "stateMutability": "nonpayable",
      "type": "function"
    }
  ],
  "transactionHash": "0x613573e37ed76b00fdb3251ee2672124026d0afb8bf8cec33db677e3e637a062",
  "args": [
    "0xA238CBeb142c10Ef7Ad8442C6D1f9E89e07e7761",
    "0x074898bF8b0ce74B09960bb4E82EF0bFD4BaB875",
    [
      [
        "0xFd086bC7CD5C481DCC9C85ebE478A1C0b69FCbb9",
        [
          "0x22799DAA45209338B7f938edf251bdfD1E6dCB32",
          "0xe9bD233b2b34934Fb83955EC15c2ac48F31A0E8c"
        ]
      ]
    ]
  ],
  "numDeployments": 1,
  "solcInputHash": "17008dbbee8cd6ecacadd393fda9ace3",
  "bytecode": "0x60a06040526000805460ff60a01b1916600160a01b1790553480156200002457600080fd5b506040516200339938038062003399833981016040819052620000479162000932565b8282836001600160a01b0316630c340a246040518163ffffffff1660e01b8152600401602060405180830381865afa15801562000088573d6000803e3d6000fd5b505050506040513d601f19601f82011682018060405250810190620000ae919062000ade565b818180620000bc8162000235565b5050600180546001600160a01b0319166001600160a01b0392831617905592909216608090815260408051600380825292810190915292509050602082015b6060815260200190600190039081620000fb57505080516200012691600791602090910190620007a4565b506040518060400160405280601881526020017f617070726f766528616464726573732c75696e74323536290000000000000000815250600760008154811062000174576200017462000afc565b9060005260206000200190816200018c919062000ba0565b5060405180606001604052806022815260200162003355602291396007600181548110620001be57620001be62000afc565b906000526020600020019081620001d6919062000ba0565b506040518060600160405280602281526020016200337760229139600760028154811062000208576200020862000afc565b90600052602060002001908162000220919062000ba0565b506200022c81620002f6565b50505062000ce4565b6001600160a01b038116620002a65760405162461bcd60e51b815260206004820152602c60248201527f476f7665726e61626c653a206e657720676f7665726e6f72206973207468652060448201526b7a65726f206164647265737360a01b60648201526084015b60405180910390fd5b600080546001600160a01b038381166001600160a01b0319831681178455604051919092169283917f1ba669d4a78521f2ad26e8e0fcbcdd626a63f34d68f326bc232a3abe2a5d042a9190a35050565b60005b81518110156200034557620003308282815181106200031c576200031c62000afc565b60200260200101516200034960201b60201c565b806200033c8162000c6c565b915050620002f9565b5050565b8051602080830151906200036b906008908490620008f762000565821b17901c565b156200048e5762000459826007805480602002602001604051908101604052809291908181526020016000905b828210156200044e578382906000526020600020018054620003ba9062000b12565b80601f0160208091040260200160405190810160405280929190818152602001828054620003e89062000b12565b8015620004395780601f106200040d5761010080835404028352916020019162000439565b820191906000526020600020905b8154815290600101906020018083116200041b57829003601f168201915b50505050508152602001906001019062000398565b505062000585915050565b6040516001600160a01b038316907f784c8f4dbf0ffedd6e72c76501c545a70f8b203b30a26ce542bf92ba87c248a490600090a25b60005b81518110156200055f57620004e7828281518110620004b457620004b462000afc565b6020908102919091018101516001600160a01b0386166000908152600a83526040902091620008f762000565821b17901c565b156200054a5781818151811062000502576200050262000afc565b60200260200101516001600160a01b0316836001600160a01b03167ff9379a04548d43557a3776d3a8d84c311dc0f769747526985c7b020600e6f15660405160405180910390a35b80620005568162000c6c565b91505062000491565b50505050565b60006200057c836001600160a01b03841662000744565b90505b92915050565b6000815111620005e65760405162461bcd60e51b815260206004820152602560248201527f46756e6374696f6e417574686f72697a6174696f6e3a20656d7074792066756e60448201526418d31a5cdd60da1b60648201526084016200029d565b60005b8151811015620007235760008282815181106200060a576200060a62000afc565b6020908102919091018101518051908201206001600160a01b038616600090815260048352604090209092506001600160e01b031983169162000659919083906200091362000796821b17901c565b156200070b57336001600160a01b0316856001600160a01b03167f5c55717c3268b2c739eb5087e22a9bcf39b0d4f5a8ab89b4fff9cfe5711e4b34868681518110620006a957620006a962000afc565b6020026020010151604051620006c0919062000c94565b60405180910390a360405133906001600160e01b03198416906001600160a01b038816907f246b022c673a2751245f84dced77afcce61bcd820ff1235276e8c1c242a78f7490600090a45b505080806200071a9062000c6c565b915050620005e9565b506200073f8260026200056560201b620008f71790919060201c565b505050565b60008181526001830160205260408120546200078d575081546001818101845560008481526020808220909301849055845484825282860190935260409020919091556200057f565b5060006200057f565b60006200057c838362000744565b828054828255906000526020600020908101928215620007ef579160200282015b82811115620007ef5782518290620007de908262000ba0565b5091602001919060010190620007c5565b50620007fd92915062000801565b5090565b80821115620007fd57600062000818828262000822565b5060010162000801565b508054620008309062000b12565b6000825580601f1062000841575050565b601f01602090049060005260206000209081019062000861919062000864565b50565b5b80821115620007fd576000815560010162000865565b80516001600160a01b03811681146200089357600080fd5b919050565b634e487b7160e01b600052604160045260246000fd5b604080519081016001600160401b0381118282101715620008d357620008d362000898565b60405290565b604051601f8201601f191681016001600160401b038111828210171562000904576200090462000898565b604052919050565b60006001600160401b0382111562000928576200092862000898565b5060051b60200190565b6000806000606084860312156200094857600080fd5b62000953846200087b565b925062000963602085016200087b565b60408501519092506001600160401b03808211156200098157600080fd5b818601915086601f8301126200099657600080fd5b8151620009ad620009a7826200090c565b620008d9565b8082825260208201915060208360051b860101925089831115620009d057600080fd5b602085015b8381101562000ace57805185811115620009ee57600080fd5b86016040818d03601f1901121562000a0557600080fd5b62000a0f620008ae565b62000a1d602083016200087b565b815260408201518781111562000a3257600080fd5b8083019250508c603f83011262000a4857600080fd5b602082015162000a5c620009a7826200090c565b808282526020820191506020808460051b8701010192508f83111562000a8157600080fd5b6040850194505b8285101562000aae5762000a9c856200087b565b82526020948501949091019062000a88565b8060208501525050508085525050602083019250602081019050620009d5565b5080955050505050509250925092565b60006020828403121562000af157600080fd5b6200057c826200087b565b634e487b7160e01b600052603260045260246000fd5b600181811c9082168062000b2757607f821691505b60208210810362000b4857634e487b7160e01b600052602260045260246000fd5b50919050565b601f8211156200073f57600081815260208120601f850160051c8101602086101562000b775750805b601f850160051c820191505b8181101562000b985782815560010162000b83565b505050505050565b81516001600160401b0381111562000bbc5762000bbc62000898565b62000bd48162000bcd845462000b12565b8462000b4e565b602080601f83116001811462000c0c576000841562000bf35750858301515b600019600386901b1c1916600185901b17855562000b98565b600085815260208120601f198616915b8281101562000c3d5788860151825594840194600190910190840162000c1c565b508582101562000c5c5787850151600019600388901b60f8161c191681555b5050505050600190811b01905550565b60006001820162000c8d57634e487b7160e01b600052601160045260246000fd5b5060010190565b600060208083528351808285015260005b8181101562000cc35785810183015185820160400152820162000ca5565b506000604082860101526040601f19601f8301168501019250505092915050565b60805161264e62000d076000396000818161022201526111af015261264e6000f3fe608060405234801561001057600080fd5b506004361061014f5760003560e01c806370c2ded5116100bd578063ac237ab011610079578063ac237ab014610331578063ac9650d814610344578063d38bfff414610364578063f486186d14610377578063fc9c8d391461037f578063ffa1ad741461039257005b806370c2ded5146102a457806373339381146102c457806394e9d044146102d7578063a2d96210146102ea578063a3f4df7e146102fd578063a3fb76a51461030557005b806336a6c8611161010c57806336a6c861146101e457806347263232146101f7578063476ed36d1461020a57806352797b3e1461021d5780635ce5fb0a14610244578063656abb9c1461026857005b80630c340a241461015157806314fda027146101815780631576f83f1461019457806318d3ce96146101a75780632a5c792a146101bc5780633504a49f146101c4575b005b600054610164906001600160a01b031681565b6040516001600160a01b0390911681526020015b60405180910390f35b61014f61018f366004611c00565b6103a8565b600654610164906001600160a01b031681565b6101af61044c565b6040516101789190611c60565b6101af61045d565b6101d76101d2366004611cad565b610469565b6040516101789190611d37565b61014f6101f2366004611d66565b6104e9565b61014f610205366004611d99565b610536565b61014f610218366004611dda565b610587565b6101647f000000000000000000000000000000000000000000000000000000000000000081565b60005461025890600160a01b900460ff1681565b6040519015158152602001610178565b6102976040518060400160405280601081526020016f6d756c746953656e642862797465732960801b81525081565b6040516101789190611e2c565b6102b76102b2366004611e3f565b6105de565b6040516101789190611e5a565b61014f6102d2366004611d99565b610602565b61014f6102e5366004611dda565b610653565b61014f6102f8366004611ffe565b61069d565b6102976106ff565b610164610313366004611e3f565b6001600160a01b039081166000908152600560205260409020541690565b6101af61033f366004611e3f565b61071b565b610357610352366004611d99565b61073f565b604051610178919061206f565b61014f610372366004611e3f565b61085e565b61014f6108a9565b600154610164906001600160a01b031681565b61039a600181565b604051908152602001610178565b600054600160a01b900460ff1680156103cb57506000546001600160a01b031633145b6103f05760405162461bcd60e51b81526004016103e7906120d1565b60405180910390fd5b61042d8483838080602002602001604051908101604052809392919081815260200183836020028082843760009201919091525061091f92505050565b6001600160a01b03831615610446576104468484610a34565b50505050565b60606104586002610a8e565b905090565b60606104586008610a8e565b6040805180820190915260008152606060208201526001546001600160a01b031633146104d85760405162461bcd60e51b815260206004820152601b60248201527f42617365417574686f72697a6174696f6e3a206f6e6c7953656c66000000000060448201526064016103e7565b6104e182610a9b565b90505b919050565b600054600160a01b900460ff16801561050c57506000546001600160a01b031633145b6105285760405162461bcd60e51b81526004016103e7906120d1565b6105328282610a34565b5050565b600054600160a01b900460ff16801561055957506000546001600160a01b031633145b6105755760405162461bcd60e51b81526004016103e7906120d1565b6105326105828284612108565b610ae7565b600054600160a01b900460ff1680156105aa57506000546001600160a01b031633145b6105c65760405162461bcd60e51b81526004016103e7906120d1565b6105d9836105d4838561220e565b610b27565b505050565b6001600160a01b03811660009081526004602052604090206060906104e190610a8e565b600054600160a01b900460ff16801561062557506000546001600160a01b031633145b6106415760405162461bcd60e51b81526004016103e7906120d1565b61053261064e8284612108565b610cc7565b600054600160a01b900460ff16801561067657506000546001600160a01b031633145b6106925760405162461bcd60e51b81526004016103e7906120d1565b6105d9838383610d07565b600054600160a01b900460ff1680156106c057506000546001600160a01b031633145b6106dc5760405162461bcd60e51b81526004016103e7906120d1565b6106e68382610e64565b6001600160a01b038216156105d9576105d98383610a34565b6040518060600160405280602881526020016125f16028913981565b6001600160a01b0381166000908152600a602052604090206060906104e190610a8e565b6060816001600160401b0381111561075957610759611e92565b60405190808252806020026020018201604052801561078c57816020015b60608152602001906001900390816107775790505b50905060005b8281101561085657600080308686858181106107b0576107b061221b565b90506020028101906107c29190612231565b6040516107d0929190612277565b600060405180830381855af49150503d806000811461080b576040519150601f19603f3d011682016040523d82523d6000602084013e610810565b606091505b5091509150816108235761082381610faa565b808484815181106108365761083661221b565b60200260200101819052505050808061084e9061229d565b915050610792565b505b92915050565b600054600160a01b900460ff16801561088157506000546001600160a01b031633145b61089d5760405162461bcd60e51b81526004016103e7906120d1565b6108a681610fe3565b50565b600054600160a01b900460ff1680156108cc57506000546001600160a01b031633145b6108e85760405162461bcd60e51b81526004016103e7906120d1565b6000805460ff60a01b19169055565b600061090c836001600160a01b03841661109e565b9392505050565b600061090c838361109e565b60008151116109405760405162461bcd60e51b81526004016103e7906122b6565b60005b8151811015610a285760008282815181106109605761096061221b565b60200260200101516001600160e01b03191690506109ab8160046000876001600160a01b03166001600160a01b0316815260200190815260200160002061091390919063ffffffff16565b15610a1557336001600160a01b03168383815181106109cc576109cc61221b565b60200260200101516001600160e01b031916856001600160a01b03167f246b022c673a2751245f84dced77afcce61bcd820ff1235276e8c1c242a78f7460405160405180910390a45b5080610a208161229d565b915050610943565b506105d96002836108f7565b6001600160a01b0382811660008181526005602052604080822080546001600160a01b031916948616948517905551339392917f09a226cf85d5c3f9bf762d15f165b63b555418743ec5a33495c22ef0f9240bc591a45050565b6060600061090c836110ed565b6040805180820190915260008152606060208201526104e1610ac06020840184611e3f565b610ad06040850160208601611e3f565b610add6060860186612231565b8660400135611149565b60005b815181101561053257610b15828281518110610b0857610b0861221b565b6020026020010151611336565b80610b1f8161229d565b915050610aea565b6000815111610b485760405162461bcd60e51b81526004016103e7906122b6565b60005b8151811015610c6d576000828281518110610b6857610b6861221b565b6020908102919091018101518051908201206001600160a01b0386166000908152600490925260409091209091506001600160e01b0319821690610bac9082611557565b15610c5857336001600160a01b0316856001600160a01b03167ffed6cf2efef20378e90c3b71c30db7338ca98f5e50e3bf7c8467d8d062512ac2868681518110610bf857610bf861221b565b6020026020010151604051610c0d9190611e2c565b60405180910390a360405133906001600160e01b03198416906001600160a01b038816907fedfbd30ca95f1e16901a73aea7daddbbbcd26a1ff975301743208f1c3badfeb190600090a45b50508080610c659061229d565b915050610b4b565b506001600160a01b0382166000908152600460205260409020610c8f90611563565b600003610532576001600160a01b038216600090815260056020526040902080546001600160a01b03191690556105d960028361156d565b60005b815181101561053257610cf5828281518110610ce857610ce861221b565b6020026020010151611582565b80610cff8161229d565b915050610cca565b80610d245760405162461bcd60e51b81526004016103e7906122b6565b60005b81811015610e0a576000838383818110610d4357610d4361221b565b9050602002016020810190610d5891906122fb565b6001600160a01b03861660009081526004602052604090206001600160e01b0319919091169150610d899082611557565b15610df75733848484818110610da157610da161221b565b9050602002016020810190610db691906122fb565b6001600160e01b031916866001600160a01b03167fedfbd30ca95f1e16901a73aea7daddbbbcd26a1ff975301743208f1c3badfeb160405160405180910390a45b5080610e028161229d565b915050610d27565b506001600160a01b0383166000908152600460205260409020610e2c90611563565b6000036105d9576001600160a01b038316600090815260056020526040902080546001600160a01b031916905561044660028461156d565b6000815111610e855760405162461bcd60e51b81526004016103e7906122b6565b60005b8151811015610a28576000828281518110610ea557610ea561221b565b6020908102919091018101518051908201206001600160a01b0386166000908152600490925260409091209091506001600160e01b0319821690610ee99082610913565b15610f9557336001600160a01b0316856001600160a01b03167f5c55717c3268b2c739eb5087e22a9bcf39b0d4f5a8ab89b4fff9cfe5711e4b34868681518110610f3557610f3561221b565b6020026020010151604051610f4a9190611e2c565b60405180910390a360405133906001600160e01b03198416906001600160a01b038816907f246b022c673a2751245f84dced77afcce61bcd820ff1235276e8c1c242a78f7490600090a45b50508080610fa29061229d565b915050610e88565b600080610fb683611776565b915091508015610fda578160405162461bcd60e51b81526004016103e79190611e2c565b6105d983611806565b6001600160a01b03811661104e5760405162461bcd60e51b815260206004820152602c60248201527f476f7665726e61626c653a206e657720676f7665726e6f72206973207468652060448201526b7a65726f206164647265737360a01b60648201526084016103e7565b600080546001600160a01b038381166001600160a01b0319831681178455604051919092169283917f1ba669d4a78521f2ad26e8e0fcbcdd626a63f34d68f326bc232a3abe2a5d042a9190a35050565b60008181526001830160205260408120546110e557508154600181810184556000848152602080822090930184905584548482528286019093526040902091909155610858565b506000610858565b60608160000180548060200260200160405190810160405280929190818152602001828054801561113d57602002820191906000526020600020905b815481526020019060010190808311611129575b50505050509050919050565b604080518082019091526000815260606020820152600083900361117857611171858361180f565b905061132d565b60048310156111a75760008152604080516060810190915260258082526125a16020830139602082015261132d565b6000843590507f00000000000000000000000000000000000000000000000000000000000000006001600160a01b0316866001600160a01b0316148015611226575060408051808201909152601081526f6d756c746953656e642862797465732960801b6020909101526001600160e01b031981166346c07f8560e11b145b1561123f57611238878787878761184b565b915061132b565b6112498682611916565b1561130957600182526001600160a01b038681166000908152600560205260409020541615611303576001600160a01b038087166000908152600560205260409081902054905163e558cba160e01b815291169063e558cba1906112b9908a908a908a908a908a90600401612325565b6000604051808303816000875af11580156112d8573d6000803e3d6000fd5b505050506040513d6000823e601f3d908101601f1916820160405261130091908101906123bd565b91505b5061132d565b600082526040805160608101909152602b8082526125c6602083013960208301525b505b95945050505050565b8051602082015160005b815181101561140a5761139982828151811061135e5761135e61221b565b6020026020010151600a6000866001600160a01b03166001600160a01b0316815260200190815260200160002061156d90919063ffffffff16565b156113f8578181815181106113b0576113b061221b565b60200260200101516001600160a01b0316836001600160a01b03167ff9379a04548d43557a3776d3a8d84c311dc0f769747526985c7b020600e6f15660405160405180910390a35b806114028161229d565b915050611340565b506001600160a01b0382166000908152600a6020526040902061142c90611563565b6000036105d95761143e60088361156d565b156105d95761151e826007805480602002602001604051908101604052809291908181526020016000905b8282101561151557838290600052602060002001805461148890612441565b80601f01602080910402602001604051908101604052809291908181526020018280546114b490612441565b80156115015780601f106114d657610100808354040283529160200191611501565b820191906000526020600020905b8154815290600101906020018083116114e457829003601f168201915b505050505081526020019060010190611469565b50505050610b27565b6040516001600160a01b038316907f4c910b69fe65a61f7531b9c5042b2329ca7179c77290aa7e2eb3afa3c8511fd390600090a2505050565b600061090c8383611942565b60006104e1825490565b600061090c836001600160a01b038416611942565b805160208201516115946008836108f7565b156116a957611674826007805480602002602001604051908101604052809291908181526020016000905b8282101561166b5783829060005260206000200180546115de90612441565b80601f016020809104026020016040519081016040528092919081815260200182805461160a90612441565b80156116575780601f1061162c57610100808354040283529160200191611657565b820191906000526020600020905b81548152906001019060200180831161163a57829003601f168201915b5050505050815260200190600101906115bf565b50505050610e64565b6040516001600160a01b038316907f784c8f4dbf0ffedd6e72c76501c545a70f8b203b30a26ce542bf92ba87c248a490600090a25b60005b8151811015610446576117058282815181106116ca576116ca61221b565b6020026020010151600a6000866001600160a01b03166001600160a01b031681526020019081526020016000206108f790919063ffffffff16565b156117645781818151811061171c5761171c61221b565b60200260200101516001600160a01b0316836001600160a01b03167ff9379a04548d43557a3776d3a8d84c311dc0f769747526985c7b020600e6f15660405160405180910390a35b8061176e8161229d565b9150506116ac565b6060600060448351101561179d575050604080516020810190915260008082529092909150565b60006117aa846020015190565b90506307b9e43360e51b6001600160e01b03198216016117e957600484019350838060200190518101906117de919061247b565b946001945092505050565b600060405180602001604052806000815250909250925050915091565b80518060208301fd5b60408051808201909152600081526060602082015260008152604080516060810190915260388082526125696020830139602082015292915050565b60408051808201909152600081526060602082015260006118706044602486886124af565b611879916124d9565b90503660008660448761188c86836124f7565b92611899939291906124af565b9150915060005b8181101561190557600080366000806118ba888888611a35565b9398509196509450925090506001600160a01b038516156118f9576118e28f86858588611149565b8051909a506118f95750505050505050505061132d565b94506118a09350505050565b505060018352505095945050505050565b6001600160a01b038216600090815260046020526040812061090c906001600160e01b03198416611b86565b60008181526001830160205260408120548015611a2b57600061196660018361250a565b855490915060009061197a9060019061250a565b90508181146119df57600086600001828154811061199a5761199a61221b565b90600052602060002001549050808760000184815481106119bd576119bd61221b565b6000918252602080832090910192909255918252600188019052604090208390555b85548690806119f0576119f061251d565b600190038181906000526020600020016000905590558560010160008681526020019081526020016000206000905560019350505050610858565b6000915050610858565b600080368180806001611a4881836124f7565b9150601490508989611a5a848b6124f7565b9083611a66868d6124f7565b611a7091906124f7565b92611a7d939291906124af565b611a8691612533565b60601c9650611a9581836124f7565b9150602090508989611aa7848b6124f7565b9083611ab3868d6124f7565b611abd91906124f7565b92611aca939291906124af565b611ad3916124d9565b9550611adf81836124f7565b91506020905060008a8a611af3858c6124f7565b9084611aff878e6124f7565b611b0991906124f7565b92611b16939291906124af565b611b1f916124d9565b9050611b2b82846124f7565b92508a8a611b39858c6124f7565b9083611b45878e6124f7565b611b4f91906124f7565b92611b5c939291906124af565b909650945080611b6c848b6124f7565b611b7691906124f7565b9350505050939792965093509350565b6000818152600183016020526040812054151561090c565b80356001600160a01b03811681146104e457600080fd5b60008083601f840112611bc757600080fd5b5081356001600160401b03811115611bde57600080fd5b6020830191508360208260051b8501011115611bf957600080fd5b9250929050565b60008060008060608587031215611c1657600080fd5b611c1f85611b9e565b9350611c2d60208601611b9e565b925060408501356001600160401b03811115611c4857600080fd5b611c5487828801611bb5565b95989497509550505050565b6020808252825182820181905260009190848201906040850190845b81811015611ca15783516001600160a01b031683529284019291840191600101611c7c565b50909695505050505050565b600060208284031215611cbf57600080fd5b81356001600160401b03811115611cd557600080fd5b82016080818503121561090c57600080fd5b60005b83811015611d02578181015183820152602001611cea565b50506000910152565b60008151808452611d23816020860160208601611ce7565b601f01601f19169290920160200192915050565b6020815281511515602082015260006020830151604080840152611d5e6060840182611d0b565b949350505050565b60008060408385031215611d7957600080fd5b611d8283611b9e565b9150611d9060208401611b9e565b90509250929050565b60008060208385031215611dac57600080fd5b82356001600160401b03811115611dc257600080fd5b611dce85828601611bb5565b90969095509350505050565b600080600060408486031215611def57600080fd5b611df884611b9e565b925060208401356001600160401b03811115611e1357600080fd5b611e1f86828701611bb5565b9497909650939450505050565b60208152600061090c6020830184611d0b565b600060208284031215611e5157600080fd5b61090c82611b9e565b6020808252825182820181905260009190848201906040850190845b81811015611ca157835183529284019291840191600101611e76565b634e487b7160e01b600052604160045260246000fd5b604080519081016001600160401b0381118282101715611eca57611eca611e92565b60405290565b604051601f8201601f191681016001600160401b0381118282101715611ef857611ef8611e92565b604052919050565b60006001600160401b03821115611f1957611f19611e92565b5060051b60200190565b60006001600160401b03821115611f3c57611f3c611e92565b50601f01601f191660200190565b6000611f5d611f5884611f00565b611ed0565b8381529050602080820190600585901b840186811115611f7c57600080fd5b845b81811015611ff35780356001600160401b03811115611f9d5760008081fd5b8601601f81018913611faf5760008081fd5b8035611fbd611f5882611f23565b8181528a86838501011115611fd25760008081fd5b81868401878301376000918101860191909152855250928201928201611f7e565b505050509392505050565b60008060006060848603121561201357600080fd5b61201c84611b9e565b925061202a60208501611b9e565b915060408401356001600160401b0381111561204557600080fd5b8401601f8101861361205657600080fd5b61206586823560208401611f4a565b9150509250925092565b6000602080830181845280855180835260408601915060408160051b870101925083870160005b828110156120c457603f198886030184526120b2858351611d0b565b94509285019290850190600101612096565b5092979650505050505050565b60208082526019908201527f476f7665726e61626c653a206f6e6c7920676f7665726e6f7200000000000000604082015260600190565b6000612116611f5884611f00565b83815260208082019190600586811b86013681111561213457600080fd5b865b818110156120c45780356001600160401b03808211156121565760008081fd5b818a0191506040823603121561216c5760008081fd5b612174611ea8565b61217d83611b9e565b815286830135828111156121915760008081fd5b929092019136601f8401126121a857600091508182fd5b823591506121b8611f5883611f00565b82815291861b830187019187810190368411156121d55760008081fd5b938801935b838510156121fa576121eb85611b9e565b825293880193908801906121da565b828901525088525050948301948301612136565b600061090c368484611f4a565b634e487b7160e01b600052603260045260246000fd5b6000808335601e1984360301811261224857600080fd5b8301803591506001600160401b0382111561226257600080fd5b602001915036819003821315611bf957600080fd5b8183823760009101908152919050565b634e487b7160e01b600052601160045260246000fd5b6000600182016122af576122af612287565b5060010190565b60208082526025908201527f46756e6374696f6e417574686f72697a6174696f6e3a20656d7074792066756e60408201526418d31a5cdd60da1b606082015260800190565b60006020828403121561230d57600080fd5b81356001600160e01b03198116811461090c57600080fd5b6001600160a01b0386811682528516602082015260806040820181905281018390526000838560a0840137600060a0858401015260a0601f19601f86011683010190508260608301529695505050505050565b600082601f83011261238957600080fd5b8151612397611f5882611f23565b8181528460208386010111156123ac57600080fd5b611d5e826020830160208701611ce7565b6000602082840312156123cf57600080fd5b81516001600160401b03808211156123e657600080fd5b90830190604082860312156123fa57600080fd5b612402611ea8565b8251801515811461241257600080fd5b815260208301518281111561242657600080fd5b61243287828601612378565b60208301525095945050505050565b600181811c9082168061245557607f821691505b60208210810361247557634e487b7160e01b600052602260045260246000fd5b50919050565b60006020828403121561248d57600080fd5b81516001600160401b038111156124a357600080fd5b611d5e84828501612378565b600080858511156124bf57600080fd5b838611156124cc57600080fd5b5050820193919092039150565b8035602083101561085857600019602084900360031b1b1692915050565b8082018082111561085857610858612287565b8181038181111561085857610858612287565b634e487b7160e01b600052603160045260246000fd5b6bffffffffffffffffffffffff1981358181169160148510156125605780818660140360031b1b83161692505b50509291505056fe46756e6374696f6e417574686f72697a6174696f6e3a206e617469766520746f6b656e207472616e73666572206e6f7420616c6c6f77656446756e6374696f6e417574686f72697a6174696f6e3a20696e76616c69642074784461746146756e6374696f6e417574686f72697a6174696f6e3a206e6f7420616c6c6f7765642066756e6374696f6e536f6c765661756c7447756172645f4552433230417070726f7665417574686f72697a6174696f6ea2646970667358221220eb1ba3948cc6784b2fe88a5ddbf6093751a479832b2c8b94a58506e48761713164736f6c63430008110033696e637265617365416c6c6f77616e636528616464726573732c75696e74323536296465637265617365416c6c6f77616e636528616464726573732c75696e7432353629",
  "devdoc": {
    "kind": "dev",
    "methods": {
      "multicall(bytes[])": {
        "details": "Receives and executes a batch of function calls on this contract."
      }
    },
    "version": 1
  },
  "userdoc": {
    "kind": "user",
    "methods": {},
    "version": 1
  },
  "storageLayout": {
    "storage": [
      {
        "astId": 5712,
        "contract": "src/authorizations/ERC20ApproveAuthorization.sol:ERC20ApproveAuthorization",
        "label": "governor",
        "offset": 0,
        "slot": "0",
        "type": "t_address"
      },
      {
        "astId": 5715,
        "contract": "src/authorizations/ERC20ApproveAuthorization.sol:ERC20ApproveAuthorization",
        "label": "governanceAllowed",
        "offset": 20,
        "slot": "0",
        "type": "t_bool"
      },
      {
        "astId": 3957,
        "contract": "src/authorizations/ERC20ApproveAuthorization.sol:ERC20ApproveAuthorization",
        "label": "caller",
        "offset": 0,
        "slot": "1",
        "type": "t_address"
      },
      {
        "astId": 4088,
        "contract": "src/authorizations/ERC20ApproveAuthorization.sol:ERC20ApproveAuthorization",
        "label": "_contracts",
        "offset": 0,
        "slot": "2",
        "type": "t_struct(AddressSet)325_storage"
      },
      {
        "astId": 4093,
        "contract": "src/authorizations/ERC20ApproveAuthorization.sol:ERC20ApproveAuthorization",
        "label": "_allowedContractToFunctions",
        "offset": 0,
        "slot": "4",
        "type": "t_mapping(t_address,t_struct(Bytes32Set)204_storage)"
      },
      {
        "astId": 4097,
        "contract": "src/authorizations/ERC20ApproveAuthorization.sol:ERC20ApproveAuthorization",
        "label": "_contractACL",
        "offset": 0,
        "slot": "5",
        "type": "t_mapping(t_address,t_address)"
      },
      {
        "astId": 982,
        "contract": "src/authorizations/ERC20ApproveAuthorization.sol:ERC20ApproveAuthorization",
        "label": "safeAccount",
        "offset": 0,
        "slot": "6",
        "type": "t_address"
      },
      {
        "astId": 985,
        "contract": "src/authorizations/ERC20ApproveAuthorization.sol:ERC20ApproveAuthorization",
        "label": "_approveFuncs",
        "offset": 0,
        "slot": "7",
        "type": "t_array(t_string_storage)dyn_storage"
      },
      {
        "astId": 988,
        "contract": "src/authorizations/ERC20ApproveAuthorization.sol:ERC20ApproveAuthorization",
        "label": "_tokenSet",
        "offset": 0,
        "slot": "8",
        "type": "t_struct(AddressSet)325_storage"
      },
      {
        "astId": 993,
        "contract": "src/authorizations/ERC20ApproveAuthorization.sol:ERC20ApproveAuthorization",
        "label": "_allowedTokenSpenders",
        "offset": 0,
        "slot": "10",
        "type": "t_mapping(t_address,t_struct(AddressSet)325_storage)"
      }
    ],
    "types": {
      "t_address": {
        "encoding": "inplace",
        "label": "address",
        "numberOfBytes": "20"
      },
      "t_array(t_bytes32)dyn_storage": {
        "base": "t_bytes32",
        "encoding": "dynamic_array",
        "label": "bytes32[]",
        "numberOfBytes": "32"
      },
      "t_array(t_string_storage)dyn_storage": {
        "base": "t_string_storage",
        "encoding": "dynamic_array",
        "label": "string[]",
        "numberOfBytes": "32"
      },
      "t_bool": {
        "encoding": "inplace",
        "label": "bool",
        "numberOfBytes": "1"
      },
      "t_bytes32": {
        "encoding": "inplace",
        "label": "bytes32",
        "numberOfBytes": "32"
      },
      "t_mapping(t_address,t_address)": {
        "encoding": "mapping",
        "key": "t_address",
        "label": "mapping(address => address)",
        "numberOfBytes": "32",
        "value": "t_address"
      },
      "t_mapping(t_address,t_struct(AddressSet)325_storage)": {
        "encoding": "mapping",
        "key": "t_address",
        "label": "mapping(address => struct EnumerableSet.AddressSet)",
        "numberOfBytes": "32",
        "value": "t_struct(AddressSet)325_storage"
      },
      "t_mapping(t_address,t_struct(Bytes32Set)204_storage)": {
        "encoding": "mapping",
        "key": "t_address",
        "label": "mapping(address => struct EnumerableSet.Bytes32Set)",
        "numberOfBytes": "32",
        "value": "t_struct(Bytes32Set)204_storage"
      },
      "t_mapping(t_bytes32,t_uint256)": {
        "encoding": "mapping",
        "key": "t_bytes32",
        "label": "mapping(bytes32 => uint256)",
        "numberOfBytes": "32",
        "value": "t_uint256"
      },
      "t_string_storage": {
        "encoding": "bytes",
        "label": "string",
        "numberOfBytes": "32"
      },
      "t_struct(AddressSet)325_storage": {
        "encoding": "inplace",
        "label": "struct EnumerableSet.AddressSet",
        "members": [
          {
            "astId": 324,
            "contract": "src/authorizations/ERC20ApproveAuthorization.sol:ERC20ApproveAuthorization",
            "label": "_inner",
            "offset": 0,
            "slot": "0",
            "type": "t_struct(Set)10_storage"
          }
        ],
        "numberOfBytes": "64"
      },
      "t_struct(Bytes32Set)204_storage": {
        "encoding": "inplace",
        "label": "struct EnumerableSet.Bytes32Set",
        "members": [
          {
            "astId": 203,
            "contract": "src/authorizations/ERC20ApproveAuthorization.sol:ERC20ApproveAuthorization",
            "label": "_inner",
            "offset": 0,
            "slot": "0",
            "type": "t_struct(Set)10_storage"
          }
        ],
        "numberOfBytes": "64"
      },
      "t_struct(Set)10_storage": {
        "encoding": "inplace",
        "label": "struct EnumerableSet.Set",
        "members": [
          {
            "astId": 5,
            "contract": "src/authorizations/ERC20ApproveAuthorization.sol:ERC20ApproveAuthorization",
            "label": "_values",
            "offset": 0,
            "slot": "0",
            "type": "t_array(t_bytes32)dyn_storage"
          },
          {
            "astId": 9,
            "contract": "src/authorizations/ERC20ApproveAuthorization.sol:ERC20ApproveAuthorization",
            "label": "_indexes",
            "offset": 0,
            "slot": "1",
            "type": "t_mapping(t_bytes32,t_uint256)"
          }
        ],
        "numberOfBytes": "64"
      },
      "t_uint256": {
        "encoding": "inplace",
        "label": "uint256",
        "numberOfBytes": "32"
      }
    }
  }
}