{
  "address": "0x21878033F81aC58737F65DCa9cbb2F371370bE2A",
  "abi": [
    {
      "inputs": [
        {
          "internalType": "address",
          "name": "safeMultiSendContract_",
          "type": "address"
        },
        {
          "internalType": "address",
          "name": "caller_",
          "type": "address"
        },
        {
          "internalType": "address",
          "name": "safeAccount_",
          "type": "address"
        },
        {
          "internalType": "address",
          "name": "agniSwapRouter_",
          "type": "address"
        },
        {
          "internalType": "address[]",
          "name": "swapTokenWhitelist_",
          "type": "address[]"
        }
      ],
      "stateMutability": "nonpayable",
      "type": "constructor"
    },
    {
      "anonymous": false,
      "inputs": [
        {
          "indexed": true,
          "internalType": "address",
          "name": "contract_",
          "type": "address"
        },
        {
          "indexed": false,
          "internalType": "string",
          "name": "func_",
          "type": "string"
        },
        {
          "indexed": true,
          "internalType": "address",
          "name": "sender_",
          "type": "address"
        }
      ],
      "name": "AddContractFunc",
      "type": "event"
    },
    {
      "anonymous": false,
      "inputs": [
        {
          "indexed": true,
          "internalType": "address",
          "name": "contract_",
          "type": "address"
        },
        {
          "indexed": true,
          "internalType": "bytes4",
          "name": "funcSig_",
          "type": "bytes4"
        },
        {
          "indexed": true,
          "internalType": "address",
          "name": "sender_",
          "type": "address"
        }
      ],
      "name": "AddContractFuncSig",
      "type": "event"
    },
    {
      "anonymous": false,
      "inputs": [
        {
          "indexed": true,
          "internalType": "address",
          "name": "previousGovernor",
          "type": "address"
        },
        {
          "indexed": true,
          "internalType": "address",
          "name": "newGovernor",
          "type": "address"
        }
      ],
      "name": "NewGovernor",
      "type": "event"
    },
    {
      "anonymous": false,
      "inputs": [
        {
          "indexed": true,
          "internalType": "address",
          "name": "contract_",
          "type": "address"
        },
        {
          "indexed": false,
          "internalType": "string",
          "name": "func_",
          "type": "string"
        },
        {
          "indexed": true,
          "internalType": "address",
          "name": "sender_",
          "type": "address"
        }
      ],
      "name": "RemoveContractFunc",
      "type": "event"
    },
    {
      "anonymous": false,
      "inputs": [
        {
          "indexed": true,
          "internalType": "address",
          "name": "contract_",
          "type": "address"
        },
        {
          "indexed": true,
          "internalType": "bytes4",
          "name": "funcSig_",
          "type": "bytes4"
        },
        {
          "indexed": true,
          "internalType": "address",
          "name": "sender_",
          "type": "address"
        }
      ],
      "name": "RemoveContractFuncSig",
      "type": "event"
    },
    {
      "anonymous": false,
      "inputs": [
        {
          "indexed": true,
          "internalType": "address",
          "name": "contract_",
          "type": "address"
        },
        {
          "indexed": true,
          "internalType": "address",
          "name": "acl_",
          "type": "address"
        },
        {
          "indexed": true,
          "internalType": "address",
          "name": "sender_",
          "type": "address"
        }
      ],
      "name": "SetContractACL",
      "type": "event"
    },
    {
      "stateMutability": "nonpayable",
      "type": "fallback"
    },
    {
      "inputs": [],
      "name": "NAME",
      "outputs": [
        {
          "internalType": "string",
          "name": "",
          "type": "string"
        }
      ],
      "stateMutability": "view",
      "type": "function"
    },
    {
      "inputs": [],
      "name": "SAFE_MULITSEND_FUNC_MULTI_SEND",
      "outputs": [
        {
          "internalType": "string",
          "name": "",
          "type": "string"
        }
      ],
      "stateMutability": "view",
      "type": "function"
    },
    {
      "inputs": [],
      "name": "VERSION",
      "outputs": [
        {
          "internalType": "uint256",
          "name": "",
          "type": "uint256"
        }
      ],
      "stateMutability": "view",
      "type": "function"
    },
    {
      "inputs": [
        {
          "internalType": "address",
          "name": "contract_",
          "type": "address"
        },
        {
          "internalType": "address",
          "name": "acl_",
          "type": "address"
        },
        {
          "internalType": "string[]",
          "name": "funcList_",
          "type": "string[]"
        }
      ],
      "name": "addContractFuncs",
      "outputs": [],
      "stateMutability": "nonpayable",
      "type": "function"
    },
    {
      "inputs": [
        {
          "internalType": "address",
          "name": "contract_",
          "type": "address"
        },
        {
          "internalType": "address",
          "name": "acl_",
          "type": "address"
        },
        {
          "internalType": "bytes4[]",
          "name": "funcSigList_",
          "type": "bytes4[]"
        }
      ],
      "name": "addContractFuncsSig",
      "outputs": [],
      "stateMutability": "nonpayable",
      "type": "function"
    },
    {
      "inputs": [
        {
          "components": [
            {
              "internalType": "address",
              "name": "from",
              "type": "address"
            },
            {
              "internalType": "address",
              "name": "to",
              "type": "address"
            },
            {
              "internalType": "uint256",
              "name": "value",
              "type": "uint256"
            },
            {
              "internalType": "bytes",
              "name": "data",
              "type": "bytes"
            }
          ],
          "internalType": "struct Type.TxData",
          "name": "txData_",
          "type": "tuple"
        }
      ],
      "name": "authorizationCheckTransaction",
      "outputs": [
        {
          "components": [
            {
              "internalType": "bool",
              "name": "success",
              "type": "bool"
            },
            {
              "internalType": "string",
              "name": "message",
              "type": "string"
            }
          ],
          "internalType": "struct Type.CheckResult",
          "name": "",
          "type": "tuple"
        }
      ],
      "stateMutability": "nonpayable",
      "type": "function"
    },
    {
      "inputs": [],
      "name": "caller",
      "outputs": [
        {
          "internalType": "address",
          "name": "",
          "type": "address"
        }
      ],
      "stateMutability": "view",
      "type": "function"
    },
    {
      "inputs": [],
      "name": "forbidGovernance",
      "outputs": [],
      "stateMutability": "nonpayable",
      "type": "function"
    },
    {
      "inputs": [
        {
          "internalType": "address",
          "name": "contract_",
          "type": "address"
        }
      ],
      "name": "getACLByContract",
      "outputs": [
        {
          "internalType": "address",
          "name": "",
          "type": "address"
        }
      ],
      "stateMutability": "view",
      "type": "function"
    },
    {
      "inputs": [],
      "name": "getAllContracts",
      "outputs": [
        {
          "internalType": "address[]",
          "name": "",
          "type": "address[]"
        }
      ],
      "stateMutability": "view",
      "type": "function"
    },
    {
      "inputs": [
        {
          "internalType": "address",
          "name": "contract_",
          "type": "address"
        }
      ],
      "name": "getFunctionsByContract",
      "outputs": [
        {
          "internalType": "bytes32[]",
          "name": "",
          "type": "bytes32[]"
        }
      ],
      "stateMutability": "view",
      "type": "function"
    },
    {
      "inputs": [],
      "name": "governanceAllowed",
      "outputs": [
        {
          "internalType": "bool",
          "name": "",
          "type": "bool"
        }
      ],
      "stateMutability": "view",
      "type": "function"
    },
    {
      "inputs": [],
      "name": "governor",
      "outputs": [
        {
          "internalType": "address",
          "name": "",
          "type": "address"
        }
      ],
      "stateMutability": "view",
      "type": "function"
    },
    {
      "inputs": [
        {
          "internalType": "bytes[]",
          "name": "data",
          "type": "bytes[]"
        }
      ],
      "name": "multicall",
      "outputs": [
        {
          "internalType": "bytes[]",
          "name": "results",
          "type": "bytes[]"
        }
      ],
      "stateMutability": "nonpayable",
      "type": "function"
    },
    {
      "inputs": [
        {
          "internalType": "address",
          "name": "contract_",
          "type": "address"
        },
        {
          "internalType": "string[]",
          "name": "funcList_",
          "type": "string[]"
        }
      ],
      "name": "removeContractFuncs",
      "outputs": [],
      "stateMutability": "nonpayable",
      "type": "function"
    },
    {
      "inputs": [
        {
          "internalType": "address",
          "name": "contract_",
          "type": "address"
        },
        {
          "internalType": "bytes4[]",
          "name": "funcSigList_",
          "type": "bytes4[]"
        }
      ],
      "name": "removeContractFuncsSig",
      "outputs": [],
      "stateMutability": "nonpayable",
      "type": "function"
    },
    {
      "inputs": [],
      "name": "safeMultiSendContract",
      "outputs": [
        {
          "internalType": "address",
          "name": "",
          "type": "address"
        }
      ],
      "stateMutability": "view",
      "type": "function"
    },
    {
      "inputs": [
        {
          "internalType": "address",
          "name": "contract_",
          "type": "address"
        },
        {
          "internalType": "address",
          "name": "acl_",
          "type": "address"
        }
      ],
      "name": "setContractACL",
      "outputs": [],
      "stateMutability": "nonpayable",
      "type": "function"
    },
    {
      "inputs": [
        {
          "internalType": "address",
          "name": "newGovernor_",
          "type": "address"
        }
      ],
      "name": "transferGovernance",
      "outputs": [],
      "stateMutability": "nonpayable",
      "type": "function"
    }
  ],
  "transactionHash": "0x285a7f6ca306e1822998cc93664536473e474010c120d1d4d57062c13f1acc56",
  "args": [
    "0xA238CBeb142c10Ef7Ad8442C6D1f9E89e07e7761",
    "0xFa65d4D1bDeEDaA3C2E4d9D94dCE29c46ff846cd",
    "0x1Df764Dae64019414759a237A6725431FF73aa8f",
    "0x319B69888b0d11cEC22caA5034e25FfFBDc88421",
    [
      "0xdEAddEaDdeadDEadDEADDEAddEADDEAddead1111",
      "0xcDA86A272531e8640cD7F1a92c01839911B90bb0"
    ]
  ],
  "numDeployments": 1,
  "solcInputHash": "7e518348c3a3cf3c9fca1340d6fd04fa",
  "bytecode": "0x60a06040526000805460ff60a01b1916600160a01b1790553480156200002457600080fd5b5060405162003dd738038062003dd7833981016040819052620000479162000587565b8484856001600160a01b0316630c340a246040518163ffffffff1660e01b8152600401602060405180830381865afa15801562000088573d6000803e3d6000fd5b505050506040513d601f19601f82011682018060405250810190620000ae9190620006a7565b818180620000bc81620001f1565b5050600180546001600160a01b0319166001600160a01b0392831617905592909216608052505060408051600280825260608201909252600091602082015b6060815260200190600190039081620000fb57905050905060405180608001604052806052815260200162003d526052913981600081518110620001435762000143620006c5565b602002602001018190525060405180606001604052806033815260200162003da460339139816001815181106200017e576200017e620006c5565b6020908102919091010152620001958382620002b2565b600030858585604051620001a99062000546565b620001b89493929190620006db565b604051809103906000f080158015620001d5573d6000803e3d6000fd5b509050620001e4848262000471565b50505050505050620007c1565b6001600160a01b038116620002625760405162461bcd60e51b815260206004820152602c60248201527f476f7665726e61626c653a206e657720676f7665726e6f72206973207468652060448201526b7a65726f206164647265737360a01b60648201526084015b60405180910390fd5b600080546001600160a01b038381166001600160a01b0319831681178455604051919092169283917f1ba669d4a78521f2ad26e8e0fcbcdd626a63f34d68f326bc232a3abe2a5d042a9190a35050565b6000815111620003135760405162461bcd60e51b815260206004820152602560248201527f46756e6374696f6e417574686f72697a6174696f6e3a20656d7074792066756e60448201526418d31a5cdd60da1b606482015260840162000259565b60005b815181101562000450576000828281518110620003375762000337620006c5565b6020908102919091018101518051908201206001600160a01b038616600090815260048352604090209092506001600160e01b031983169162000386919083906200079a620004cb821b17901c565b156200043857336001600160a01b0316856001600160a01b03167f5c55717c3268b2c739eb5087e22a9bcf39b0d4f5a8ab89b4fff9cfe5711e4b34868681518110620003d657620003d6620006c5565b6020026020010151604051620003ed919062000749565b60405180910390a360405133906001600160e01b03198416906001600160a01b038816907f246b022c673a2751245f84dced77afcce61bcd820ff1235276e8c1c242a78f7490600090a45b50508080620004479062000799565b91505062000316565b506200046c826002620004e260201b620007ad1790919060201c565b505050565b6001600160a01b0382811660008181526005602052604080822080546001600160a01b031916948616948517905551339392917f09a226cf85d5c3f9bf762d15f165b63b555418743ec5a33495c22ef0f9240bc591a45050565b6000620004d98383620004f4565b90505b92915050565b6000620004d9836001600160a01b0384165b60008181526001830160205260408120546200053d57508154600181810184556000848152602080822090930184905584548482528286019093526040902091909155620004dc565b506000620004dc565b611517806200283b83390190565b80516001600160a01b03811681146200056c57600080fd5b919050565b634e487b7160e01b600052604160045260246000fd5b600080600080600060a08688031215620005a057600080fd5b620005ab8662000554565b94506020620005bc81880162000554565b9450620005cc6040880162000554565b9350620005dc6060880162000554565b60808801519093506001600160401b0380821115620005fa57600080fd5b818901915089601f8301126200060f57600080fd5b81518181111562000624576200062462000571565b8060051b604051601f19603f830116810181811085821117156200064c576200064c62000571565b60405291825284820192508381018501918c8311156200066b57600080fd5b938501935b828510156200069457620006848562000554565b8452938501939285019262000670565b8096505050505050509295509295909350565b600060208284031215620006ba57600080fd5b620004d98262000554565b634e487b7160e01b600052603260045260246000fd5b60006080820160018060a01b03808816845260208188168186015281871660408601526080606086015282865180855260a087019150828801945060005b818110156200073957855185168352948301949183019160010162000719565b50909a9950505050505050505050565b600060208083528351808285015260005b8181101562000778578581018301518582016040015282016200075a565b506000604082860101526040601f19601f8301168501019250505092915050565b600060018201620007ba57634e487b7160e01b600052601160045260246000fd5b5060010190565b608051612057620007e4600039600081816101bd0152610fd201526120576000f3fe608060405234801561001057600080fd5b50600436106101185760003560e01c806370c2ded5116100a7578063ac9650d81161006e578063ac9650d8146102b9578063d38bfff4146102d9578063f486186d146102ec578063fc9c8d39146102f4578063ffa1ad741461030757005b806370c2ded51461023f57806394e9d0441461025f578063a2d9621014610272578063a3f4df7e14610285578063a3fb76a51461028d57005b806336a6c861116100eb57806336a6c86114610192578063476ed36d146101a557806352797b3e146101b85780635ce5fb0a146101df578063656abb9c1461020357005b80630c340a241461011a57806314fda0271461014a57806318d3ce961461015d5780633504a49f14610172575b005b60005461012d906001600160a01b031681565b6040516001600160a01b0390911681526020015b60405180910390f35b6101186101583660046116b7565b61031d565b6101656103c1565b6040516101419190611717565b610185610180366004611764565b6103d2565b60405161014191906117ee565b6101186101a036600461181d565b610452565b6101186101b3366004611850565b61049f565b61012d7f000000000000000000000000000000000000000000000000000000000000000081565b6000546101f390600160a01b900460ff1681565b6040519015158152602001610141565b6102326040518060400160405280601081526020016f6d756c746953656e642862797465732960801b81525081565b60405161014191906118a2565b61025261024d3660046118b5565b6104f6565b60405161014191906118d0565b61011861026d366004611850565b61051a565b610118610280366004611a46565b610564565b6102326105c6565b61012d61029b3660046118b5565b6001600160a01b039081166000908152600560205260409020541690565b6102cc6102c7366004611ab7565b6105e2565b6040516101419190611af8565b6101186102e73660046118b5565b610701565b61011861074c565b60015461012d906001600160a01b031681565b61030f600181565b604051908152602001610141565b600054600160a01b900460ff16801561034057506000546001600160a01b031633145b6103655760405162461bcd60e51b815260040161035c90611b5a565b60405180910390fd5b6103a2848383808060200260200160405190810160405280939291908181526020018383602002808284376000920191909152506107c292505050565b6001600160a01b038316156103bb576103bb84846108d7565b50505050565b60606103cd6002610931565b905090565b6040805180820190915260008152606060208201526001546001600160a01b031633146104415760405162461bcd60e51b815260206004820152601b60248201527f42617365417574686f72697a6174696f6e3a206f6e6c7953656c660000000000604482015260640161035c565b61044a8261093e565b90505b919050565b600054600160a01b900460ff16801561047557506000546001600160a01b031633145b6104915760405162461bcd60e51b815260040161035c90611b5a565b61049b82826108d7565b5050565b600054600160a01b900460ff1680156104c257506000546001600160a01b031633145b6104de5760405162461bcd60e51b815260040161035c90611b5a565b6104f1836104ec8385611b91565b61098a565b505050565b6001600160a01b038116600090815260046020526040902060609061044a90610931565b600054600160a01b900460ff16801561053d57506000546001600160a01b031633145b6105595760405162461bcd60e51b815260040161035c90611b5a565b6104f1838383610b2a565b600054600160a01b900460ff16801561058757506000546001600160a01b031633145b6105a35760405162461bcd60e51b815260040161035c90611b5a565b6105ad8382610c87565b6001600160a01b038216156104f1576104f183836108d7565b604051806060016040528060238152602001611fff6023913981565b6060816001600160401b038111156105fc576105fc611908565b60405190808252806020026020018201604052801561062f57816020015b606081526020019060019003908161061a5790505b50905060005b828110156106f9576000803086868581811061065357610653611b9e565b90506020028101906106659190611bb4565b604051610673929190611bfa565b600060405180830381855af49150503d80600081146106ae576040519150601f19603f3d011682016040523d82523d6000602084013e6106b3565b606091505b5091509150816106c6576106c681610dcd565b808484815181106106d9576106d9611b9e565b6020026020010181905250505080806106f190611c20565b915050610635565b505b92915050565b600054600160a01b900460ff16801561072457506000546001600160a01b031633145b6107405760405162461bcd60e51b815260040161035c90611b5a565b61074981610e06565b50565b600054600160a01b900460ff16801561076f57506000546001600160a01b031633145b61078b5760405162461bcd60e51b815260040161035c90611b5a565b6000805460ff60a01b19169055565b60006107a68383610ec1565b9392505050565b60006107a6836001600160a01b038416610ec1565b60008151116107e35760405162461bcd60e51b815260040161035c90611c39565b60005b81518110156108cb57600082828151811061080357610803611b9e565b60200260200101516001600160e01b031916905061084e8160046000876001600160a01b03166001600160a01b0316815260200190815260200160002061079a90919063ffffffff16565b156108b857336001600160a01b031683838151811061086f5761086f611b9e565b60200260200101516001600160e01b031916856001600160a01b03167f246b022c673a2751245f84dced77afcce61bcd820ff1235276e8c1c242a78f7460405160405180910390a45b50806108c381611c20565b9150506107e6565b506104f16002836107ad565b6001600160a01b0382811660008181526005602052604080822080546001600160a01b031916948616948517905551339392917f09a226cf85d5c3f9bf762d15f165b63b555418743ec5a33495c22ef0f9240bc591a45050565b606060006107a683610f10565b60408051808201909152600081526060602082015261044a61096360208401846118b5565b61097360408501602086016118b5565b6109806060860186611bb4565b8660400135610f6c565b60008151116109ab5760405162461bcd60e51b815260040161035c90611c39565b60005b8151811015610ad05760008282815181106109cb576109cb611b9e565b6020908102919091018101518051908201206001600160a01b0386166000908152600490925260409091209091506001600160e01b0319821690610a0f908261107d565b15610abb57336001600160a01b0316856001600160a01b03167ffed6cf2efef20378e90c3b71c30db7338ca98f5e50e3bf7c8467d8d062512ac2868681518110610a5b57610a5b611b9e565b6020026020010151604051610a7091906118a2565b60405180910390a360405133906001600160e01b03198416906001600160a01b038816907fedfbd30ca95f1e16901a73aea7daddbbbcd26a1ff975301743208f1c3badfeb190600090a45b50508080610ac890611c20565b9150506109ae565b506001600160a01b0382166000908152600460205260409020610af290611089565b60000361049b576001600160a01b038216600090815260056020526040902080546001600160a01b03191690556104f1600283611093565b80610b475760405162461bcd60e51b815260040161035c90611c39565b60005b81811015610c2d576000838383818110610b6657610b66611b9e565b9050602002016020810190610b7b9190611c7e565b6001600160a01b03861660009081526004602052604090206001600160e01b0319919091169150610bac908261107d565b15610c1a5733848484818110610bc457610bc4611b9e565b9050602002016020810190610bd99190611c7e565b6001600160e01b031916866001600160a01b03167fedfbd30ca95f1e16901a73aea7daddbbbcd26a1ff975301743208f1c3badfeb160405160405180910390a45b5080610c2581611c20565b915050610b4a565b506001600160a01b0383166000908152600460205260409020610c4f90611089565b6000036104f1576001600160a01b038316600090815260056020526040902080546001600160a01b03191690556103bb600284611093565b6000815111610ca85760405162461bcd60e51b815260040161035c90611c39565b60005b81518110156108cb576000828281518110610cc857610cc8611b9e565b6020908102919091018101518051908201206001600160a01b0386166000908152600490925260409091209091506001600160e01b0319821690610d0c908261079a565b15610db857336001600160a01b0316856001600160a01b03167f5c55717c3268b2c739eb5087e22a9bcf39b0d4f5a8ab89b4fff9cfe5711e4b34868681518110610d5857610d58611b9e565b6020026020010151604051610d6d91906118a2565b60405180910390a360405133906001600160e01b03198416906001600160a01b038816907f246b022c673a2751245f84dced77afcce61bcd820ff1235276e8c1c242a78f7490600090a45b50508080610dc590611c20565b915050610cab565b600080610dd9836110a8565b915091508015610dfd578160405162461bcd60e51b815260040161035c91906118a2565b6104f183611138565b6001600160a01b038116610e715760405162461bcd60e51b815260206004820152602c60248201527f476f7665726e61626c653a206e657720676f7665726e6f72206973207468652060448201526b7a65726f206164647265737360a01b606482015260840161035c565b600080546001600160a01b038381166001600160a01b0319831681178455604051919092169283917f1ba669d4a78521f2ad26e8e0fcbcdd626a63f34d68f326bc232a3abe2a5d042a9190a35050565b6000818152600183016020526040812054610f08575081546001818101845560008481526020808220909301849055845484825282860190935260409020919091556106fb565b5060006106fb565b606081600001805480602002602001604051908101604052809291908181526020018280548015610f6057602002820191906000526020600020905b815481526020019060010190808311610f4c575b50505050509050919050565b6040805180820190915260008152606060208201526000839003610f9b57610f948583611141565b9050611074565b6004831015610fca576000815260408051606081019091526025808252611faf60208301396020820152611074565b6000843590507f00000000000000000000000000000000000000000000000000000000000000006001600160a01b0316866001600160a01b0316148015611049575060408051808201909152601081526f6d756c746953656e642862797465732960801b6020909101526001600160e01b031981166346c07f8560e11b145b156110625761105b878787878761117d565b9150611072565b61106f8787878787611248565b91505b505b95945050505050565b60006107a683836113cb565b600061044a825490565b60006107a6836001600160a01b0384166113cb565b606060006044835110156110cf575050604080516020810190915260008082529092909150565b60006110dc846020015190565b90506307b9e43360e51b6001600160e01b031982160161111b57600484019350838060200190518101906111109190611cf7565b946001945092505050565b600060405180602001604052806000815250909250925050915091565b80518060208301fd5b6040805180820190915260008152606060208201526000815260408051606081019091526038808252611f776020830139602082015292915050565b60408051808201909152600081526060602082015260006111a2604460248688611d2b565b6111ab91611d55565b9050366000866044876111be8683611d73565b926111cb93929190611d2b565b9150915060005b8181101561123757600080366000806111ec8888886114be565b9398509196509450925090506001600160a01b0385161561122b576112148f86858588610f6c565b8051909a5061122b57505050505050505050611074565b94506111d29350505050565b505060018352505095945050505050565b6040805180820190915260008152606060208201528335611269868261160f565b156113a057600182526001600160a01b03868116600090815260056020526040902054161561139b576001600160a01b038087166000908152600560205260409081902054905163e558cba160e01b815291169063e558cba1906112d9908a908a908a908a908a90600401611d86565b6000604051808303816000875af192505050801561131957506040513d6000823e601f3d908101601f191682016040526113169190810190611dd9565b60015b61139257611325611e73565b806308c379a0036113525750611339611e8f565b806113445750611354565b600083526020830152611072565b505b3d80801561137e576040519150601f19603f3d011682016040523d82523d6000602084013e611383565b606091505b50600083526020830152611072565b91506110749050565b611072565b600082526040805160608101909152602b808252611fd4602083013960208301525095945050505050565b600081815260018301602052604081205480156114b45760006113ef600183611f18565b855490915060009061140390600190611f18565b905081811461146857600086600001828154811061142357611423611b9e565b906000526020600020015490508087600001848154811061144657611446611b9e565b6000918252602080832090910192909255918252600188019052604090208390555b855486908061147957611479611f2b565b6001900381819060005260206000200160009055905585600101600086815260200190815260200160002060009055600193505050506106fb565b60009150506106fb565b6000803681808060016114d18183611d73565b91506014905089896114e3848b611d73565b90836114ef868d611d73565b6114f99190611d73565b9261150693929190611d2b565b61150f91611f41565b60601c965061151e8183611d73565b9150602090508989611530848b611d73565b908361153c868d611d73565b6115469190611d73565b9261155393929190611d2b565b61155c91611d55565b95506115688183611d73565b91506020905060008a8a61157c858c611d73565b9084611588878e611d73565b6115929190611d73565b9261159f93929190611d2b565b6115a891611d55565b90506115b48284611d73565b92508a8a6115c2858c611d73565b90836115ce878e611d73565b6115d89190611d73565b926115e593929190611d2b565b9096509450806115f5848b611d73565b6115ff9190611d73565b9350505050939792965093509350565b6001600160a01b03821660009081526004602052604081206107a6906001600160e01b0319841660006107a6838360009081526001919091016020526040902054151590565b80356001600160a01b038116811461044d57600080fd5b60008083601f84011261167e57600080fd5b5081356001600160401b0381111561169557600080fd5b6020830191508360208260051b85010111156116b057600080fd5b9250929050565b600080600080606085870312156116cd57600080fd5b6116d685611655565b93506116e460208601611655565b925060408501356001600160401b038111156116ff57600080fd5b61170b8782880161166c565b95989497509550505050565b6020808252825182820181905260009190848201906040850190845b818110156117585783516001600160a01b031683529284019291840191600101611733565b50909695505050505050565b60006020828403121561177657600080fd5b81356001600160401b0381111561178c57600080fd5b8201608081850312156107a657600080fd5b60005b838110156117b95781810151838201526020016117a1565b50506000910152565b600081518084526117da81602086016020860161179e565b601f01601f19169290920160200192915050565b602081528151151560208201526000602083015160408084015261181560608401826117c2565b949350505050565b6000806040838503121561183057600080fd5b61183983611655565b915061184760208401611655565b90509250929050565b60008060006040848603121561186557600080fd5b61186e84611655565b925060208401356001600160401b0381111561188957600080fd5b6118958682870161166c565b9497909650939450505050565b6020815260006107a660208301846117c2565b6000602082840312156118c757600080fd5b6107a682611655565b6020808252825182820181905260009190848201906040850190845b81811015611758578351835292840192918401916001016118ec565b634e487b7160e01b600052604160045260246000fd5b601f8201601f191681016001600160401b038111828210171561194357611943611908565b6040525050565b60006001600160401b0382111561196357611963611908565b50601f01601f191660200190565b60006001600160401b038084111561198b5761198b611908565b8360051b6020604080516119a18385018261191e565b87815294509185019184828101898511156119bb57600080fd5b8791505b84821015611a39578135868111156119d75760008081fd5b8801601f81018b136119e95760008081fd5b80356119f48161194a565b8551611a00828261191e565b8281528d88848601011115611a1757600091508182fd5b82888501898301376000928101880192909252508252509083019083016119bf565b5050505050509392505050565b600080600060608486031215611a5b57600080fd5b611a6484611655565b9250611a7260208501611655565b915060408401356001600160401b03811115611a8d57600080fd5b8401601f81018613611a9e57600080fd5b611aad86823560208401611971565b9150509250925092565b60008060208385031215611aca57600080fd5b82356001600160401b03811115611ae057600080fd5b611aec8582860161166c565b90969095509350505050565b6000602080830181845280855180835260408601915060408160051b870101925083870160005b82811015611b4d57603f19888603018452611b3b8583516117c2565b94509285019290850190600101611b1f565b5092979650505050505050565b60208082526019908201527f476f7665726e61626c653a206f6e6c7920676f7665726e6f7200000000000000604082015260600190565b60006107a6368484611971565b634e487b7160e01b600052603260045260246000fd5b6000808335601e19843603018112611bcb57600080fd5b8301803591506001600160401b03821115611be557600080fd5b6020019150368190038213156116b057600080fd5b8183823760009101908152919050565b634e487b7160e01b600052601160045260246000fd5b600060018201611c3257611c32611c0a565b5060010190565b60208082526025908201527f46756e6374696f6e417574686f72697a6174696f6e3a20656d7074792066756e60408201526418d31a5cdd60da1b606082015260800190565b600060208284031215611c9057600080fd5b81356001600160e01b0319811681146107a657600080fd5b600082601f830112611cb957600080fd5b8151611cc48161194a565b604051611cd1828261191e565b828152856020848701011115611ce657600080fd5b61107483602083016020880161179e565b600060208284031215611d0957600080fd5b81516001600160401b03811115611d1f57600080fd5b61181584828501611ca8565b60008085851115611d3b57600080fd5b83861115611d4857600080fd5b5050820193919092039150565b803560208310156106fb57600019602084900360031b1b1692915050565b808201808211156106fb576106fb611c0a565b6001600160a01b0386811682528516602082015260806040820181905281018390526000838560a0840137600060a0858401015260a0601f19601f86011683010190508260608301529695505050505050565b600060208284031215611deb57600080fd5b81516001600160401b0380821115611e0257600080fd5b9083019060408286031215611e1657600080fd5b604051604081018181108382111715611e3157611e31611908565b60405282518015158114611e4457600080fd5b8152602083015182811115611e5857600080fd5b611e6487828601611ca8565b60208301525095945050505050565b600060033d1115611e8c5760046000803e5060005160e01c5b90565b600060443d1015611e9d5790565b6040516003193d81016004833e81513d6001600160401b038160248401118184111715611ecc57505050505090565b8285019150815181811115611ee45750505050505090565b843d8701016020828501011115611efe5750505050505090565b611f0d6020828601018761191e565b509095945050505050565b818103818111156106fb576106fb611c0a565b634e487b7160e01b600052603160045260246000fd5b6bffffffffffffffffffffffff198135818116916014851015611f6e5780818660140360031b1b83161692505b50509291505056fe46756e6374696f6e417574686f72697a6174696f6e3a206e617469766520746f6b656e207472616e73666572206e6f7420616c6c6f77656446756e6374696f6e417574686f72697a6174696f6e3a20696e76616c69642074784461746146756e6374696f6e417574686f72697a6174696f6e3a206e6f7420616c6c6f7765642066756e6374696f6e536f6c765661756c74477561726469616e5f41676e69417574686f72697a6174696f6ea2646970667358221220f0d30476017d31bf3cc6e74a58e1fbc22432095b3b99296f6d4c328c79b9033664736f6c6343000811003360806040523480156200001157600080fd5b506040516200151738038062001517833981016040819052620000349162000230565b600080546001600160a01b038087166001600160a01b03199283161783556001805487831690841617905560038054918616919092161790555b8151811015620000ba57620000a58282815181106200009157620000916200033b565b6020026020010151620000c560201b60201c565b80620000b18162000351565b9150506200006e565b505050505062000379565b6001600160a01b038116620001325760405162461bcd60e51b815260206004820152602960248201527f41676e6941434c3a20746f6b656e2063616e6e6f7420626520746865207a65726044820152686f206164647265737360b81b606482015260840160405180910390fd5b6200014d8160046200018b60201b6200052c1790919060201c565b1562000188576040516001600160a01b038216907f696f03b17e82a2b7870005be48510ff0ed54caa548569ca3e053b56fe8eb374d90600090a25b50565b6000620001a2836001600160a01b038416620001ab565b90505b92915050565b6000818152600183016020526040812054620001f457508154600181810184556000848152602080822090930184905584548482528286019093526040902091909155620001a5565b506000620001a5565b80516001600160a01b03811681146200021557600080fd5b919050565b634e487b7160e01b600052604160045260246000fd5b600080600080608085870312156200024757600080fd5b6200025285620001fd565b9350602062000263818701620001fd565b93506200027360408701620001fd565b60608701519093506001600160401b03808211156200029157600080fd5b818801915088601f830112620002a657600080fd5b815181811115620002bb57620002bb6200021a565b8060051b604051601f19603f83011681018181108582111715620002e357620002e36200021a565b60405291825284820192508381018501918b8311156200030257600080fd5b938501935b828510156200032b576200031b85620001fd565b8452938501939285019262000307565b989b979a50959850505050505050565b634e487b7160e01b600052603260045260246000fd5b6000600182016200037257634e487b7160e01b600052601160045260246000fd5b5060010190565b61118e80620003896000396000f3fe608060405234801561001057600080fd5b506004361061009e5760003560e01c8063c04b8d5911610066578063c04b8d5914610123578063e558cba114610136578063f1880b2414610156578063fc9c8d3914610179578063ffa1ad741461018c57600080fd5b80631576f83f146100a3578063248046f2146100d3578063414bf389146100e657806360eb23fb146100fb578063a3f4df7e1461010e575b600080fd5b6001546100b6906001600160a01b031681565b6040516001600160a01b0390911681526020015b60405180910390f35b6003546100b6906001600160a01b031681565b6100f96100f4366004610c20565b6101a2565b005b6002546100b6906001600160a01b031681565b6101166102df565b6040516100ca9190610c89565b6100f9610131366004610c9c565b6102fb565b610149610144366004610cf3565b6104a6565b6040516100ca9190610d89565b610169610164366004610db8565b610519565b60405190151581526020016100ca565b6000546100b6906001600160a01b031681565b610194600181565b6040519081526020016100ca565b6101aa610548565b6001546001600160a01b03166101c66080830160608401610db8565b6001600160a01b0316146102215760405162461bcd60e51b815260206004820152601e60248201527f41676e6941434c3a20726563697069656e74206e6f7420616c6c6f776564000060448201526064015b60405180910390fd5b6102316101646020830183610db8565b61027d5760405162461bcd60e51b815260206004820152601c60248201527f41676e6941434c3a20746f6b656e496e206e6f7420616c6c6f776564000000006044820152606401610218565b6102906101646040830160208401610db8565b6102dc5760405162461bcd60e51b815260206004820152601d60248201527f41676e6941434c3a20746f6b656e4f7574206e6f7420616c6c6f7765640000006044820152606401610218565b50565b6040518060600160405280602681526020016111336026913981565b610303610548565b6001546001600160a01b031661031f6040830160208401610db8565b6001600160a01b0316146103755760405162461bcd60e51b815260206004820152601e60248201527f41676e6941434c3a20726563697069656e74206e6f7420616c6c6f77656400006044820152606401610218565b60006103818280610dd3565b8080601f0160208091040260200160405190810160405280939291908181526020018383808284376000920191909152509293505050505b60006103c482610594565b90506000806103d2846105ce565b50915091506103e082610519565b61042c5760405162461bcd60e51b815260206004820152601c60248201527f41676e6941434c3a20746f6b656e496e206e6f7420616c6c6f776564000000006044820152606401610218565b61043581610519565b6104815760405162461bcd60e51b815260206004820152601d60248201527f41676e6941434c3a20746f6b656e4f7574206e6f7420616c6c6f7765640000006044820152606401610218565b8215610497576104908461060a565b935061049e565b5050505050565b5050506103b9565b6040805180820190915260008152606060208201526000546001600160a01b031633146105025760405162461bcd60e51b815260206004820152600a60248201526937b7363ca1b0b63632b960b11b6044820152606401610218565b61050f868686868661063b565b9695505050505050565b6000610526600483610734565b92915050565b6000610541836001600160a01b038416610756565b9392505050565b6105506107a5565b60400151156105925760405162461bcd60e51b815260206004820152600e60248201526d56616c7565206e6f74207a65726f60901b6044820152606401610218565b565b60006105a260036014610e37565b60146105af600382610e37565b6105b99190610e37565b6105c39190610e37565b825110159050919050565b600080806105dc84826107d5565b92506105e9846014610889565b90506106016105fa60036014610e37565b85906107d5565b91509193909250565b606061052661061b60036014610e37565b61062760036014610e37565b84516106339190610e4a565b849190610934565b604080518082019091526000815260606020820152600080306001600160a01b03166106cc60405180608001604052808b6001600160a01b031681526020018a6001600160a01b0316815260200187815260200189898080601f0160208091040260200160405190810160405280939291908181526020018383808284376000920191909152505050915250610a8b565b6040516106d99190610e5d565b600060405180830381855afa9150503d8060008114610714576040519150601f19603f3d011682016040523d82523d6000602084013e610719565b606091505b50915091506107288282610b03565b98975050505050505050565b6001600160a01b03811660009081526001830160205260408120541515610541565b600081815260018301602052604081205461079d57508154600181810184556000848152602080822090930184905584548482528286019093526040902091909155610526565b506000610526565b60408051608081018252600080825260208201819052918101919091526060808201526107d0610bb1565b905090565b6000816107e3816014610e37565b10156108265760405162461bcd60e51b8152602060048201526012602482015271746f416464726573735f6f766572666c6f7760701b6044820152606401610218565b610831826014610e37565b835110156108795760405162461bcd60e51b8152602060048201526015602482015274746f416464726573735f6f75744f66426f756e647360581b6044820152606401610218565b500160200151600160601b900490565b600081610897816003610e37565b10156108d95760405162461bcd60e51b8152602060048201526011602482015270746f55696e7432345f6f766572666c6f7760781b6044820152606401610218565b6108e4826003610e37565b8351101561092b5760405162461bcd60e51b8152602060048201526014602482015273746f55696e7432345f6f75744f66426f756e647360601b6044820152606401610218565b50016003015190565b60608161094281601f610e37565b10156109815760405162461bcd60e51b815260206004820152600e60248201526d736c6963655f6f766572666c6f7760901b6044820152606401610218565b8261098c8382610e37565b10156109cb5760405162461bcd60e51b815260206004820152600e60248201526d736c6963655f6f766572666c6f7760901b6044820152606401610218565b6109d58284610e37565b84511015610a195760405162461bcd60e51b8152602060048201526011602482015270736c6963655f6f75744f66426f756e647360781b6044820152606401610218565b606082158015610a385760405191506000825260208201604052610a82565b6040519150601f8416801560200281840101858101878315602002848b0101015b81831015610a71578051835260209283019201610a59565b5050858452601f01601f1916604052505b50949350505050565b6060600082604051602001610aa09190610e79565b60408051601f198184030181528282526060860151516020840152925060009101604051602081830303815290604052905083606001518282604051602001610aeb93929190610ebe565b60405160208183030381529060405292505050919050565b6040805180820190915260008152606060208201528215610b7657815115610b6d5760405162461bcd60e51b815260206004820152601d60248201527f41434c2046756e6374696f6e2072657475726e206e6f6e20656d7074790000006044820152606401610218565b60018152610526565b604482511015610b8c5760208101829052610526565b60048201915081806020019051810190610ba69190610f99565b602082015292915050565b60408051608081018252600080825260208201819052918101919091526060808201523660008082610be4602082610e4a565b610bf092859290611015565b810190610bfd919061103f565b9050610c0c3682816000611015565b810190610c199190611058565b9250505090565b60006101008284031215610c3357600080fd5b50919050565b60005b83811015610c54578181015183820152602001610c3c565b50506000910152565b60008151808452610c75816020860160208601610c39565b601f01601f19169290920160200192915050565b6020815260006105416020830184610c5d565b600060208284031215610cae57600080fd5b813567ffffffffffffffff811115610cc557600080fd5b820160a0818503121561054157600080fd5b80356001600160a01b0381168114610cee57600080fd5b919050565b600080600080600060808688031215610d0b57600080fd5b610d1486610cd7565b9450610d2260208701610cd7565b9350604086013567ffffffffffffffff80821115610d3f57600080fd5b818801915088601f830112610d5357600080fd5b813581811115610d6257600080fd5b896020828501011115610d7457600080fd5b96999598505060200195606001359392505050565b6020815281511515602082015260006020830151604080840152610db06060840182610c5d565b949350505050565b600060208284031215610dca57600080fd5b61054182610cd7565b6000808335601e19843603018112610dea57600080fd5b83018035915067ffffffffffffffff821115610e0557600080fd5b602001915036819003821315610e1a57600080fd5b9250929050565b634e487b7160e01b600052601160045260246000fd5b8082018082111561052657610526610e21565b8181038181111561052657610526610e21565b60008251610e6f818460208701610c39565b9190910192915050565b60208152600060018060a01b0380845116602084015280602085015116604084015250604083015160608301526060830151608080840152610db060a0840182610c5d565b60008451610ed0818460208901610c39565b845190830190610ee4818360208901610c39565b8451910190610ef7818360208801610c39565b0195945050505050565b634e487b7160e01b600052604160045260246000fd5b6040516080810167ffffffffffffffff81118282101715610f3a57610f3a610f01565b60405290565b604051601f8201601f1916810167ffffffffffffffff81118282101715610f6957610f69610f01565b604052919050565b600067ffffffffffffffff821115610f8b57610f8b610f01565b50601f01601f191660200190565b600060208284031215610fab57600080fd5b815167ffffffffffffffff811115610fc257600080fd5b8201601f81018413610fd357600080fd5b8051610fe6610fe182610f71565b610f40565b818152856020838501011115610ffb57600080fd5b61100c826020830160208601610c39565b95945050505050565b6000808585111561102557600080fd5b8386111561103257600080fd5b5050820193919092039150565b60006020828403121561105157600080fd5b5035919050565b6000602080838503121561106b57600080fd5b823567ffffffffffffffff8082111561108357600080fd5b908401906080828703121561109757600080fd5b61109f610f17565b6110a883610cd7565b81526110b5848401610cd7565b84820152604083013560408201526060830135828111156110d557600080fd5b80840193505086601f8401126110ea57600080fd5b823591506110fa610fe183610f71565b828152878584860101111561110e57600080fd5b8285850186830137600085848301015280606083015250809450505050509291505056fe536f6c765661756c74477561726469616e5f41676e69417574686f72697a6174696f6e41434ca2646970667358221220a182f32697012a5f0725bb7bb811117986a8fbe144c44935de48a61d849833d864736f6c634300081100336578616374496e70757453696e676c652828616464726573732c616464726573732c75696e7432342c616464726573732c75696e743235362c75696e743235362c75696e743235362c75696e7431363029296578616374496e707574282862797465732c616464726573732c75696e743235362c75696e743235362c75696e743235362929",
  "devdoc": {
    "kind": "dev",
    "methods": {
      "multicall(bytes[])": {
        "details": "Receives and executes a batch of function calls on this contract."
      }
    },
    "version": 1
  },
  "userdoc": {
    "kind": "user",
    "methods": {
      "constructor": {
        "notice": "On Mantle Agni SwapRouter: 0x319B69888b0d11cEC22caA5034e25FfFBDc88421"
      }
    },
    "version": 1
  },
  "storageLayout": {
    "storage": [
      {
        "astId": 7011,
        "contract": "src/authorizations/agni/AgniAuthorization.sol:AgniAuthorization",
        "label": "governor",
        "offset": 0,
        "slot": "0",
        "type": "t_address"
      },
      {
        "astId": 7014,
        "contract": "src/authorizations/agni/AgniAuthorization.sol:AgniAuthorization",
        "label": "governanceAllowed",
        "offset": 20,
        "slot": "0",
        "type": "t_bool"
      },
      {
        "astId": 4919,
        "contract": "src/authorizations/agni/AgniAuthorization.sol:AgniAuthorization",
        "label": "caller",
        "offset": 0,
        "slot": "1",
        "type": "t_address"
      },
      {
        "astId": 5050,
        "contract": "src/authorizations/agni/AgniAuthorization.sol:AgniAuthorization",
        "label": "_contracts",
        "offset": 0,
        "slot": "2",
        "type": "t_struct(AddressSet)325_storage"
      },
      {
        "astId": 5055,
        "contract": "src/authorizations/agni/AgniAuthorization.sol:AgniAuthorization",
        "label": "_allowedContractToFunctions",
        "offset": 0,
        "slot": "4",
        "type": "t_mapping(t_address,t_struct(Bytes32Set)204_storage)"
      },
      {
        "astId": 5059,
        "contract": "src/authorizations/agni/AgniAuthorization.sol:AgniAuthorization",
        "label": "_contractACL",
        "offset": 0,
        "slot": "5",
        "type": "t_mapping(t_address,t_address)"
      }
    ],
    "types": {
      "t_address": {
        "encoding": "inplace",
        "label": "address",
        "numberOfBytes": "20"
      },
      "t_array(t_bytes32)dyn_storage": {
        "base": "t_bytes32",
        "encoding": "dynamic_array",
        "label": "bytes32[]",
        "numberOfBytes": "32"
      },
      "t_bool": {
        "encoding": "inplace",
        "label": "bool",
        "numberOfBytes": "1"
      },
      "t_bytes32": {
        "encoding": "inplace",
        "label": "bytes32",
        "numberOfBytes": "32"
      },
      "t_mapping(t_address,t_address)": {
        "encoding": "mapping",
        "key": "t_address",
        "label": "mapping(address => address)",
        "numberOfBytes": "32",
        "value": "t_address"
      },
      "t_mapping(t_address,t_struct(Bytes32Set)204_storage)": {
        "encoding": "mapping",
        "key": "t_address",
        "label": "mapping(address => struct EnumerableSet.Bytes32Set)",
        "numberOfBytes": "32",
        "value": "t_struct(Bytes32Set)204_storage"
      },
      "t_mapping(t_bytes32,t_uint256)": {
        "encoding": "mapping",
        "key": "t_bytes32",
        "label": "mapping(bytes32 => uint256)",
        "numberOfBytes": "32",
        "value": "t_uint256"
      },
      "t_struct(AddressSet)325_storage": {
        "encoding": "inplace",
        "label": "struct EnumerableSet.AddressSet",
        "members": [
          {
            "astId": 324,
            "contract": "src/authorizations/agni/AgniAuthorization.sol:AgniAuthorization",
            "label": "_inner",
            "offset": 0,
            "slot": "0",
            "type": "t_struct(Set)10_storage"
          }
        ],
        "numberOfBytes": "64"
      },
      "t_struct(Bytes32Set)204_storage": {
        "encoding": "inplace",
        "label": "struct EnumerableSet.Bytes32Set",
        "members": [
          {
            "astId": 203,
            "contract": "src/authorizations/agni/AgniAuthorization.sol:AgniAuthorization",
            "label": "_inner",
            "offset": 0,
            "slot": "0",
            "type": "t_struct(Set)10_storage"
          }
        ],
        "numberOfBytes": "64"
      },
      "t_struct(Set)10_storage": {
        "encoding": "inplace",
        "label": "struct EnumerableSet.Set",
        "members": [
          {
            "astId": 5,
            "contract": "src/authorizations/agni/AgniAuthorization.sol:AgniAuthorization",
            "label": "_values",
            "offset": 0,
            "slot": "0",
            "type": "t_array(t_bytes32)dyn_storage"
          },
          {
            "astId": 9,
            "contract": "src/authorizations/agni/AgniAuthorization.sol:AgniAuthorization",
            "label": "_indexes",
            "offset": 0,
            "slot": "1",
            "type": "t_mapping(t_bytes32,t_uint256)"
          }
        ],
        "numberOfBytes": "64"
      },
      "t_uint256": {
        "encoding": "inplace",
        "label": "uint256",
        "numberOfBytes": "32"
      }
    }
  }
}