{
  "address": "0x69c6F32f5bC50eb74B12Cf7164a3EC3046734bD4",
  "abi": [
    {
      "inputs": [
        {
          "internalType": "address",
          "name": "caller_",
          "type": "address"
        },
        {
          "internalType": "address",
          "name": "openFundMarket_",
          "type": "address"
        },
        {
          "internalType": "bytes32[]",
          "name": "authorizedPoolIds_",
          "type": "bytes32[]"
        }
      ],
      "stateMutability": "nonpayable",
      "type": "constructor"
    },
    {
      "anonymous": false,
      "inputs": [
        {
          "indexed": true,
          "internalType": "address",
          "name": "contract_",
          "type": "address"
        },
        {
          "indexed": false,
          "internalType": "string",
          "name": "func_",
          "type": "string"
        },
        {
          "indexed": true,
          "internalType": "address",
          "name": "sender_",
          "type": "address"
        }
      ],
      "name": "AddContractFunc",
      "type": "event"
    },
    {
      "anonymous": false,
      "inputs": [
        {
          "indexed": true,
          "internalType": "address",
          "name": "contract_",
          "type": "address"
        },
        {
          "indexed": true,
          "internalType": "bytes4",
          "name": "funcSig_",
          "type": "bytes4"
        },
        {
          "indexed": true,
          "internalType": "address",
          "name": "sender_",
          "type": "address"
        }
      ],
      "name": "AddContractFuncSig",
      "type": "event"
    },
    {
      "anonymous": false,
      "inputs": [
        {
          "indexed": true,
          "internalType": "address",
          "name": "previousGovernor",
          "type": "address"
        },
        {
          "indexed": true,
          "internalType": "address",
          "name": "newGovernor",
          "type": "address"
        }
      ],
      "name": "NewGovernor",
      "type": "event"
    },
    {
      "anonymous": false,
      "inputs": [
        {
          "indexed": true,
          "internalType": "address",
          "name": "previousPendingGovernor",
          "type": "address"
        },
        {
          "indexed": true,
          "internalType": "address",
          "name": "newPendingGovernor",
          "type": "address"
        }
      ],
      "name": "NewPendingGovernor",
      "type": "event"
    },
    {
      "anonymous": false,
      "inputs": [
        {
          "indexed": true,
          "internalType": "address",
          "name": "contract_",
          "type": "address"
        },
        {
          "indexed": false,
          "internalType": "string",
          "name": "func_",
          "type": "string"
        },
        {
          "indexed": true,
          "internalType": "address",
          "name": "sender_",
          "type": "address"
        }
      ],
      "name": "RemoveContractFunc",
      "type": "event"
    },
    {
      "anonymous": false,
      "inputs": [
        {
          "indexed": true,
          "internalType": "address",
          "name": "contract_",
          "type": "address"
        },
        {
          "indexed": true,
          "internalType": "bytes4",
          "name": "funcSig_",
          "type": "bytes4"
        },
        {
          "indexed": true,
          "internalType": "address",
          "name": "sender_",
          "type": "address"
        }
      ],
      "name": "RemoveContractFuncSig",
      "type": "event"
    },
    {
      "anonymous": false,
      "inputs": [
        {
          "indexed": true,
          "internalType": "address",
          "name": "contract_",
          "type": "address"
        },
        {
          "indexed": true,
          "internalType": "address",
          "name": "acl_",
          "type": "address"
        },
        {
          "indexed": true,
          "internalType": "address",
          "name": "sender_",
          "type": "address"
        }
      ],
      "name": "SetContractACL",
      "type": "event"
    },
    {
      "stateMutability": "nonpayable",
      "type": "fallback"
    },
    {
      "inputs": [],
      "name": "MARKET_SET_REDEEM_NAV_FUNC",
      "outputs": [
        {
          "internalType": "string",
          "name": "",
          "type": "string"
        }
      ],
      "stateMutability": "view",
      "type": "function"
    },
    {
      "inputs": [],
      "name": "MARKET_SET_SUBSCRIBE_NAV_FUNC",
      "outputs": [
        {
          "internalType": "string",
          "name": "",
          "type": "string"
        }
      ],
      "stateMutability": "view",
      "type": "function"
    },
    {
      "inputs": [],
      "name": "NAME",
      "outputs": [
        {
          "internalType": "string",
          "name": "",
          "type": "string"
        }
      ],
      "stateMutability": "view",
      "type": "function"
    },
    {
      "inputs": [],
      "name": "VERSION",
      "outputs": [
        {
          "internalType": "int256",
          "name": "",
          "type": "int256"
        }
      ],
      "stateMutability": "view",
      "type": "function"
    },
    {
      "inputs": [],
      "name": "acceptGovernance",
      "outputs": [],
      "stateMutability": "nonpayable",
      "type": "function"
    },
    {
      "inputs": [
        {
          "components": [
            {
              "internalType": "address",
              "name": "from",
              "type": "address"
            },
            {
              "internalType": "address",
              "name": "to",
              "type": "address"
            },
            {
              "internalType": "uint256",
              "name": "value",
              "type": "uint256"
            },
            {
              "internalType": "bytes",
              "name": "data",
              "type": "bytes"
            }
          ],
          "internalType": "struct Type.TxData",
          "name": "txData_",
          "type": "tuple"
        }
      ],
      "name": "authorizationCheckTransaction",
      "outputs": [
        {
          "components": [
            {
              "internalType": "bool",
              "name": "success",
              "type": "bool"
            },
            {
              "internalType": "string",
              "name": "message",
              "type": "string"
            }
          ],
          "internalType": "struct Type.CheckResult",
          "name": "",
          "type": "tuple"
        }
      ],
      "stateMutability": "nonpayable",
      "type": "function"
    },
    {
      "inputs": [],
      "name": "caller",
      "outputs": [
        {
          "internalType": "address",
          "name": "",
          "type": "address"
        }
      ],
      "stateMutability": "view",
      "type": "function"
    },
    {
      "inputs": [],
      "name": "forbidGovernance",
      "outputs": [],
      "stateMutability": "nonpayable",
      "type": "function"
    },
    {
      "inputs": [
        {
          "internalType": "address",
          "name": "contract_",
          "type": "address"
        }
      ],
      "name": "getACLByContract",
      "outputs": [
        {
          "internalType": "address",
          "name": "",
          "type": "address"
        }
      ],
      "stateMutability": "view",
      "type": "function"
    },
    {
      "inputs": [],
      "name": "getAllContracts",
      "outputs": [
        {
          "internalType": "address[]",
          "name": "",
          "type": "address[]"
        }
      ],
      "stateMutability": "view",
      "type": "function"
    },
    {
      "inputs": [
        {
          "internalType": "address",
          "name": "contract_",
          "type": "address"
        }
      ],
      "name": "getFunctionsByContract",
      "outputs": [
        {
          "internalType": "bytes32[]",
          "name": "",
          "type": "bytes32[]"
        }
      ],
      "stateMutability": "view",
      "type": "function"
    },
    {
      "inputs": [],
      "name": "governanceAllowed",
      "outputs": [
        {
          "internalType": "bool",
          "name": "",
          "type": "bool"
        }
      ],
      "stateMutability": "view",
      "type": "function"
    },
    {
      "inputs": [],
      "name": "governor",
      "outputs": [
        {
          "internalType": "address",
          "name": "",
          "type": "address"
        }
      ],
      "stateMutability": "view",
      "type": "function"
    },
    {
      "inputs": [
        {
          "internalType": "bytes[]",
          "name": "data",
          "type": "bytes[]"
        }
      ],
      "name": "multicall",
      "outputs": [
        {
          "internalType": "bytes[]",
          "name": "results",
          "type": "bytes[]"
        }
      ],
      "stateMutability": "nonpayable",
      "type": "function"
    },
    {
      "inputs": [],
      "name": "pendingGovernor",
      "outputs": [
        {
          "internalType": "address",
          "name": "",
          "type": "address"
        }
      ],
      "stateMutability": "view",
      "type": "function"
    },
    {
      "inputs": [
        {
          "internalType": "bytes4",
          "name": "interfaceId",
          "type": "bytes4"
        }
      ],
      "name": "supportsInterface",
      "outputs": [
        {
          "internalType": "bool",
          "name": "",
          "type": "bool"
        }
      ],
      "stateMutability": "view",
      "type": "function"
    },
    {
      "inputs": [
        {
          "internalType": "address",
          "name": "newPendingGovernor_",
          "type": "address"
        }
      ],
      "name": "transferGovernance",
      "outputs": [],
      "stateMutability": "nonpayable",
      "type": "function"
    }
  ],
  "transactionHash": "0xf2c65b5417729772fcef2f18829e9a237ee67880b10b8232201c5bb703a1945a",
  "args": [
    "0x82fb74b8A26726226ACF8aAcC63A06017A247Eb6",
    "0x57bB6a8563a8e8478391C79F3F433C6BA077c567",
    [
      "0x2dc130e46b5958208155546bd4049d5b3319798063a8c4180b4b2b82f3ebdc3d",
      "0x716db7dc196abe78d5349c7166896f674ab978af26ada3e5b3ea74c5a1b48307",
      "0xdc0937dd33c4af08a08724da23bc45b33b43fbb23f365e7b50a536ce45f447ef",
      "0x23299b545056e9846725f89513e5d7f65a5034ab36515287ff8a27e860b1be75"
    ]
  ],
  "numDeployments": 1,
  "solcInputHash": "70cec12f2f197a9f9c14b46fd320d981",
  "bytecode": "0x60806040526001805460ff60a01b1916600160a01b1790553480156200002457600080fd5b5060405162002f0138038062002f0183398101604081905262000047916200065d565b82836001600160a01b0316630c340a246040518163ffffffff1660e01b8152600401602060405180830381865afa15801562000087573d6000803e3d6000fd5b505050506040513d601f19601f82011682018060405250810190620000ad91906200074e565b600080546001600160a01b0319166001600160a01b03831690811782556040518492849283929091907f1ba669d4a78521f2ad26e8e0fcbcdd626a63f34d68f326bc232a3abe2a5d042a908290a35050600280546001600160a01b0319166001600160a01b03929092169190911781556040805182815260608101909152600093509150602082015b60608152602001906001900390816200013657905050905060405180606001604052806028815260200162002eac60289139816000815181106200017e576200017e6200076c565b60200260200101819052506040518060600160405280602d815260200162002ed4602d913981600181518110620001b957620001b96200076c565b6020908102919091010152620001d0838262000222565b6200021883308585604051620001e6906200061c565b620001f49392919062000782565b604051809103906000f08015801562000211573d6000803e3d6000fd5b50620003ce565b5050505062000889565b6000815111620002875760405162461bcd60e51b815260206004820152602560248201527f46756e6374696f6e417574686f72697a6174696f6e3a20656d7074792066756e60448201526418d31a5cdd60da1b60648201526084015b60405180910390fd5b60005b8151811015620003bb576000828281518110620002ab57620002ab6200076c565b6020908102919091018101518051908201206001600160a01b0386166000908152600590925260409091209091506001600160e01b0319821690620002f1908262000579565b15620003a357336001600160a01b0316856001600160a01b03167f5c55717c3268b2c739eb5087e22a9bcf39b0d4f5a8ab89b4fff9cfe5711e4b348686815181106200034157620003416200076c565b6020026020010151604051620003589190620007e6565b60405180910390a360405133906001600160e01b03198416906001600160a01b038816907f246b022c673a2751245f84dced77afcce61bcd820ff1235276e8c1c242a78f7490600090a45b50508080620003b29062000836565b9150506200028a565b50620003c960038362000590565b505050565b620003db600383620005a7565b6200043b5760405162461bcd60e51b815260206004820152602960248201527f46756e6374696f6e417574686f72697a6174696f6e3a20636f6e7472616374206044820152681b9bdd08195e1a5cdd60ba1b60648201526084016200027e565b6001600160a01b038116156200051f576040516301ffc9a760e01b815263e558cba160e01b60048201526001600160a01b038216906301ffc9a790602401602060405180830381865afa15801562000497573d6000803e3d6000fd5b505050506040513d601f19601f82011682018060405250810190620004bd91906200085e565b6200051f5760405162461bcd60e51b815260206004820152602b60248201527f46756e6374696f6e417574686f72697a6174696f6e3a2061636c5f206973206e60448201526a1bdd081250985cd95050d360aa1b60648201526084016200027e565b6001600160a01b0382811660008181526006602052604080822080546001600160a01b031916948616948517905551339392917f09a226cf85d5c3f9bf762d15f165b63b555418743ec5a33495c22ef0f9240bc591a45050565b6000620005878383620005ca565b90505b92915050565b600062000587836001600160a01b038416620005ca565b6001600160a01b0381166000908152600183016020526040812054151562000587565b600081815260018301602052604081205462000613575081546001818101845560008481526020808220909301849055845484825282860190935260409020919091556200058a565b5060006200058a565b6114c480620019e883390190565b80516001600160a01b03811681146200064257600080fd5b919050565b634e487b7160e01b600052604160045260246000fd5b6000806000606084860312156200067357600080fd5b6200067e846200062a565b925060206200068f8186016200062a565b60408601519093506001600160401b0380821115620006ad57600080fd5b818701915087601f830112620006c257600080fd5b815181811115620006d757620006d762000647565b8060051b604051601f19603f83011681018181108582111715620006ff57620006ff62000647565b60405291825284820192508381018501918a8311156200071e57600080fd5b938501935b828510156200073e5784518452938501939285019262000723565b8096505050505050509250925092565b6000602082840312156200076157600080fd5b62000587826200062a565b634e487b7160e01b600052603260045260246000fd5b6001600160a01b0384811682528316602080830191909152606060408301819052835190830181905260009184810191608085019190845b81811015620007d857845184529382019392820192600101620007ba565b509198975050505050505050565b600060208083528351808285015260005b818110156200081557858101830151858201604001528201620007f7565b506000604082860101526040601f19601f8301168501019250505092915050565b6000600182016200085757634e487b7160e01b600052601160045260246000fd5b5060010190565b6000602082840312156200087157600080fd5b815180151581146200088257600080fd5b9392505050565b61114f80620008996000396000f3fe608060405234801561001057600080fd5b50600436106101025760003560e01c8063a3f4df7e1161009c578063db46486a1161006e578063db46486a14610244578063e3056a341461024c578063f486186d1461025f578063fc9c8d3914610267578063ffa1ad741461027a57005b8063a3f4df7e146101dd578063a3fb76a5146101e5578063ac9650d814610211578063d38bfff41461023157005b80633504a49f116100d55780633504a49f146101745780634434f543146101945780635ce5fb0a146101a957806370c2ded5146101bd57005b806301ffc9a7146101045780630c340a241461012c57806318d3ce9614610157578063238efcbc1461016c575b005b610117610112366004610abf565b610290565b60405190151581526020015b60405180910390f35b60005461013f906001600160a01b031681565b6040516001600160a01b039091168152602001610123565b61015f6102c7565b6040516101239190610ae9565b6101026102d8565b610187610182366004610b36565b6103a5565b6040516101239190610bc1565b61019c61041d565b6040516101239190610be8565b60015461011790600160a01b900460ff1681565b6101d06101cb366004610bfb565b610439565b6040516101239190610c24565b61019c61045d565b61013f6101f3366004610bfb565b6001600160a01b039081166000908152600660205260409020541690565b61022461021f366004610c5c565b610479565b6040516101239190610cd1565b61010261023f366004610bfb565b610598565b61019c61065f565b60015461013f906001600160a01b031681565b61010261067b565b60025461013f906001600160a01b031681565b610282600181565b604051908152602001610123565b60006001600160e01b031982166301ffc9a760e01b14806102c157506001600160e01b03198216633504a49f60e01b145b92915050565b60606102d360036106f5565b905090565b6001546001600160a01b031633146103415760405162461bcd60e51b815260206004820152602160248201527f476f7665726e61626c653a206f6e6c792070656e64696e6720676f7665726e6f6044820152603960f91b60648201526084015b60405180910390fd5b600154600080546040516001600160a01b0393841693909116917f1ba669d4a78521f2ad26e8e0fcbcdd626a63f34d68f326bc232a3abe2a5d042a91a360018054600080546001600160a01b03199081166001600160a01b03841617909155169055565b6040805180820190915260008152606060208201526002546001600160a01b031633146104145760405162461bcd60e51b815260206004820152601e60248201527f42617365417574686f72697a6174696f6e3a206f6e6c792063616c6c657200006044820152606401610338565b6102c182610709565b6040518060600160405280602d81526020016110ed602d913981565b6001600160a01b03811660009081526005602052604090206060906102c1906106f5565b6040518060600160405280602c815260200161106e602c913981565b60608167ffffffffffffffff81111561049457610494610d33565b6040519080825280602002602001820160405280156104c757816020015b60608152602001906001900390816104b25790505b50905060005b8281101561059157600080308686858181106104eb576104eb610d49565b90506020028101906104fd9190610d5f565b60405161050b929190610dad565b600060405180830381855af49150503d8060008114610546576040519150601f19603f3d011682016040523d82523d6000602084013e61054b565b606091505b50915091508161055e5761055e81610926565b8084848151811061057157610571610d49565b60200260200101819052505050808061058990610dbd565b9150506104cd565b5092915050565b600154600160a01b900460ff1680156105bb57506000546001600160a01b031633145b6106035760405162461bcd60e51b815260206004820152601960248201527823b7bb32b93730b136329d1037b7363c9033b7bb32b93737b960391b6044820152606401610338565b6001546040516001600160a01b038084169216907f7d767be5a57784412a13945bd5114db84487d2b007bfcdb2f449fc9ea35437f790600090a3600180546001600160a01b0319166001600160a01b0392909216919091179055565b6040518060600160405280602881526020016110c56028913981565b600154600160a01b900460ff16801561069e57506000546001600160a01b031633145b6106e65760405162461bcd60e51b815260206004820152601960248201527823b7bb32b93730b136329d1037b7363c9033b7bb32b93737b960391b6044820152606401610338565b6001805460ff60a01b19169055565b6060600061070283610964565b9392505050565b6040805180820190915260008152606060208201526107396107316040840160208501610bfb565b6003906109c0565b156109005760006107556107506060850185610d5f565b503590565b905061077061076a6040850160208601610bfb565b826109e2565b156108d85760018252600060068161078e6040870160208801610bfb565b6001600160a01b03908116825260208201929092526040016000205416905080156108d2576001600160a01b03811663e558cba16107cf6020870187610bfb565b6107df6040880160208901610bfb565b6107ec6060890189610d5f565b89604001356040518663ffffffff1660e01b8152600401610811959493929190610de4565b6000604051808303816000875af192505050801561085157506040513d6000823e601f3d908101601f1916820160405261084e9190810190610ecc565b60015b6108ca5761085d610f67565b806308c379a00361088a5750610871610f83565b8061087c575061088c565b6000845260208401526108d2565b505b3d8080156108b6576040519150601f19603f3d011682016040523d82523d6000602084013e6108bb565b606091505b506000845260208401526108d2565b949350505050565b506108fa565b600082526040805160608101909152602b808252611043602083013960208301525b50919050565b600081526040805160608101909152602b80825261109a60208301396020820152919050565b60008061093283610a0e565b915091508015610956578160405162461bcd60e51b81526004016103389190610be8565b61095f83610a9e565b505050565b6060816000018054806020026020016040519081016040528092919081815260200182805480156109b457602002820191906000526020600020905b8154815260200190600101908083116109a0575b50505050509050919050565b6001600160a01b03811660009081526001830160205260408120541515610702565b6001600160a01b0382166000908152600560205260408120610702906001600160e01b03198416610aa7565b60606000604483511015610a35575050604080516020810190915260008082529092909150565b6000610a42846020015190565b90506307b9e43360e51b6001600160e01b0319821601610a815760048401935083806020019051810190610a76919061100d565b946001945092505050565b600060405180602001604052806000815250909250925050915091565b80518060208301fd5b60008181526001830160205260408120541515610702565b600060208284031215610ad157600080fd5b81356001600160e01b03198116811461070257600080fd5b6020808252825182820181905260009190848201906040850190845b81811015610b2a5783516001600160a01b031683529284019291840191600101610b05565b50909695505050505050565b600060208284031215610b4857600080fd5b813567ffffffffffffffff811115610b5f57600080fd5b82016080818503121561070257600080fd5b60005b83811015610b8c578181015183820152602001610b74565b50506000910152565b60008151808452610bad816020860160208601610b71565b601f01601f19169290920160200192915050565b60208152815115156020820152600060208301516040808401526108ca6060840182610b95565b6020815260006107026020830184610b95565b600060208284031215610c0d57600080fd5b81356001600160a01b038116811461070257600080fd5b6020808252825182820181905260009190848201906040850190845b81811015610b2a57835183529284019291840191600101610c40565b60008060208385031215610c6f57600080fd5b823567ffffffffffffffff80821115610c8757600080fd5b818501915085601f830112610c9b57600080fd5b813581811115610caa57600080fd5b8660208260051b8501011115610cbf57600080fd5b60209290920196919550909350505050565b6000602080830181845280855180835260408601915060408160051b870101925083870160005b82811015610d2657603f19888603018452610d14858351610b95565b94509285019290850190600101610cf8565b5092979650505050505050565b634e487b7160e01b600052604160045260246000fd5b634e487b7160e01b600052603260045260246000fd5b6000808335601e19843603018112610d7657600080fd5b83018035915067ffffffffffffffff821115610d9157600080fd5b602001915036819003821315610da657600080fd5b9250929050565b8183823760009101908152919050565b600060018201610ddd57634e487b7160e01b600052601160045260246000fd5b5060010190565b6001600160a01b0386811682528516602082015260806040820181905281018390526000838560a0840137600060a0858401015260a0601f19601f86011683010190508260608301529695505050505050565b601f8201601f1916810167ffffffffffffffff81118282101715610e5d57610e5d610d33565b6040525050565b600082601f830112610e7557600080fd5b815167ffffffffffffffff811115610e8f57610e8f610d33565b604051610ea6601f8301601f191660200182610e37565b818152846020838601011115610ebb57600080fd5b6108ca826020830160208701610b71565b600060208284031215610ede57600080fd5b815167ffffffffffffffff80821115610ef657600080fd5b9083019060408286031215610f0a57600080fd5b604051604081018181108382111715610f2557610f25610d33565b60405282518015158114610f3857600080fd5b8152602083015182811115610f4c57600080fd5b610f5887828601610e64565b60208301525095945050505050565b600060033d1115610f805760046000803e5060005160e01c5b90565b600060443d1015610f915790565b6040516003193d81016004833e81513d67ffffffffffffffff8160248401118184111715610fc157505050505090565b8285019150815181811115610fd95750505050505090565b843d8701016020828501011115610ff35750505050505090565b61100260208286010187610e37565b509095945050505050565b60006020828403121561101f57600080fd5b815167ffffffffffffffff81111561103657600080fd5b6108ca84828501610e6456fe46756e6374696f6e417574686f72697a6174696f6e3a206e6f7420616c6c6f7765642066756e6374696f6e536f6c765661756c74477561726469616e5f466f464e61764d616e61676572417574686f72697a6174696f6e46756e6374696f6e417574686f72697a6174696f6e3a206e6f7420616c6c6f77656420636f6e74726163747365745375627363726962654e617628627974657333322c75696e743235362c75696e743235362973657452656465656d4e617628627974657333322c75696e743235362c75696e743235362c75696e7432353629a2646970667358221220be57464567134ef0b9e8c0092ea143bb61ff2cf667edb940b04739b71be3745564736f6c6343000813003360806040523480156200001157600080fd5b50604051620014c4380380620014c4833981016040819052620000349162000159565b600080546001600160a01b038086166001600160a01b031992831617835560038054918616919092161790555b8151811015620000b3576200009d8282815181106200008457620000846200024a565b60200260200101516004620000bd60201b90919060201c565b5080620000aa8162000260565b91505062000061565b5050505062000288565b6000620000cb8383620000d4565b90505b92915050565b60008181526001830160205260408120546200011d57508154600181810184556000848152602080822090930184905584548482528286019093526040902091909155620000ce565b506000620000ce565b80516001600160a01b03811681146200013e57600080fd5b919050565b634e487b7160e01b600052604160045260246000fd5b6000806000606084860312156200016f57600080fd5b6200017a8462000126565b925060206200018b81860162000126565b60408601519093506001600160401b0380821115620001a957600080fd5b818701915087601f830112620001be57600080fd5b815181811115620001d357620001d362000143565b8060051b604051601f19603f83011681018181108582111715620001fb57620001fb62000143565b60405291825284820192508381018501918a8311156200021a57600080fd5b938501935b828510156200023a578451845293850193928501926200021f565b8096505050505050509250925092565b634e487b7160e01b600052603260045260246000fd5b6000600182016200028157634e487b7160e01b600052601160045260246000fd5b5060010190565b61122c80620002986000396000f3fe608060405234801561001057600080fd5b50600436106100a65760003560e01c8063d4954c401161006e578063d4954c4014610138578063e558cba11461014b578063ef10e1801461016b578063f355d4171461017e578063fc9c8d3914610191578063ffa1ad74146101a457005b806301ffc9a7146100a85780631576f83f146100d057806360eb23fb146100fb578063861c0d4d1461010e578063a3f4df7e14610123575b005b6100bb6100b636600461082d565b6101ba565b60405190151581526020015b60405180910390f35b6001546100e3906001600160a01b031681565b6040516001600160a01b0390911681526020016100c7565b6002546100e3906001600160a01b031681565b6101166101f1565b6040516100c79190610857565b61012b610202565b6040516100c791906108eb565b6100a66101463660046108fe565b61021e565b61015e610159366004610942565b610280565b6040516100c791906109dc565b6100a6610179366004610a0b565b6102f3565b6003546100e3906001600160a01b031681565b6000546100e3906001600160a01b031681565b6101ac600181565b6040519081526020016100c7565b60006001600160e01b031982166301ffc9a760e01b14806101eb57506001600160e01b0319821663e558cba160e01b145b92915050565b60606101fd6004610504565b905090565b6040518060600160405280602c81526020016111cb602c913981565b610226610518565b60400151156102505760405162461bcd60e51b815260040161024790610a3d565b60405180910390fd5b60008381526005602052604090205461027b5760405162461bcd60e51b815260040161024790610a9a565b505050565b6040805180820190915260008152606060208201526000546001600160a01b031633146102dc5760405162461bcd60e51b815260206004820152600a60248201526937b7363ca1b0b63632b960b11b6044820152606401610247565b6102e98686868686610543565b9695505050505050565b6102fb610518565b604001511561031c5760405162461bcd60e51b815260040161024790610a3d565b6000848152600560205260409020546103475760405162461bcd60e51b815260040161024790610a9a565b806001146103b65760405162461bcd60e51b815260206004820152603660248201527f466f464e61764d616e61676572417574686f72697a6174696f6e41434c3a20696044820152756e76616c69642063757272656e637942616c616e636560501b6064820152608401610247565b60035460405162daa6b160e61b8152600481018690526000916001600160a01b0316906336a9ac40906024016102a060405180830381865afa158015610400573d6000803e3d6000fd5b505050506040513d601f19601f820116820180604052508101906104249190610d55565b905060008160a001516001600160a01b031663313ce5676040518163ffffffff1660e01b8152600401602060405180830381865afa15801561046a573d6000803e3d6000fd5b505050506040513d601f19601f8201168201806040525081019061048e9190610e22565b905061049b81600a610f3f565b84146104fc5760405162461bcd60e51b815260206004820152602a60248201527f466f464e61764d616e61676572417574686f72697a6174696f6e41434c3a2069604482015269373b30b634b2103730bb60b11b6064820152608401610247565b505050505050565b606060006105118361063c565b9392505050565b60408051608081018252600080825260208201819052918101919091526060808201526101fd610698565b604080518082019091526000815260606020820152600080306001600160a01b03166105d460405180608001604052808b6001600160a01b031681526020018a6001600160a01b0316815260200187815260200189898080601f0160208091040260200160405190810160405280939291908181526020018383808284376000920191909152505050915250610707565b6040516105e19190610f4e565b600060405180830381855afa9150503d806000811461061c576040519150601f19603f3d011682016040523d82523d6000602084013e610621565b606091505b5091509150610630828261077f565b98975050505050505050565b60608160000180548060200260200160405190810160405280929190818152602001828054801561068c57602002820191906000526020600020905b815481526020019060010190808311610678575b50505050509050919050565b604080516080810182526000808252602082018190529181019190915260608082015236600080826106cb602082610f6a565b6106d792859290610f7d565b8101906106e49190610fa7565b90506106f33682816000610f7d565b8101906107009190610fe8565b9250505090565b606060008260405160200161071c91906110cb565b60408051601f19818403018152828252606086015151602084015292506000910160405160208183030381529060405290508360600151828260405160200161076793929190611110565b60405160208183030381529060405292505050919050565b60408051808201909152600081526060602082015282156107f2578151156107e95760405162461bcd60e51b815260206004820152601d60248201527f41434c2046756e6374696f6e2072657475726e206e6f6e20656d7074790000006044820152606401610247565b600181526101eb565b60448251101561080857602081018290526101eb565b600482019150818060200190518101906108229190611153565b602082015292915050565b60006020828403121561083f57600080fd5b81356001600160e01b03198116811461051157600080fd5b6020808252825182820181905260009190848201906040850190845b8181101561088f57835183529284019291840191600101610873565b50909695505050505050565b60005b838110156108b657818101518382015260200161089e565b50506000910152565b600081518084526108d781602086016020860161089b565b601f01601f19169290920160200192915050565b60208152600061051160208301846108bf565b60008060006060848603121561091357600080fd5b505081359360208301359350604090920135919050565b6001600160a01b038116811461093f57600080fd5b50565b60008060008060006080868803121561095a57600080fd5b85356109658161092a565b945060208601356109758161092a565b9350604086013567ffffffffffffffff8082111561099257600080fd5b818801915088601f8301126109a657600080fd5b8135818111156109b557600080fd5b8960208285010111156109c757600080fd5b96999598505060200195606001359392505050565b6020815281511515602082015260006020830151604080840152610a0360608401826108bf565b949350505050565b60008060008060808587031215610a2157600080fd5b5050823594602084013594506040840135936060013592509050565b6020808252603c908201527f466f464e61764d616e61676572417574686f72697a6174696f6e41434c3a207460408201527f72616e73616374696f6e2076616c7565206e6f7420616c6c6f77656400000000606082015260800190565b60208082526032908201527f466f464e61764d616e61676572417574686f72697a6174696f6e41434c3a20706040820152711bdbdb081b9bdd08185d5d1a1bdc9a5e995960721b606082015260800190565b634e487b7160e01b600052604160045260246000fd5b6040516080810167ffffffffffffffff81118282101715610b2557610b25610aec565b60405290565b6040516060810167ffffffffffffffff81118282101715610b2557610b25610aec565b604051610140810167ffffffffffffffff81118282101715610b2557610b25610aec565b604051601f8201601f1916810167ffffffffffffffff81118282101715610b9b57610b9b610aec565b604052919050565b8051610bae8161092a565b919050565b600060808284031215610bc557600080fd5b610bcd610b02565b90508151610bda8161092a565b81526020820151610bea8161092a565b80602083015250604082015160408201526060820151606082015292915050565b805167ffffffffffffffff81168114610bae57600080fd5b600060608284031215610c3557600080fd5b610c3d610b2b565b9050815161ffff81168114610c5157600080fd5b81526020820151610c618161092a565b6020820152610c7260408301610c0b565b604082015292915050565b600060608284031215610c8f57600080fd5b610c97610b2b565b90508151610ca48161092a565b81526020820151610cb48161092a565b60208201526040820151610c728161092a565b600060a08284031215610cd957600080fd5b60405160a0810181811067ffffffffffffffff82111715610cfc57610cfc610aec565b8060405250809150825181526020830151602082015260408301516040820152610d2860608401610c0b565b6060820152610d3960808401610c0b565b60808201525092915050565b80518015158114610bae57600080fd5b60006102a08284031215610d6857600080fd5b610d70610b4e565b610d7a8484610bb3565b8152610d898460808501610c23565b6020820152610d9b8460e08501610c7d565b6040820152610dae846101408501610cc7565b6060820152610dc06101e08401610ba3565b6080820152610dd26102008401610ba3565b60a0820152610de46102208401610ba3565b60c0820152610df66102408401610c0b565b60e0820152610e086102608401610d45565b610100820152610280929092015161012083015250919050565b600060208284031215610e3457600080fd5b815160ff8116811461051157600080fd5b634e487b7160e01b600052601160045260246000fd5b600181815b80851115610e96578160001904821115610e7c57610e7c610e45565b80851615610e8957918102915b93841c9390800290610e60565b509250929050565b600082610ead575060016101eb565b81610eba575060006101eb565b8160018114610ed05760028114610eda57610ef6565b60019150506101eb565b60ff841115610eeb57610eeb610e45565b50506001821b6101eb565b5060208310610133831016604e8410600b8410161715610f19575081810a6101eb565b610f238383610e5b565b8060001904821115610f3757610f37610e45565b029392505050565b600061051160ff841683610e9e565b60008251610f6081846020870161089b565b9190910192915050565b818103818111156101eb576101eb610e45565b60008085851115610f8d57600080fd5b83861115610f9a57600080fd5b5050820193919092039150565b600060208284031215610fb957600080fd5b5035919050565b600067ffffffffffffffff821115610fda57610fda610aec565b50601f01601f191660200190565b60006020808385031215610ffb57600080fd5b823567ffffffffffffffff8082111561101357600080fd5b908401906080828703121561102757600080fd5b61102f610b02565b823561103a8161092a565b8152828401356110498161092a565b818501526040838101359082015260608301358281111561106957600080fd5b80840193505086601f84011261107e57600080fd5b8235915061109361108e83610fc0565b610b72565b82815287858486010111156110a757600080fd5b82858501868301376000858483010152806060830152508094505050505092915050565b60208152600060018060a01b0380845116602084015280602085015116604084015250604083015160608301526060830151608080840152610a0360a08401826108bf565b6000845161112281846020890161089b565b84519083019061113681836020890161089b565b845191019061114981836020880161089b565b0195945050505050565b60006020828403121561116557600080fd5b815167ffffffffffffffff81111561117c57600080fd5b8201601f8101841361118d57600080fd5b805161119b61108e82610fc0565b8181528560208385010111156111b057600080fd5b6111c182602083016020860161089b565b9594505050505056fe536f6c765661756c7447756172645f466f464e61764d616e61676572417574686f72697a6174696f6e41434ca2646970667358221220f8aa7ce0422086393596f7620b41a185de77eb1720e8d7389d181bbfddf90f9964736f6c634300081300337365745375627363726962654e617628627974657333322c75696e743235362c75696e743235362973657452656465656d4e617628627974657333322c75696e743235362c75696e743235362c75696e7432353629",
  "devdoc": {
    "kind": "dev",
    "methods": {
      "multicall(bytes[])": {
        "details": "Receives and executes a batch of function calls on this contract."
      },
      "supportsInterface(bytes4)": {
        "details": "Returns true if this contract implements the interface defined by `interfaceId`. See the corresponding https://eips.ethereum.org/EIPS/eip-165#how-interfaces-are-identified[EIP section] to learn more about how these ids are created. This function call must use less than 30 000 gas."
      }
    },
    "version": 1
  },
  "userdoc": {
    "kind": "user",
    "methods": {},
    "version": 1
  },
  "storageLayout": {
    "storage": [
      {
        "astId": 9028,
        "contract": "src/authorizations/solv-open-end-fund/FoFNavManagerAuthorization.sol:FoFNavManagerAuthorization",
        "label": "governor",
        "offset": 0,
        "slot": "0",
        "type": "t_address"
      },
      {
        "astId": 9030,
        "contract": "src/authorizations/solv-open-end-fund/FoFNavManagerAuthorization.sol:FoFNavManagerAuthorization",
        "label": "pendingGovernor",
        "offset": 0,
        "slot": "1",
        "type": "t_address"
      },
      {
        "astId": 9033,
        "contract": "src/authorizations/solv-open-end-fund/FoFNavManagerAuthorization.sol:FoFNavManagerAuthorization",
        "label": "governanceAllowed",
        "offset": 20,
        "slot": "1",
        "type": "t_bool"
      },
      {
        "astId": 6567,
        "contract": "src/authorizations/solv-open-end-fund/FoFNavManagerAuthorization.sol:FoFNavManagerAuthorization",
        "label": "caller",
        "offset": 0,
        "slot": "2",
        "type": "t_address"
      },
      {
        "astId": 6718,
        "contract": "src/authorizations/solv-open-end-fund/FoFNavManagerAuthorization.sol:FoFNavManagerAuthorization",
        "label": "_contracts",
        "offset": 0,
        "slot": "3",
        "type": "t_struct(AddressSet)337_storage"
      },
      {
        "astId": 6723,
        "contract": "src/authorizations/solv-open-end-fund/FoFNavManagerAuthorization.sol:FoFNavManagerAuthorization",
        "label": "_allowedContractToFunctions",
        "offset": 0,
        "slot": "5",
        "type": "t_mapping(t_address,t_struct(Bytes32Set)216_storage)"
      },
      {
        "astId": 6727,
        "contract": "src/authorizations/solv-open-end-fund/FoFNavManagerAuthorization.sol:FoFNavManagerAuthorization",
        "label": "_contractACL",
        "offset": 0,
        "slot": "6",
        "type": "t_mapping(t_address,t_address)"
      }
    ],
    "types": {
      "t_address": {
        "encoding": "inplace",
        "label": "address",
        "numberOfBytes": "20"
      },
      "t_array(t_bytes32)dyn_storage": {
        "base": "t_bytes32",
        "encoding": "dynamic_array",
        "label": "bytes32[]",
        "numberOfBytes": "32"
      },
      "t_bool": {
        "encoding": "inplace",
        "label": "bool",
        "numberOfBytes": "1"
      },
      "t_bytes32": {
        "encoding": "inplace",
        "label": "bytes32",
        "numberOfBytes": "32"
      },
      "t_mapping(t_address,t_address)": {
        "encoding": "mapping",
        "key": "t_address",
        "label": "mapping(address => address)",
        "numberOfBytes": "32",
        "value": "t_address"
      },
      "t_mapping(t_address,t_struct(Bytes32Set)216_storage)": {
        "encoding": "mapping",
        "key": "t_address",
        "label": "mapping(address => struct EnumerableSet.Bytes32Set)",
        "numberOfBytes": "32",
        "value": "t_struct(Bytes32Set)216_storage"
      },
      "t_mapping(t_bytes32,t_uint256)": {
        "encoding": "mapping",
        "key": "t_bytes32",
        "label": "mapping(bytes32 => uint256)",
        "numberOfBytes": "32",
        "value": "t_uint256"
      },
      "t_struct(AddressSet)337_storage": {
        "encoding": "inplace",
        "label": "struct EnumerableSet.AddressSet",
        "members": [
          {
            "astId": 336,
            "contract": "src/authorizations/solv-open-end-fund/FoFNavManagerAuthorization.sol:FoFNavManagerAuthorization",
            "label": "_inner",
            "offset": 0,
            "slot": "0",
            "type": "t_struct(Set)22_storage"
          }
        ],
        "numberOfBytes": "64"
      },
      "t_struct(Bytes32Set)216_storage": {
        "encoding": "inplace",
        "label": "struct EnumerableSet.Bytes32Set",
        "members": [
          {
            "astId": 215,
            "contract": "src/authorizations/solv-open-end-fund/FoFNavManagerAuthorization.sol:FoFNavManagerAuthorization",
            "label": "_inner",
            "offset": 0,
            "slot": "0",
            "type": "t_struct(Set)22_storage"
          }
        ],
        "numberOfBytes": "64"
      },
      "t_struct(Set)22_storage": {
        "encoding": "inplace",
        "label": "struct EnumerableSet.Set",
        "members": [
          {
            "astId": 17,
            "contract": "src/authorizations/solv-open-end-fund/FoFNavManagerAuthorization.sol:FoFNavManagerAuthorization",
            "label": "_values",
            "offset": 0,
            "slot": "0",
            "type": "t_array(t_bytes32)dyn_storage"
          },
          {
            "astId": 21,
            "contract": "src/authorizations/solv-open-end-fund/FoFNavManagerAuthorization.sol:FoFNavManagerAuthorization",
            "label": "_indexes",
            "offset": 0,
            "slot": "1",
            "type": "t_mapping(t_bytes32,t_uint256)"
          }
        ],
        "numberOfBytes": "64"
      },
      "t_uint256": {
        "encoding": "inplace",
        "label": "uint256",
        "numberOfBytes": "32"
      }
    }
  }
}